{
  "_format": "hh-sol-artifact-1",
  "contractName": "IPregistry",
  "sourceName": "contracts/IPregistry.sol",
  "abi": [
    {
      "anonymous": false,
      "inputs": [
        {
          "indexed": true,
          "internalType": "uint256",
          "name": "index",
          "type": "uint256"
        },
        {
          "indexed": true,
          "internalType": "address",
          "name": "user",
          "type": "address"
        },
        {
          "indexed": false,
          "internalType": "uint256",
          "name": "amount",
          "type": "uint256"
        }
      ],
      "name": "AccessGranted",
      "type": "event"
    },
    {
      "anonymous": false,
      "inputs": [
        {
          "indexed": true,
          "internalType": "uint256",
          "name": "index",
          "type": "uint256"
        },
        {
          "indexed": false,
          "internalType": "string",
          "name": "name",
          "type": "string"
        },
        {
          "indexed": true,
          "internalType": "address",
          "name": "owner",
          "type": "address"
        },
        {
          "indexed": false,
          "internalType": "string",
          "name": "dateOfRegistration",
          "type": "string"
        }
      ],
      "name": "IPRegistered",
      "type": "event"
    },
    {
      "anonymous": false,
      "inputs": [
        {
          "indexed": true,
          "internalType": "uint256",
          "name": "index",
          "type": "uint256"
        },
        {
          "indexed": true,
          "internalType": "address",
          "name": "payer",
          "type": "address"
        },
        {
          "indexed": false,
          "internalType": "uint256",
          "name": "amount",
          "type": "uint256"
        }
      ],
      "name": "IncentivePaid",
      "type": "event"
    },
    {
      "anonymous": false,
      "inputs": [
        {
          "indexed": true,
          "internalType": "uint256",
          "name": "index",
          "type": "uint256"
        },
        {
          "indexed": true,
          "internalType": "address",
          "name": "from",
          "type": "address"
        },
        {
          "indexed": true,
          "internalType": "address",
          "name": "to",
          "type": "address"
        }
      ],
      "name": "OwnershipTransferred",
      "type": "event"
    },
    {
      "inputs": [],
      "name": "getAllRegisteredIPs",
      "outputs": [
        {
          "components": [
            {
              "internalType": "uint256",
              "name": "index",
              "type": "uint256"
            },
            {
              "internalType": "string",
              "name": "name",
              "type": "string"
            },
            {
              "internalType": "string",
              "name": "description",
              "type": "string"
            },
            {
              "components": [
                {
                  "internalType": "string",
                  "name": "name",
                  "type": "string"
                },
                {
                  "internalType": "string",
                  "name": "email",
                  "type": "string"
                },
                {
                  "internalType": "string",
                  "name": "physicalAddress",
                  "type": "string"
                }
              ],
              "internalType": "struct IPregistry.OwnerDetails",
              "name": "owner",
              "type": "tuple"
            },
            {
              "internalType": "string",
              "name": "ipType",
              "type": "string"
            },
            {
              "internalType": "string",
              "name": "dateOfCreation",
              "type": "string"
            },
            {
              "internalType": "string",
              "name": "dateOfRegistration",
              "type": "string"
            },
            {
              "internalType": "string[]",
              "name": "license",
              "type": "string[]"
            },
            {
              "internalType": "uint256",
              "name": "licenseIncentive",
              "type": "uint256"
            },
            {
              "internalType": "string[]",
              "name": "tags",
              "type": "string[]"
            },
            {
              "components": [
                {
                  "internalType": "string",
                  "name": "workType",
                  "type": "string"
                },
                {
                  "internalType": "string",
                  "name": "classOfGoods",
                  "type": "string"
                },
                {
                  "internalType": "string[]",
                  "name": "inventors",
                  "type": "string[]"
                },
                {
                  "internalType": "string",
                  "name": "domainName",
                  "type": "string"
                },
                {
                  "internalType": "string",
                  "name": "publicationDate",
                  "type": "string"
                }
              ],
              "internalType": "struct IPregistry.OptionalFields",
              "name": "optionalFields",
              "type": "tuple"
            },
            {
              "internalType": "address",
              "name": "ownerAddress",
              "type": "address"
            }
          ],
          "internalType": "struct IPregistry.IntellectualProperty[]",
          "name": "",
          "type": "tuple[]"
        }
      ],
      "stateMutability": "view",
      "type": "function"
    },
    {
      "inputs": [
        {
          "internalType": "uint256",
          "name": "index",
          "type": "uint256"
        }
      ],
      "name": "getIPDetails",
      "outputs": [
        {
          "components": [
            {
              "internalType": "uint256",
              "name": "index",
              "type": "uint256"
            },
            {
              "internalType": "string",
              "name": "name",
              "type": "string"
            },
            {
              "internalType": "string",
              "name": "description",
              "type": "string"
            },
            {
              "components": [
                {
                  "internalType": "string",
                  "name": "name",
                  "type": "string"
                },
                {
                  "internalType": "string",
                  "name": "email",
                  "type": "string"
                },
                {
                  "internalType": "string",
                  "name": "physicalAddress",
                  "type": "string"
                }
              ],
              "internalType": "struct IPregistry.OwnerDetails",
              "name": "owner",
              "type": "tuple"
            },
            {
              "internalType": "string",
              "name": "ipType",
              "type": "string"
            },
            {
              "internalType": "string",
              "name": "dateOfCreation",
              "type": "string"
            },
            {
              "internalType": "string",
              "name": "dateOfRegistration",
              "type": "string"
            },
            {
              "internalType": "string[]",
              "name": "license",
              "type": "string[]"
            },
            {
              "internalType": "uint256",
              "name": "licenseIncentive",
              "type": "uint256"
            },
            {
              "internalType": "string[]",
              "name": "tags",
              "type": "string[]"
            },
            {
              "components": [
                {
                  "internalType": "string",
                  "name": "workType",
                  "type": "string"
                },
                {
                  "internalType": "string",
                  "name": "classOfGoods",
                  "type": "string"
                },
                {
                  "internalType": "string[]",
                  "name": "inventors",
                  "type": "string[]"
                },
                {
                  "internalType": "string",
                  "name": "domainName",
                  "type": "string"
                },
                {
                  "internalType": "string",
                  "name": "publicationDate",
                  "type": "string"
                }
              ],
              "internalType": "struct IPregistry.OptionalFields",
              "name": "optionalFields",
              "type": "tuple"
            },
            {
              "internalType": "address",
              "name": "ownerAddress",
              "type": "address"
            }
          ],
          "internalType": "struct IPregistry.IntellectualProperty",
          "name": "",
          "type": "tuple"
        }
      ],
      "stateMutability": "view",
      "type": "function"
    },
    {
      "inputs": [
        {
          "internalType": "address",
          "name": "owner",
          "type": "address"
        }
      ],
      "name": "getOwnerIPs",
      "outputs": [
        {
          "internalType": "uint256[]",
          "name": "",
          "type": "uint256[]"
        }
      ],
      "stateMutability": "view",
      "type": "function"
    },
    {
      "inputs": [],
      "name": "getTotalIPs",
      "outputs": [
        {
          "internalType": "uint256",
          "name": "",
          "type": "uint256"
        }
      ],
      "stateMutability": "view",
      "type": "function"
    },
    {
      "inputs": [
        {
          "internalType": "uint256",
          "name": "index",
          "type": "uint256"
        }
      ],
      "name": "grantAccess",
      "outputs": [],
      "stateMutability": "payable",
      "type": "function"
    },
    {
      "inputs": [
        {
          "internalType": "uint256",
          "name": "",
          "type": "uint256"
        },
        {
          "internalType": "address",
          "name": "",
          "type": "address"
        }
      ],
      "name": "hasAccess",
      "outputs": [
        {
          "internalType": "bool",
          "name": "",
          "type": "bool"
        }
      ],
      "stateMutability": "view",
      "type": "function"
    },
    {
      "inputs": [
        {
          "internalType": "uint256",
          "name": "",
          "type": "uint256"
        }
      ],
      "name": "ips",
      "outputs": [
        {
          "internalType": "uint256",
          "name": "index",
          "type": "uint256"
        },
        {
          "internalType": "string",
          "name": "name",
          "type": "string"
        },
        {
          "internalType": "string",
          "name": "description",
          "type": "string"
        },
        {
          "components": [
            {
              "internalType": "string",
              "name": "name",
              "type": "string"
            },
            {
              "internalType": "string",
              "name": "email",
              "type": "string"
            },
            {
              "internalType": "string",
              "name": "physicalAddress",
              "type": "string"
            }
          ],
          "internalType": "struct IPregistry.OwnerDetails",
          "name": "owner",
          "type": "tuple"
        },
        {
          "internalType": "string",
          "name": "ipType",
          "type": "string"
        },
        {
          "internalType": "string",
          "name": "dateOfCreation",
          "type": "string"
        },
        {
          "internalType": "string",
          "name": "dateOfRegistration",
          "type": "string"
        },
        {
          "internalType": "uint256",
          "name": "licenseIncentive",
          "type": "uint256"
        },
        {
          "components": [
            {
              "internalType": "string",
              "name": "workType",
              "type": "string"
            },
            {
              "internalType": "string",
              "name": "classOfGoods",
              "type": "string"
            },
            {
              "internalType": "string[]",
              "name": "inventors",
              "type": "string[]"
            },
            {
              "internalType": "string",
              "name": "domainName",
              "type": "string"
            },
            {
              "internalType": "string",
              "name": "publicationDate",
              "type": "string"
            }
          ],
          "internalType": "struct IPregistry.OptionalFields",
          "name": "optionalFields",
          "type": "tuple"
        },
        {
          "internalType": "address",
          "name": "ownerAddress",
          "type": "address"
        }
      ],
      "stateMutability": "view",
      "type": "function"
    },
    {
      "inputs": [
        {
          "internalType": "uint256",
          "name": "index",
          "type": "uint256"
        }
      ],
      "name": "isRegistered",
      "outputs": [
        {
          "internalType": "bool",
          "name": "",
          "type": "bool"
        }
      ],
      "stateMutability": "view",
      "type": "function"
    },
    {
      "inputs": [
        {
          "internalType": "address",
          "name": "",
          "type": "address"
        },
        {
          "internalType": "uint256",
          "name": "",
          "type": "uint256"
        }
      ],
      "name": "ownerToIPs",
      "outputs": [
        {
          "internalType": "uint256",
          "name": "",
          "type": "uint256"
        }
      ],
      "stateMutability": "view",
      "type": "function"
    },
    {
      "inputs": [
        {
          "internalType": "string",
          "name": "name",
          "type": "string"
        },
        {
          "internalType": "string",
          "name": "description",
          "type": "string"
        },
        {
          "internalType": "string",
          "name": "ipType",
          "type": "string"
        },
        {
          "internalType": "string",
          "name": "dateOfCreation",
          "type": "string"
        },
        {
          "internalType": "string",
          "name": "dateOfRegistration",
          "type": "string"
        },
        {
          "internalType": "string[]",
          "name": "license",
          "type": "string[]"
        },
        {
          "internalType": "uint256",
          "name": "licenseIncentive",
          "type": "uint256"
        },
        {
          "internalType": "string[]",
          "name": "tags",
          "type": "string[]"
        },
        {
          "components": [
            {
              "internalType": "string",
              "name": "name",
              "type": "string"
            },
            {
              "internalType": "string",
              "name": "email",
              "type": "string"
            },
            {
              "internalType": "string",
              "name": "physicalAddress",
              "type": "string"
            }
          ],
          "internalType": "struct IPregistry.OwnerDetails",
          "name": "ownerDetails",
          "type": "tuple"
        },
        {
          "components": [
            {
              "internalType": "string",
              "name": "workType",
              "type": "string"
            },
            {
              "internalType": "string",
              "name": "classOfGoods",
              "type": "string"
            },
            {
              "internalType": "string[]",
              "name": "inventors",
              "type": "string[]"
            },
            {
              "internalType": "string",
              "name": "domainName",
              "type": "string"
            },
            {
              "internalType": "string",
              "name": "publicationDate",
              "type": "string"
            }
          ],
          "internalType": "struct IPregistry.OptionalFields",
          "name": "optionalFields",
          "type": "tuple"
        }
      ],
      "name": "registerIP",
      "outputs": [],
      "stateMutability": "nonpayable",
      "type": "function"
    },
    {
      "inputs": [
        {
          "internalType": "uint256",
          "name": "index",
          "type": "uint256"
        },
        {
          "internalType": "address",
          "name": "newOwner",
          "type": "address"
        },
        {
          "internalType": "string",
          "name": "newOwnerName",
          "type": "string"
        },
        {
          "internalType": "string",
          "name": "newOwnerEmail",
          "type": "string"
        },
        {
          "internalType": "string",
          "name": "newOwnerPhysicalAddress",
          "type": "string"
        }
      ],
      "name": "transferOwnership",
      "outputs": [],
      "stateMutability": "nonpayable",
      "type": "function"
    }
  ],
  "bytecode": "0x608060405234801561001057600080fd5b506140cf806100206000396000f3fe60806040526004361061009c5760003560e01c806357dd97771161006457806357dd9777146101c95780635a4070a7146101f4578063623f35441461021d5780637ca145631461025a578063c8af1c7314610276578063ced141981461029f5761009c565b80631feb4bfb146100a157806323a050c1146100de5780632816fb0b146101245780635051439514610161578063579a69881461018c575b600080fd5b3480156100ad57600080fd5b506100c860048036038101906100c3919061324e565b6102dc565b6040516100d59190613c25565b60405180910390f35b3480156100ea57600080fd5b506101056004803603810190610100919061324e565b610d45565b60405161011b9a99989796959493929190613c62565b60405180910390f35b34801561013057600080fd5b5061014b60048036038101906101469190613036565b61154c565b6040516101589190613b31565b60405180910390f35b34801561016d57600080fd5b506101766115e3565b6040516101839190613b0f565b60405180910390f35b34801561019857600080fd5b506101b360048036038101906101ae919061324e565b61212e565b6040516101c09190613b53565b60405180910390f35b3480156101d557600080fd5b506101de61213f565b6040516101eb9190613c47565b60405180910390f35b34801561020057600080fd5b5061021b6004803603810190610216919061309b565b61214c565b005b34801561022957600080fd5b50610244600480360381019061023f919061305f565b6124e8565b6040516102519190613c47565b60405180910390f35b610274600480360381019061026f919061324e565b612519565b005b34801561028257600080fd5b5061029d600480360381019061029891906132b3565b612764565b005b3480156102ab57600080fd5b506102c660048036038101906102c19190613277565b612b0c565b6040516102d39190613b53565b60405180910390f35b6102e4612b3b565b600380549050821061032b576040517f08c379a000000000000000000000000000000000000000000000000000000000815260040161032290613ba5565b60405180910390fd5b600080838152602001908152602001600020604051806101800160405290816000820154815260200160018201805461036390613f52565b80601f016020809104026020016040519081016040528092919081815260200182805461038f90613f52565b80156103dc5780601f106103b1576101008083540402835291602001916103dc565b820191906000526020600020905b8154815290600101906020018083116103bf57829003601f168201915b505050505081526020016002820180546103f590613f52565b80601f016020809104026020016040519081016040528092919081815260200182805461042190613f52565b801561046e5780601f106104435761010080835404028352916020019161046e565b820191906000526020600020905b81548152906001019060200180831161045157829003601f168201915b505050505081526020016003820160405180606001604052908160008201805461049790613f52565b80601f01602080910402602001604051908101604052809291908181526020018280546104c390613f52565b80156105105780601f106104e557610100808354040283529160200191610510565b820191906000526020600020905b8154815290600101906020018083116104f357829003601f168201915b5050505050815260200160018201805461052990613f52565b80601f016020809104026020016040519081016040528092919081815260200182805461055590613f52565b80156105a25780601f10610577576101008083540402835291602001916105a2565b820191906000526020600020905b81548152906001019060200180831161058557829003601f168201915b505050505081526020016002820180546105bb90613f52565b80601f01602080910402602001604051908101604052809291908181526020018280546105e790613f52565b80156106345780601f1061060957610100808354040283529160200191610634565b820191906000526020600020905b81548152906001019060200180831161061757829003601f168201915b505050505081525050815260200160068201805461065190613f52565b80601f016020809104026020016040519081016040528092919081815260200182805461067d90613f52565b80156106ca5780601f1061069f576101008083540402835291602001916106ca565b820191906000526020600020905b8154815290600101906020018083116106ad57829003601f168201915b505050505081526020016007820180546106e390613f52565b80601f016020809104026020016040519081016040528092919081815260200182805461070f90613f52565b801561075c5780601f106107315761010080835404028352916020019161075c565b820191906000526020600020905b81548152906001019060200180831161073f57829003601f168201915b5050505050815260200160088201805461077590613f52565b80601f01602080910402602001604051908101604052809291908181526020018280546107a190613f52565b80156107ee5780601f106107c3576101008083540402835291602001916107ee565b820191906000526020600020905b8154815290600101906020018083116107d157829003601f168201915b5050505050815260200160098201805480602002602001604051908101604052809291908181526020016000905b828210156108c857838290600052602060002001805461083b90613f52565b80601f016020809104026020016040519081016040528092919081815260200182805461086790613f52565b80156108b45780601f10610889576101008083540402835291602001916108b4565b820191906000526020600020905b81548152906001019060200180831161089757829003601f168201915b50505050508152602001906001019061081c565b505050508152602001600a8201548152602001600b8201805480602002602001604051908101604052809291908181526020016000905b828210156109ab57838290600052602060002001805461091e90613f52565b80601f016020809104026020016040519081016040528092919081815260200182805461094a90613f52565b80156109975780601f1061096c57610100808354040283529160200191610997565b820191906000526020600020905b81548152906001019060200180831161097a57829003601f168201915b5050505050815260200190600101906108ff565b505050508152602001600c82016040518060a00160405290816000820180546109d390613f52565b80601f01602080910402602001604051908101604052809291908181526020018280546109ff90613f52565b8015610a4c5780601f10610a2157610100808354040283529160200191610a4c565b820191906000526020600020905b815481529060010190602001808311610a2f57829003601f168201915b50505050508152602001600182018054610a6590613f52565b80601f0160208091040260200160405190810160405280929190818152602001828054610a9190613f52565b8015610ade5780601f10610ab357610100808354040283529160200191610ade565b820191906000526020600020905b815481529060010190602001808311610ac157829003601f168201915b5050505050815260200160028201805480602002602001604051908101604052809291908181526020016000905b82821015610bb8578382906000526020600020018054610b2b90613f52565b80601f0160208091040260200160405190810160405280929190818152602001828054610b5790613f52565b8015610ba45780601f10610b7957610100808354040283529160200191610ba4565b820191906000526020600020905b815481529060010190602001808311610b8757829003601f168201915b505050505081526020019060010190610b0c565b505050508152602001600382018054610bd090613f52565b80601f0160208091040260200160405190810160405280929190818152602001828054610bfc90613f52565b8015610c495780601f10610c1e57610100808354040283529160200191610c49565b820191906000526020600020905b815481529060010190602001808311610c2c57829003601f168201915b50505050508152602001600482018054610c6290613f52565b80601f0160208091040260200160405190810160405280929190818152602001828054610c8e90613f52565b8015610cdb5780601f10610cb057610100808354040283529160200191610cdb565b820191906000526020600020905b815481529060010190602001808311610cbe57829003601f168201915b50505050508152505081526020016011820160009054906101000a900473ffffffffffffffffffffffffffffffffffffffff1673ffffffffffffffffffffffffffffffffffffffff1673ffffffffffffffffffffffffffffffffffffffff16815250509050919050565b6000602052806000526040600020600091509050806000015490806001018054610d6e90613f52565b80601f0160208091040260200160405190810160405280929190818152602001828054610d9a90613f52565b8015610de75780601f10610dbc57610100808354040283529160200191610de7565b820191906000526020600020905b815481529060010190602001808311610dca57829003601f168201915b505050505090806002018054610dfc90613f52565b80601f0160208091040260200160405190810160405280929190818152602001828054610e2890613f52565b8015610e755780601f10610e4a57610100808354040283529160200191610e75565b820191906000526020600020905b815481529060010190602001808311610e5857829003601f168201915b50505050509080600301604051806060016040529081600082018054610e9a90613f52565b80601f0160208091040260200160405190810160405280929190818152602001828054610ec690613f52565b8015610f135780601f10610ee857610100808354040283529160200191610f13565b820191906000526020600020905b815481529060010190602001808311610ef657829003601f168201915b50505050508152602001600182018054610f2c90613f52565b80601f0160208091040260200160405190810160405280929190818152602001828054610f5890613f52565b8015610fa55780601f10610f7a57610100808354040283529160200191610fa5565b820191906000526020600020905b815481529060010190602001808311610f8857829003601f168201915b50505050508152602001600282018054610fbe90613f52565b80601f0160208091040260200160405190810160405280929190818152602001828054610fea90613f52565b80156110375780601f1061100c57610100808354040283529160200191611037565b820191906000526020600020905b81548152906001019060200180831161101a57829003601f168201915b5050505050815250509080600601805461105090613f52565b80601f016020809104026020016040519081016040528092919081815260200182805461107c90613f52565b80156110c95780601f1061109e576101008083540402835291602001916110c9565b820191906000526020600020905b8154815290600101906020018083116110ac57829003601f168201915b5050505050908060070180546110de90613f52565b80601f016020809104026020016040519081016040528092919081815260200182805461110a90613f52565b80156111575780601f1061112c57610100808354040283529160200191611157565b820191906000526020600020905b81548152906001019060200180831161113a57829003601f168201915b50505050509080600801805461116c90613f52565b80601f016020809104026020016040519081016040528092919081815260200182805461119890613f52565b80156111e55780601f106111ba576101008083540402835291602001916111e5565b820191906000526020600020905b8154815290600101906020018083116111c857829003601f168201915b50505050509080600a01549080600c016040518060a001604052908160008201805461121090613f52565b80601f016020809104026020016040519081016040528092919081815260200182805461123c90613f52565b80156112895780601f1061125e57610100808354040283529160200191611289565b820191906000526020600020905b81548152906001019060200180831161126c57829003601f168201915b505050505081526020016001820180546112a290613f52565b80601f01602080910402602001604051908101604052809291908181526020018280546112ce90613f52565b801561131b5780601f106112f05761010080835404028352916020019161131b565b820191906000526020600020905b8154815290600101906020018083116112fe57829003601f168201915b5050505050815260200160028201805480602002602001604051908101604052809291908181526020016000905b828210156113f557838290600052602060002001805461136890613f52565b80601f016020809104026020016040519081016040528092919081815260200182805461139490613f52565b80156113e15780601f106113b6576101008083540402835291602001916113e1565b820191906000526020600020905b8154815290600101906020018083116113c457829003601f168201915b505050505081526020019060010190611349565b50505050815260200160038201805461140d90613f52565b80601f016020809104026020016040519081016040528092919081815260200182805461143990613f52565b80156114865780601f1061145b57610100808354040283529160200191611486565b820191906000526020600020905b81548152906001019060200180831161146957829003601f168201915b5050505050815260200160048201805461149f90613f52565b80601f01602080910402602001604051908101604052809291908181526020018280546114cb90613f52565b80156115185780601f106114ed57610100808354040283529160200191611518565b820191906000526020600020905b8154815290600101906020018083116114fb57829003601f168201915b505050505081525050908060110160009054906101000a900473ffffffffffffffffffffffffffffffffffffffff1690508a565b6060600160008373ffffffffffffffffffffffffffffffffffffffff1673ffffffffffffffffffffffffffffffffffffffff1681526020019081526020016000208054806020026020016040519081016040528092919081815260200182805480156115d757602002820191906000526020600020905b8154815260200190600101908083116115c3575b50505050509050919050565b6060600060038054905067ffffffffffffffff81111561162c577f4e487b7100000000000000000000000000000000000000000000000000000000600052604160045260246000fd5b60405190808252806020026020018201604052801561166557816020015b611652612b3b565b81526020019060019003908161164a5790505b50905060005b60038054905081101561212657600080600383815481106116b5577f4e487b7100000000000000000000000000000000000000000000000000000000600052603260045260246000fd5b9060005260206000200154815260200190815260200160002060405180610180016040529081600082015481526020016001820180546116f490613f52565b80601f016020809104026020016040519081016040528092919081815260200182805461172090613f52565b801561176d5780601f106117425761010080835404028352916020019161176d565b820191906000526020600020905b81548152906001019060200180831161175057829003601f168201915b5050505050815260200160028201805461178690613f52565b80601f01602080910402602001604051908101604052809291908181526020018280546117b290613f52565b80156117ff5780601f106117d4576101008083540402835291602001916117ff565b820191906000526020600020905b8154815290600101906020018083116117e257829003601f168201915b505050505081526020016003820160405180606001604052908160008201805461182890613f52565b80601f016020809104026020016040519081016040528092919081815260200182805461185490613f52565b80156118a15780601f10611876576101008083540402835291602001916118a1565b820191906000526020600020905b81548152906001019060200180831161188457829003601f168201915b505050505081526020016001820180546118ba90613f52565b80601f01602080910402602001604051908101604052809291908181526020018280546118e690613f52565b80156119335780601f1061190857610100808354040283529160200191611933565b820191906000526020600020905b81548152906001019060200180831161191657829003601f168201915b5050505050815260200160028201805461194c90613f52565b80601f016020809104026020016040519081016040528092919081815260200182805461197890613f52565b80156119c55780601f1061199a576101008083540402835291602001916119c5565b820191906000526020600020905b8154815290600101906020018083116119a857829003601f168201915b50505050508152505081526020016006820180546119e290613f52565b80601f0160208091040260200160405190810160405280929190818152602001828054611a0e90613f52565b8015611a5b5780601f10611a3057610100808354040283529160200191611a5b565b820191906000526020600020905b815481529060010190602001808311611a3e57829003601f168201915b50505050508152602001600782018054611a7490613f52565b80601f0160208091040260200160405190810160405280929190818152602001828054611aa090613f52565b8015611aed5780601f10611ac257610100808354040283529160200191611aed565b820191906000526020600020905b815481529060010190602001808311611ad057829003601f168201915b50505050508152602001600882018054611b0690613f52565b80601f0160208091040260200160405190810160405280929190818152602001828054611b3290613f52565b8015611b7f5780601f10611b5457610100808354040283529160200191611b7f565b820191906000526020600020905b815481529060010190602001808311611b6257829003601f168201915b5050505050815260200160098201805480602002602001604051908101604052809291908181526020016000905b82821015611c59578382906000526020600020018054611bcc90613f52565b80601f0160208091040260200160405190810160405280929190818152602001828054611bf890613f52565b8015611c455780601f10611c1a57610100808354040283529160200191611c45565b820191906000526020600020905b815481529060010190602001808311611c2857829003601f168201915b505050505081526020019060010190611bad565b505050508152602001600a8201548152602001600b8201805480602002602001604051908101604052809291908181526020016000905b82821015611d3c578382906000526020600020018054611caf90613f52565b80601f0160208091040260200160405190810160405280929190818152602001828054611cdb90613f52565b8015611d285780601f10611cfd57610100808354040283529160200191611d28565b820191906000526020600020905b815481529060010190602001808311611d0b57829003601f168201915b505050505081526020019060010190611c90565b505050508152602001600c82016040518060a0016040529081600082018054611d6490613f52565b80601f0160208091040260200160405190810160405280929190818152602001828054611d9090613f52565b8015611ddd5780601f10611db257610100808354040283529160200191611ddd565b820191906000526020600020905b815481529060010190602001808311611dc057829003601f168201915b50505050508152602001600182018054611df690613f52565b80601f0160208091040260200160405190810160405280929190818152602001828054611e2290613f52565b8015611e6f5780601f10611e4457610100808354040283529160200191611e6f565b820191906000526020600020905b815481529060010190602001808311611e5257829003601f168201915b5050505050815260200160028201805480602002602001604051908101604052809291908181526020016000905b82821015611f49578382906000526020600020018054611ebc90613f52565b80601f0160208091040260200160405190810160405280929190818152602001828054611ee890613f52565b8015611f355780601f10611f0a57610100808354040283529160200191611f35565b820191906000526020600020905b815481529060010190602001808311611f1857829003601f168201915b505050505081526020019060010190611e9d565b505050508152602001600382018054611f6190613f52565b80601f0160208091040260200160405190810160405280929190818152602001828054611f8d90613f52565b8015611fda5780601f10611faf57610100808354040283529160200191611fda565b820191906000526020600020905b815481529060010190602001808311611fbd57829003601f168201915b50505050508152602001600482018054611ff390613f52565b80601f016020809104026020016040519081016040528092919081815260200182805461201f90613f52565b801561206c5780601f106120415761010080835404028352916020019161206c565b820191906000526020600020905b81548152906001019060200180831161204f57829003601f168201915b50505050508152505081526020016011820160009054906101000a900473ffffffffffffffffffffffffffffffffffffffff1673ffffffffffffffffffffffffffffffffffffffff1673ffffffffffffffffffffffffffffffffffffffff1681525050828281518110612108577f4e487b7100000000000000000000000000000000000000000000000000000000600052603260045260246000fd5b6020026020010181905250808061211e90613f84565b91505061166b565b508091505090565b600060038054905082109050919050565b6000600380549050905090565b600060038054905090506040518061018001604052808281526020018c81526020018b81526020018481526020018a81526020018981526020018881526020018781526020018681526020018581526020018381526020013373ffffffffffffffffffffffffffffffffffffffff168152506000808381526020019081526020016000206000820151816000015560208201518160010190805190602001906121f6929190612bbe565b506040820151816002019080519060200190612213929190612bbe565b506060820151816003016000820151816000019080519060200190612239929190612bbe565b506020820151816001019080519060200190612256929190612bbe565b506040820151816002019080519060200190612273929190612bbe565b5050506080820151816006019080519060200190612292929190612bbe565b5060a08201518160070190805190602001906122af929190612bbe565b5060c08201518160080190805190602001906122cc929190612bbe565b5060e08201518160090190805190602001906122e9929190612c44565b5061010082015181600a015561012082015181600b019080519060200190612312929190612c44565b5061014082015181600c016000820151816000019080519060200190612339929190612bbe565b506020820151816001019080519060200190612356929190612bbe565b506040820151816002019080519060200190612373929190612c44565b506060820151816003019080519060200190612390929190612bbe565b5060808201518160040190805190602001906123ad929190612bbe565b5050506101608201518160110160006101000a81548173ffffffffffffffffffffffffffffffffffffffff021916908373ffffffffffffffffffffffffffffffffffffffff160217905550905050600160003373ffffffffffffffffffffffffffffffffffffffff1673ffffffffffffffffffffffffffffffffffffffff16815260200190815260200160002081908060018154018082558091505060019003906000526020600020016000909190919091505560038190806001815401808255809150506001900390600052602060002001600090919091909150553373ffffffffffffffffffffffffffffffffffffffff16817fe203a10283fe11e231a5ab7086bb699ffc7c05f1604dbc01c95d5e93e658580b8d8a6040516124d3929190613b6e565b60405180910390a35050505050505050505050565b6001602052816000526040600020818154811061250457600080fd5b90600052602060002001600091509150505481565b6003805490508110612560576040517f08c379a000000000000000000000000000000000000000000000000000000000815260040161255790613ba5565b60405180910390fd5b6000806000838152602001908152602001600020905080600a01543410156125bd576040517f08c379a00000000000000000000000000000000000000000000000000000000081526004016125b490613c05565b60405180910390fd5b6002600083815260200190815260200160002060003373ffffffffffffffffffffffffffffffffffffffff1673ffffffffffffffffffffffffffffffffffffffff16815260200190815260200160002060009054906101000a900460ff161561265b576040517f08c379a000000000000000000000000000000000000000000000000000000000815260040161265290613bc5565b60405180910390fd5b60016002600084815260200190815260200160002060003373ffffffffffffffffffffffffffffffffffffffff1673ffffffffffffffffffffffffffffffffffffffff16815260200190815260200160002060006101000a81548160ff02191690831515021790555060003390508073ffffffffffffffffffffffffffffffffffffffff166108fc349081150290604051600060405180830381858888f1935050505015801561270f573d6000803e3d6000fd5b503373ffffffffffffffffffffffffffffffffffffffff16837fc56e8aa8e9f4284830fd4657bc77d60640af2ec679f2099faf320ee4202ff422346040516127579190613c47565b60405180910390a3505050565b60038054905085106127ab576040517f08c379a00000000000000000000000000000000000000000000000000000000081526004016127a290613ba5565b60405180910390fd5b600073ffffffffffffffffffffffffffffffffffffffff168473ffffffffffffffffffffffffffffffffffffffff16141561281b576040517f08c379a000000000000000000000000000000000000000000000000000000000815260040161281290613be5565b60405180910390fd5b6000600160003373ffffffffffffffffffffffffffffffffffffffff1673ffffffffffffffffffffffffffffffffffffffff168152602001908152602001600020905060005b81805490508110156129b857868282815481106128a7577f4e487b7100000000000000000000000000000000000000000000000000000000600052603260045260246000fd5b906000526020600020015414156129a55781600183805490506128ca9190613e94565b81548110612901577f4e487b7100000000000000000000000000000000000000000000000000000000600052603260045260246000fd5b9060005260206000200154828281548110612945577f4e487b7100000000000000000000000000000000000000000000000000000000600052603260045260246000fd5b90600052602060002001819055508180548061298a577f4e487b7100000000000000000000000000000000000000000000000000000000600052603160045260246000fd5b600190038181906000526020600020016000905590556129b8565b80806129b090613f84565b915050612861565b50600160008673ffffffffffffffffffffffffffffffffffffffff1673ffffffffffffffffffffffffffffffffffffffff1681526020019081526020016000208690806001815401808255809150506001900390600052602060002001600090919091909150556040518060600160405280858152602001848152602001838152506000808881526020019081526020016000206003016000820151816000019080519060200190612a6b929190612bbe565b506020820151816001019080519060200190612a88929190612bbe565b506040820151816002019080519060200190612aa5929190612bbe565b509050508473ffffffffffffffffffffffffffffffffffffffff163373ffffffffffffffffffffffffffffffffffffffff16877f16b85f49bf01212961345d3016c9a531894accf62eb7680f2045d79185cc0ec060405160405180910390a4505050505050565b60026020528160005260406000206020528060005260406000206000915091509054906101000a900460ff1681565b604051806101800160405280600081526020016060815260200160608152602001612b64612ca4565b8152602001606081526020016060815260200160608152602001606081526020016000815260200160608152602001612b9b612cc5565b8152602001600073ffffffffffffffffffffffffffffffffffffffff1681525090565b828054612bca90613f52565b90600052602060002090601f016020900481019282612bec5760008555612c33565b82601f10612c0557805160ff1916838001178555612c33565b82800160010185558215612c33579182015b82811115612c32578251825591602001919060010190612c17565b5b509050612c409190612cf4565b5090565b828054828255906000526020600020908101928215612c93579160200282015b82811115612c92578251829080519060200190612c82929190612bbe565b5091602001919060010190612c64565b5b509050612ca09190612d11565b5090565b60405180606001604052806060815260200160608152602001606081525090565b6040518060a0016040528060608152602001606081526020016060815260200160608152602001606081525090565b5b80821115612d0d576000816000905550600101612cf5565b5090565b5b80821115612d315760008181612d289190612d35565b50600101612d12565b5090565b508054612d4190613f52565b6000825580601f10612d535750612d72565b601f016020900490600052602060002090810190612d719190612cf4565b5b50565b6000612d88612d8384613d60565b613d2f565b9050808382526020820190508260005b85811015612dc85781358501612dae8882612e4f565b845260208401935060208301925050600181019050612d98565b5050509392505050565b6000612de5612de084613d8c565b613d2f565b905082815260208101848484011115612dfd57600080fd5b612e08848285613f10565b509392505050565b600081359050612e1f8161406b565b92915050565b600082601f830112612e3657600080fd5b8135612e46848260208601612d75565b91505092915050565b600082601f830112612e6057600080fd5b8135612e70848260208601612dd2565b91505092915050565b600060a08284031215612e8b57600080fd5b612e9560a0613d2f565b9050600082013567ffffffffffffffff811115612eb157600080fd5b612ebd84828501612e4f565b600083015250602082013567ffffffffffffffff811115612edd57600080fd5b612ee984828501612e4f565b602083015250604082013567ffffffffffffffff811115612f0957600080fd5b612f1584828501612e25565b604083015250606082013567ffffffffffffffff811115612f3557600080fd5b612f4184828501612e4f565b606083015250608082013567ffffffffffffffff811115612f6157600080fd5b612f6d84828501612e4f565b60808301525092915050565b600060608284031215612f8b57600080fd5b612f956060613d2f565b9050600082013567ffffffffffffffff811115612fb157600080fd5b612fbd84828501612e4f565b600083015250602082013567ffffffffffffffff811115612fdd57600080fd5b612fe984828501612e4f565b602083015250604082013567ffffffffffffffff81111561300957600080fd5b61301584828501612e4f565b60408301525092915050565b60008135905061303081614082565b92915050565b60006020828403121561304857600080fd5b600061305684828501612e10565b91505092915050565b6000806040838503121561307257600080fd5b600061308085828601612e10565b925050602061309185828601613021565b9150509250929050565b6000806000806000806000806000806101408b8d0312156130bb57600080fd5b60008b013567ffffffffffffffff8111156130d557600080fd5b6130e18d828e01612e4f565b9a505060208b013567ffffffffffffffff8111156130fe57600080fd5b61310a8d828e01612e4f565b99505060408b013567ffffffffffffffff81111561312757600080fd5b6131338d828e01612e4f565b98505060608b013567ffffffffffffffff81111561315057600080fd5b61315c8d828e01612e4f565b97505060808b013567ffffffffffffffff81111561317957600080fd5b6131858d828e01612e4f565b96505060a08b013567ffffffffffffffff8111156131a257600080fd5b6131ae8d828e01612e25565b95505060c06131bf8d828e01613021565b94505060e08b013567ffffffffffffffff8111156131dc57600080fd5b6131e88d828e01612e25565b9350506101008b013567ffffffffffffffff81111561320657600080fd5b6132128d828e01612f79565b9250506101208b013567ffffffffffffffff81111561323057600080fd5b61323c8d828e01612e79565b9150509295989b9194979a5092959850565b60006020828403121561326057600080fd5b600061326e84828501613021565b91505092915050565b6000806040838503121561328a57600080fd5b600061329885828601613021565b92505060206132a985828601612e10565b9150509250929050565b600080600080600060a086880312156132cb57600080fd5b60006132d988828901613021565b95505060206132ea88828901612e10565b945050604086013567ffffffffffffffff81111561330757600080fd5b61331388828901612e4f565b935050606086013567ffffffffffffffff81111561333057600080fd5b61333c88828901612e4f565b925050608086013567ffffffffffffffff81111561335957600080fd5b61336588828901612e4f565b9150509295509295909350565b600061337e8383613527565b905092915050565b60006133928383613699565b905092915050565b60006133a68383613af1565b60208301905092915050565b6133bb81613ec8565b82525050565b6133ca81613ec8565b82525050565b60006133db82613dec565b6133e58185613e3f565b9350836020820285016133f785613dbc565b8060005b8581101561343357848403895281516134148582613372565b945061341f83613e18565b925060208a019950506001810190506133fb565b50829750879550505050505092915050565b600061345082613df7565b61345a8185613e50565b93508360208202850161346c85613dcc565b8060005b858110156134a857848403895281516134898582613386565b945061349483613e25565b925060208a01995050600181019050613470565b50829750879550505050505092915050565b60006134c582613e02565b6134cf8185613e61565b93506134da83613ddc565b8060005b8381101561350b5781516134f2888261339a565b97506134fd83613e32565b9250506001810190506134de565b5085935050505092915050565b61352181613eda565b82525050565b600061353282613e0d565b61353c8185613e72565b935061354c818560208601613f1f565b6135558161405a565b840191505092915050565b600061356b82613e0d565b6135758185613e83565b9350613585818560208601613f1f565b61358e8161405a565b840191505092915050565b60006135a6601183613e83565b91507f495020646f6573206e6f742065786973740000000000000000000000000000006000830152602082019050919050565b60006135e6601283613e83565b91507f416c7265616479206861732061636365737300000000000000000000000000006000830152602082019050919050565b6000613626601183613e83565b91507f496e76616c6964206e6577206f776e65720000000000000000000000000000006000830152602082019050919050565b6000613666601483613e83565b91507f496e73756666696369656e74207061796d656e740000000000000000000000006000830152602082019050919050565b6000610180830160008301516136b26000860182613af1565b50602083015184820360208601526136ca8282613527565b915050604083015184820360408601526136e48282613527565b915050606083015184820360608601526136fe8282613a35565b915050608083015184820360808601526137188282613527565b91505060a083015184820360a08601526137328282613527565b91505060c083015184820360c086015261374c8282613527565b91505060e083015184820360e086015261376682826133d0565b91505061010083015161377d610100860182613af1565b5061012083015184820361012086015261379782826133d0565b9150506101408301518482036101408601526137b38282613911565b9150506101608301516137ca6101608601826133b2565b508091505092915050565b6000610180830160008301516137ee6000860182613af1565b50602083015184820360208601526138068282613527565b915050604083015184820360408601526138208282613527565b9150506060830151848203606086015261383a8282613a35565b915050608083015184820360808601526138548282613527565b91505060a083015184820360a086015261386e8282613527565b91505060c083015184820360c08601526138888282613527565b91505060e083015184820360e08601526138a282826133d0565b9150506101008301516138b9610100860182613af1565b506101208301518482036101208601526138d382826133d0565b9150506101408301518482036101408601526138ef8282613911565b9150506101608301516139066101608601826133b2565b508091505092915050565b600060a083016000830151848203600086015261392e8282613527565b915050602083015184820360208601526139488282613527565b9150506040830151848203604086015261396282826133d0565b9150506060830151848203606086015261397c8282613527565b915050608083015184820360808601526139968282613527565b9150508091505092915050565b600060a08301600083015184820360008601526139c08282613527565b915050602083015184820360208601526139da8282613527565b915050604083015184820360408601526139f482826133d0565b91505060608301518482036060860152613a0e8282613527565b91505060808301518482036080860152613a288282613527565b9150508091505092915050565b60006060830160008301518482036000860152613a528282613527565b91505060208301518482036020860152613a6c8282613527565b91505060408301518482036040860152613a868282613527565b9150508091505092915050565b60006060830160008301518482036000860152613ab08282613527565b91505060208301518482036020860152613aca8282613527565b91505060408301518482036040860152613ae48282613527565b9150508091505092915050565b613afa81613f06565b82525050565b613b0981613f06565b82525050565b60006020820190508181036000830152613b298184613445565b905092915050565b60006020820190508181036000830152613b4b81846134ba565b905092915050565b6000602082019050613b686000830184613518565b92915050565b60006040820190508181036000830152613b888185613560565b90508181036020830152613b9c8184613560565b90509392505050565b60006020820190508181036000830152613bbe81613599565b9050919050565b60006020820190508181036000830152613bde816135d9565b9050919050565b60006020820190508181036000830152613bfe81613619565b9050919050565b60006020820190508181036000830152613c1e81613659565b9050919050565b60006020820190508181036000830152613c3f81846137d5565b905092915050565b6000602082019050613c5c6000830184613b00565b92915050565b600061014082019050613c78600083018d613b00565b8181036020830152613c8a818c613560565b90508181036040830152613c9e818b613560565b90508181036060830152613cb2818a613a93565b90508181036080830152613cc68189613560565b905081810360a0830152613cda8188613560565b905081810360c0830152613cee8187613560565b9050613cfd60e0830186613b00565b818103610100830152613d1081856139a3565b9050613d206101208301846133c1565b9b9a5050505050505050505050565b6000604051905081810181811067ffffffffffffffff82111715613d5657613d5561402b565b5b8060405250919050565b600067ffffffffffffffff821115613d7b57613d7a61402b565b5b602082029050602081019050919050565b600067ffffffffffffffff821115613da757613da661402b565b5b601f19601f8301169050602081019050919050565b6000819050602082019050919050565b6000819050602082019050919050565b6000819050602082019050919050565b600081519050919050565b600081519050919050565b600081519050919050565b600081519050919050565b6000602082019050919050565b6000602082019050919050565b6000602082019050919050565b600082825260208201905092915050565b600082825260208201905092915050565b600082825260208201905092915050565b600082825260208201905092915050565b600082825260208201905092915050565b6000613e9f82613f06565b9150613eaa83613f06565b925082821015613ebd57613ebc613fcd565b5b828203905092915050565b6000613ed382613ee6565b9050919050565b60008115159050919050565b600073ffffffffffffffffffffffffffffffffffffffff82169050919050565b6000819050919050565b82818337600083830152505050565b60005b83811015613f3d578082015181840152602081019050613f22565b83811115613f4c576000848401525b50505050565b60006002820490506001821680613f6a57607f821691505b60208210811415613f7e57613f7d613ffc565b5b50919050565b6000613f8f82613f06565b91507fffffffffffffffffffffffffffffffffffffffffffffffffffffffffffffffff821415613fc257613fc1613fcd565b5b600182019050919050565b7f4e487b7100000000000000000000000000000000000000000000000000000000600052601160045260246000fd5b7f4e487b7100000000000000000000000000000000000000000000000000000000600052602260045260246000fd5b7f4e487b7100000000000000000000000000000000000000000000000000000000600052604160045260246000fd5b6000601f19601f8301169050919050565b61407481613ec8565b811461407f57600080fd5b50565b61408b81613f06565b811461409657600080fd5b5056fea26469706673582212209a91899501f63686ae377f862114b554c13f66bddfa2a8cdffb870352e91ac4964736f6c63430008000033",
  "linkReferences": {},
  "deployedLinkReferences": {}
}