{
  "_format": "hh-sol-artifact-1",
  "contractName": "IPregistry",
  "sourceName": "contracts/IPregistry.sol",
  "abi": [
    {
      "inputs": [],
      "name": "ReentrancyGuardReentrantCall",
      "type": "error"
    },
    {
      "anonymous": false,
      "inputs": [
        {
          "indexed": true,
          "internalType": "uint256",
          "name": "index",
          "type": "uint256"
        },
        {
          "indexed": true,
          "internalType": "address",
          "name": "user",
          "type": "address"
        },
        {
          "indexed": false,
          "internalType": "uint256",
          "name": "amount",
          "type": "uint256"
        }
      ],
      "name": "AccessGranted",
      "type": "event"
    },
    {
      "anonymous": false,
      "inputs": [
        {
          "indexed": true,
          "internalType": "uint256",
          "name": "index",
          "type": "uint256"
        },
        {
          "indexed": false,
          "internalType": "string",
          "name": "name",
          "type": "string"
        },
        {
          "indexed": true,
          "internalType": "address",
          "name": "owner",
          "type": "address"
        },
        {
          "indexed": false,
          "internalType": "string",
          "name": "dateOfRegistration",
          "type": "string"
        }
      ],
      "name": "IPRegistered",
      "type": "event"
    },
    {
      "anonymous": false,
      "inputs": [
        {
          "indexed": true,
          "internalType": "uint256",
          "name": "index",
          "type": "uint256"
        },
        {
          "indexed": true,
          "internalType": "address",
          "name": "payer",
          "type": "address"
        },
        {
          "indexed": false,
          "internalType": "uint256",
          "name": "amount",
          "type": "uint256"
        }
      ],
      "name": "IncentivePaid",
      "type": "event"
    },
    {
      "anonymous": false,
      "inputs": [
        {
          "indexed": true,
          "internalType": "uint256",
          "name": "index",
          "type": "uint256"
        },
        {
          "indexed": true,
          "internalType": "address",
          "name": "from",
          "type": "address"
        },
        {
          "indexed": true,
          "internalType": "address",
          "name": "to",
          "type": "address"
        }
      ],
      "name": "OwnershipTransferred",
      "type": "event"
    },
    {
      "inputs": [],
      "name": "getAllRegisteredIPs",
      "outputs": [
        {
          "components": [
            {
              "internalType": "uint256",
              "name": "index",
              "type": "uint256"
            },
            {
              "internalType": "string",
              "name": "name",
              "type": "string"
            },
            {
              "internalType": "string",
              "name": "description",
              "type": "string"
            },
            {
              "components": [
                {
                  "internalType": "string",
                  "name": "name",
                  "type": "string"
                },
                {
                  "internalType": "string",
                  "name": "email",
                  "type": "string"
                },
                {
                  "internalType": "string",
                  "name": "physicalAddress",
                  "type": "string"
                }
              ],
              "internalType": "struct IPregistry.OwnerDetails",
              "name": "owner",
              "type": "tuple"
            },
            {
              "internalType": "string",
              "name": "ipType",
              "type": "string"
            },
            {
              "internalType": "string",
              "name": "dateOfCreation",
              "type": "string"
            },
            {
              "internalType": "string",
              "name": "dateOfRegistration",
              "type": "string"
            },
            {
              "internalType": "string[]",
              "name": "license",
              "type": "string[]"
            },
            {
              "internalType": "uint256",
              "name": "licenseIncentive",
              "type": "uint256"
            },
            {
              "internalType": "string[]",
              "name": "tags",
              "type": "string[]"
            },
            {
              "components": [
                {
                  "internalType": "string",
                  "name": "workType",
                  "type": "string"
                },
                {
                  "internalType": "string",
                  "name": "classOfGoods",
                  "type": "string"
                },
                {
                  "internalType": "string[]",
                  "name": "inventors",
                  "type": "string[]"
                },
                {
                  "internalType": "string",
                  "name": "domainName",
                  "type": "string"
                },
                {
                  "internalType": "string",
                  "name": "publicationDate",
                  "type": "string"
                }
              ],
              "internalType": "struct IPregistry.OptionalFields",
              "name": "optionalFields",
              "type": "tuple"
            },
            {
              "internalType": "address",
              "name": "ownerAddress",
              "type": "address"
            }
          ],
          "internalType": "struct IPregistry.IntellectualProperty[]",
          "name": "",
          "type": "tuple[]"
        }
      ],
      "stateMutability": "view",
      "type": "function"
    },
    {
      "inputs": [
        {
          "internalType": "uint256",
          "name": "index",
          "type": "uint256"
        }
      ],
      "name": "getIPDetails",
      "outputs": [
        {
          "components": [
            {
              "internalType": "uint256",
              "name": "index",
              "type": "uint256"
            },
            {
              "internalType": "string",
              "name": "name",
              "type": "string"
            },
            {
              "internalType": "string",
              "name": "description",
              "type": "string"
            },
            {
              "components": [
                {
                  "internalType": "string",
                  "name": "name",
                  "type": "string"
                },
                {
                  "internalType": "string",
                  "name": "email",
                  "type": "string"
                },
                {
                  "internalType": "string",
                  "name": "physicalAddress",
                  "type": "string"
                }
              ],
              "internalType": "struct IPregistry.OwnerDetails",
              "name": "owner",
              "type": "tuple"
            },
            {
              "internalType": "string",
              "name": "ipType",
              "type": "string"
            },
            {
              "internalType": "string",
              "name": "dateOfCreation",
              "type": "string"
            },
            {
              "internalType": "string",
              "name": "dateOfRegistration",
              "type": "string"
            },
            {
              "internalType": "string[]",
              "name": "license",
              "type": "string[]"
            },
            {
              "internalType": "uint256",
              "name": "licenseIncentive",
              "type": "uint256"
            },
            {
              "internalType": "string[]",
              "name": "tags",
              "type": "string[]"
            },
            {
              "components": [
                {
                  "internalType": "string",
                  "name": "workType",
                  "type": "string"
                },
                {
                  "internalType": "string",
                  "name": "classOfGoods",
                  "type": "string"
                },
                {
                  "internalType": "string[]",
                  "name": "inventors",
                  "type": "string[]"
                },
                {
                  "internalType": "string",
                  "name": "domainName",
                  "type": "string"
                },
                {
                  "internalType": "string",
                  "name": "publicationDate",
                  "type": "string"
                }
              ],
              "internalType": "struct IPregistry.OptionalFields",
              "name": "optionalFields",
              "type": "tuple"
            },
            {
              "internalType": "address",
              "name": "ownerAddress",
              "type": "address"
            }
          ],
          "internalType": "struct IPregistry.IntellectualProperty",
          "name": "",
          "type": "tuple"
        }
      ],
      "stateMutability": "view",
      "type": "function"
    },
    {
      "inputs": [
        {
          "internalType": "address",
          "name": "owner",
          "type": "address"
        }
      ],
      "name": "getOwnerIPs",
      "outputs": [
        {
          "internalType": "uint256[]",
          "name": "",
          "type": "uint256[]"
        }
      ],
      "stateMutability": "view",
      "type": "function"
    },
    {
      "inputs": [],
      "name": "getTotalIPs",
      "outputs": [
        {
          "internalType": "uint256",
          "name": "",
          "type": "uint256"
        }
      ],
      "stateMutability": "view",
      "type": "function"
    },
    {
      "inputs": [
        {
          "internalType": "uint256",
          "name": "index",
          "type": "uint256"
        }
      ],
      "name": "grantAccess",
      "outputs": [],
      "stateMutability": "payable",
      "type": "function"
    },
    {
      "inputs": [
        {
          "internalType": "uint256",
          "name": "",
          "type": "uint256"
        },
        {
          "internalType": "address",
          "name": "",
          "type": "address"
        }
      ],
      "name": "hasAccess",
      "outputs": [
        {
          "internalType": "bool",
          "name": "",
          "type": "bool"
        }
      ],
      "stateMutability": "view",
      "type": "function"
    },
    {
      "inputs": [
        {
          "internalType": "uint256",
          "name": "",
          "type": "uint256"
        }
      ],
      "name": "ips",
      "outputs": [
        {
          "internalType": "uint256",
          "name": "index",
          "type": "uint256"
        },
        {
          "internalType": "string",
          "name": "name",
          "type": "string"
        },
        {
          "internalType": "string",
          "name": "description",
          "type": "string"
        },
        {
          "components": [
            {
              "internalType": "string",
              "name": "name",
              "type": "string"
            },
            {
              "internalType": "string",
              "name": "email",
              "type": "string"
            },
            {
              "internalType": "string",
              "name": "physicalAddress",
              "type": "string"
            }
          ],
          "internalType": "struct IPregistry.OwnerDetails",
          "name": "owner",
          "type": "tuple"
        },
        {
          "internalType": "string",
          "name": "ipType",
          "type": "string"
        },
        {
          "internalType": "string",
          "name": "dateOfCreation",
          "type": "string"
        },
        {
          "internalType": "string",
          "name": "dateOfRegistration",
          "type": "string"
        },
        {
          "internalType": "uint256",
          "name": "licenseIncentive",
          "type": "uint256"
        },
        {
          "components": [
            {
              "internalType": "string",
              "name": "workType",
              "type": "string"
            },
            {
              "internalType": "string",
              "name": "classOfGoods",
              "type": "string"
            },
            {
              "internalType": "string[]",
              "name": "inventors",
              "type": "string[]"
            },
            {
              "internalType": "string",
              "name": "domainName",
              "type": "string"
            },
            {
              "internalType": "string",
              "name": "publicationDate",
              "type": "string"
            }
          ],
          "internalType": "struct IPregistry.OptionalFields",
          "name": "optionalFields",
          "type": "tuple"
        },
        {
          "internalType": "address",
          "name": "ownerAddress",
          "type": "address"
        }
      ],
      "stateMutability": "view",
      "type": "function"
    },
    {
      "inputs": [
        {
          "internalType": "uint256",
          "name": "index",
          "type": "uint256"
        }
      ],
      "name": "isRegistered",
      "outputs": [
        {
          "internalType": "bool",
          "name": "",
          "type": "bool"
        }
      ],
      "stateMutability": "view",
      "type": "function"
    },
    {
      "inputs": [
        {
          "internalType": "address",
          "name": "",
          "type": "address"
        },
        {
          "internalType": "uint256",
          "name": "",
          "type": "uint256"
        }
      ],
      "name": "ownerToIPs",
      "outputs": [
        {
          "internalType": "uint256",
          "name": "",
          "type": "uint256"
        }
      ],
      "stateMutability": "view",
      "type": "function"
    },
    {
      "inputs": [
        {
          "internalType": "string",
          "name": "name",
          "type": "string"
        },
        {
          "internalType": "string",
          "name": "description",
          "type": "string"
        },
        {
          "internalType": "string",
          "name": "ipType",
          "type": "string"
        },
        {
          "internalType": "string",
          "name": "dateOfCreation",
          "type": "string"
        },
        {
          "internalType": "string",
          "name": "dateOfRegistration",
          "type": "string"
        },
        {
          "internalType": "string[]",
          "name": "license",
          "type": "string[]"
        },
        {
          "internalType": "uint256",
          "name": "licenseIncentive",
          "type": "uint256"
        },
        {
          "internalType": "string[]",
          "name": "tags",
          "type": "string[]"
        },
        {
          "components": [
            {
              "internalType": "string",
              "name": "name",
              "type": "string"
            },
            {
              "internalType": "string",
              "name": "email",
              "type": "string"
            },
            {
              "internalType": "string",
              "name": "physicalAddress",
              "type": "string"
            }
          ],
          "internalType": "struct IPregistry.OwnerDetails",
          "name": "ownerDetails",
          "type": "tuple"
        },
        {
          "components": [
            {
              "internalType": "string",
              "name": "workType",
              "type": "string"
            },
            {
              "internalType": "string",
              "name": "classOfGoods",
              "type": "string"
            },
            {
              "internalType": "string[]",
              "name": "inventors",
              "type": "string[]"
            },
            {
              "internalType": "string",
              "name": "domainName",
              "type": "string"
            },
            {
              "internalType": "string",
              "name": "publicationDate",
              "type": "string"
            }
          ],
          "internalType": "struct IPregistry.OptionalFields",
          "name": "optionalFields",
          "type": "tuple"
        }
      ],
      "name": "registerIP",
      "outputs": [],
      "stateMutability": "nonpayable",
      "type": "function"
    },
    {
      "inputs": [
        {
          "internalType": "uint256",
          "name": "index",
          "type": "uint256"
        },
        {
          "internalType": "address",
          "name": "newOwner",
          "type": "address"
        },
        {
          "internalType": "string",
          "name": "newOwnerName",
          "type": "string"
        },
        {
          "internalType": "string",
          "name": "newOwnerEmail",
          "type": "string"
        },
        {
          "internalType": "string",
          "name": "newOwnerPhysicalAddress",
          "type": "string"
        }
      ],
      "name": "transferOwnership",
      "outputs": [],
      "stateMutability": "nonpayable",
      "type": "function"
    }
  ],
  "bytecode": "0x608060405234801561001057600080fd5b506001600081905550614322806100286000396000f3fe60806040526004361061009c5760003560e01c806357dd97771161006457806357dd9777146101c95780635a4070a7146101f4578063623f35441461021d5780637ca145631461025a578063c8af1c7314610276578063ced141981461029f5761009c565b80631feb4bfb146100a157806323a050c1146100de5780632816fb0b146101245780635051439514610161578063579a69881461018c575b600080fd5b3480156100ad57600080fd5b506100c860048036038101906100c39190612c22565b6102dc565b6040516100d5919061301d565b60405180910390f35b3480156100ea57600080fd5b5061010560048036038101906101009190612c22565b610d46565b60405161011b9a99989796959493929190613197565b60405180910390f35b34801561013057600080fd5b5061014b60048036038101906101469190613290565b61154d565b604051610158919061336c565b60405180910390f35b34801561016d57600080fd5b506101766115e4565b604051610183919061358c565b60405180910390f35b34801561019857600080fd5b506101b360048036038101906101ae9190612c22565b6120be565b6040516101c091906135c9565b60405180910390f35b3480156101d557600080fd5b506101de6120cf565b6040516101eb91906135e4565b60405180910390f35b34801561020057600080fd5b5061021b600480360381019061021691906139f4565b6120dc565b005b34801561022957600080fd5b50610244600480360381019061023f9190613bcf565b612425565b60405161025191906135e4565b60405180910390f35b610274600480360381019061026f9190612c22565b612456565b005b34801561028257600080fd5b5061029d60048036038101906102989190613c0f565b6126b2565b005b3480156102ab57600080fd5b506102c660048036038101906102c19190613cde565b6129ac565b6040516102d391906135c9565b60405180910390f35b6102e4612a2b565b600480549050821061032b576040517f08c379a000000000000000000000000000000000000000000000000000000000815260040161032290613d6a565b60405180910390fd5b60016000838152602001908152602001600020604051806101800160405290816000820154815260200160018201805461036490613db9565b80601f016020809104026020016040519081016040528092919081815260200182805461039090613db9565b80156103dd5780601f106103b2576101008083540402835291602001916103dd565b820191906000526020600020905b8154815290600101906020018083116103c057829003601f168201915b505050505081526020016002820180546103f690613db9565b80601f016020809104026020016040519081016040528092919081815260200182805461042290613db9565b801561046f5780601f106104445761010080835404028352916020019161046f565b820191906000526020600020905b81548152906001019060200180831161045257829003601f168201915b505050505081526020016003820160405180606001604052908160008201805461049890613db9565b80601f01602080910402602001604051908101604052809291908181526020018280546104c490613db9565b80156105115780601f106104e657610100808354040283529160200191610511565b820191906000526020600020905b8154815290600101906020018083116104f457829003601f168201915b5050505050815260200160018201805461052a90613db9565b80601f016020809104026020016040519081016040528092919081815260200182805461055690613db9565b80156105a35780601f10610578576101008083540402835291602001916105a3565b820191906000526020600020905b81548152906001019060200180831161058657829003601f168201915b505050505081526020016002820180546105bc90613db9565b80601f01602080910402602001604051908101604052809291908181526020018280546105e890613db9565b80156106355780601f1061060a57610100808354040283529160200191610635565b820191906000526020600020905b81548152906001019060200180831161061857829003601f168201915b505050505081525050815260200160068201805461065290613db9565b80601f016020809104026020016040519081016040528092919081815260200182805461067e90613db9565b80156106cb5780601f106106a0576101008083540402835291602001916106cb565b820191906000526020600020905b8154815290600101906020018083116106ae57829003601f168201915b505050505081526020016007820180546106e490613db9565b80601f016020809104026020016040519081016040528092919081815260200182805461071090613db9565b801561075d5780601f106107325761010080835404028352916020019161075d565b820191906000526020600020905b81548152906001019060200180831161074057829003601f168201915b5050505050815260200160088201805461077690613db9565b80601f01602080910402602001604051908101604052809291908181526020018280546107a290613db9565b80156107ef5780601f106107c4576101008083540402835291602001916107ef565b820191906000526020600020905b8154815290600101906020018083116107d257829003601f168201915b5050505050815260200160098201805480602002602001604051908101604052809291908181526020016000905b828210156108c957838290600052602060002001805461083c90613db9565b80601f016020809104026020016040519081016040528092919081815260200182805461086890613db9565b80156108b55780601f1061088a576101008083540402835291602001916108b5565b820191906000526020600020905b81548152906001019060200180831161089857829003601f168201915b50505050508152602001906001019061081d565b505050508152602001600a8201548152602001600b8201805480602002602001604051908101604052809291908181526020016000905b828210156109ac57838290600052602060002001805461091f90613db9565b80601f016020809104026020016040519081016040528092919081815260200182805461094b90613db9565b80156109985780601f1061096d57610100808354040283529160200191610998565b820191906000526020600020905b81548152906001019060200180831161097b57829003601f168201915b505050505081526020019060010190610900565b505050508152602001600c82016040518060a00160405290816000820180546109d490613db9565b80601f0160208091040260200160405190810160405280929190818152602001828054610a0090613db9565b8015610a4d5780601f10610a2257610100808354040283529160200191610a4d565b820191906000526020600020905b815481529060010190602001808311610a3057829003601f168201915b50505050508152602001600182018054610a6690613db9565b80601f0160208091040260200160405190810160405280929190818152602001828054610a9290613db9565b8015610adf5780601f10610ab457610100808354040283529160200191610adf565b820191906000526020600020905b815481529060010190602001808311610ac257829003601f168201915b5050505050815260200160028201805480602002602001604051908101604052809291908181526020016000905b82821015610bb9578382906000526020600020018054610b2c90613db9565b80601f0160208091040260200160405190810160405280929190818152602001828054610b5890613db9565b8015610ba55780601f10610b7a57610100808354040283529160200191610ba5565b820191906000526020600020905b815481529060010190602001808311610b8857829003601f168201915b505050505081526020019060010190610b0d565b505050508152602001600382018054610bd190613db9565b80601f0160208091040260200160405190810160405280929190818152602001828054610bfd90613db9565b8015610c4a5780601f10610c1f57610100808354040283529160200191610c4a565b820191906000526020600020905b815481529060010190602001808311610c2d57829003601f168201915b50505050508152602001600482018054610c6390613db9565b80601f0160208091040260200160405190810160405280929190818152602001828054610c8f90613db9565b8015610cdc5780601f10610cb157610100808354040283529160200191610cdc565b820191906000526020600020905b815481529060010190602001808311610cbf57829003601f168201915b50505050508152505081526020016011820160009054906101000a900473ffffffffffffffffffffffffffffffffffffffff1673ffffffffffffffffffffffffffffffffffffffff1673ffffffffffffffffffffffffffffffffffffffff16815250509050919050565b6001602052806000526040600020600091509050806000015490806001018054610d6f90613db9565b80601f0160208091040260200160405190810160405280929190818152602001828054610d9b90613db9565b8015610de85780601f10610dbd57610100808354040283529160200191610de8565b820191906000526020600020905b815481529060010190602001808311610dcb57829003601f168201915b505050505090806002018054610dfd90613db9565b80601f0160208091040260200160405190810160405280929190818152602001828054610e2990613db9565b8015610e765780601f10610e4b57610100808354040283529160200191610e76565b820191906000526020600020905b815481529060010190602001808311610e5957829003601f168201915b50505050509080600301604051806060016040529081600082018054610e9b90613db9565b80601f0160208091040260200160405190810160405280929190818152602001828054610ec790613db9565b8015610f145780601f10610ee957610100808354040283529160200191610f14565b820191906000526020600020905b815481529060010190602001808311610ef757829003601f168201915b50505050508152602001600182018054610f2d90613db9565b80601f0160208091040260200160405190810160405280929190818152602001828054610f5990613db9565b8015610fa65780601f10610f7b57610100808354040283529160200191610fa6565b820191906000526020600020905b815481529060010190602001808311610f8957829003601f168201915b50505050508152602001600282018054610fbf90613db9565b80601f0160208091040260200160405190810160405280929190818152602001828054610feb90613db9565b80156110385780601f1061100d57610100808354040283529160200191611038565b820191906000526020600020905b81548152906001019060200180831161101b57829003601f168201915b5050505050815250509080600601805461105190613db9565b80601f016020809104026020016040519081016040528092919081815260200182805461107d90613db9565b80156110ca5780601f1061109f576101008083540402835291602001916110ca565b820191906000526020600020905b8154815290600101906020018083116110ad57829003601f168201915b5050505050908060070180546110df90613db9565b80601f016020809104026020016040519081016040528092919081815260200182805461110b90613db9565b80156111585780601f1061112d57610100808354040283529160200191611158565b820191906000526020600020905b81548152906001019060200180831161113b57829003601f168201915b50505050509080600801805461116d90613db9565b80601f016020809104026020016040519081016040528092919081815260200182805461119990613db9565b80156111e65780601f106111bb576101008083540402835291602001916111e6565b820191906000526020600020905b8154815290600101906020018083116111c957829003601f168201915b50505050509080600a01549080600c016040518060a001604052908160008201805461121190613db9565b80601f016020809104026020016040519081016040528092919081815260200182805461123d90613db9565b801561128a5780601f1061125f5761010080835404028352916020019161128a565b820191906000526020600020905b81548152906001019060200180831161126d57829003601f168201915b505050505081526020016001820180546112a390613db9565b80601f01602080910402602001604051908101604052809291908181526020018280546112cf90613db9565b801561131c5780601f106112f15761010080835404028352916020019161131c565b820191906000526020600020905b8154815290600101906020018083116112ff57829003601f168201915b5050505050815260200160028201805480602002602001604051908101604052809291908181526020016000905b828210156113f657838290600052602060002001805461136990613db9565b80601f016020809104026020016040519081016040528092919081815260200182805461139590613db9565b80156113e25780601f106113b7576101008083540402835291602001916113e2565b820191906000526020600020905b8154815290600101906020018083116113c557829003601f168201915b50505050508152602001906001019061134a565b50505050815260200160038201805461140e90613db9565b80601f016020809104026020016040519081016040528092919081815260200182805461143a90613db9565b80156114875780601f1061145c57610100808354040283529160200191611487565b820191906000526020600020905b81548152906001019060200180831161146a57829003601f168201915b505050505081526020016004820180546114a090613db9565b80601f01602080910402602001604051908101604052809291908181526020018280546114cc90613db9565b80156115195780601f106114ee57610100808354040283529160200191611519565b820191906000526020600020905b8154815290600101906020018083116114fc57829003601f168201915b505050505081525050908060110160009054906101000a900473ffffffffffffffffffffffffffffffffffffffff1690508a565b6060600260008373ffffffffffffffffffffffffffffffffffffffff1673ffffffffffffffffffffffffffffffffffffffff1681526020019081526020016000208054806020026020016040519081016040528092919081815260200182805480156115d857602002820191906000526020600020905b8154815260200190600101908083116115c4575b50505050509050919050565b6060600060048054905067ffffffffffffffff81111561160757611606613609565b5b60405190808252806020026020018201604052801561164057816020015b61162d612a2b565b8152602001906001900390816116255790505b50905060005b6004805490508110156120b657600160006004838154811061166b5761166a613dea565b5b9060005260206000200154815260200190815260200160002060405180610180016040529081600082015481526020016001820180546116aa90613db9565b80601f01602080910402602001604051908101604052809291908181526020018280546116d690613db9565b80156117235780601f106116f857610100808354040283529160200191611723565b820191906000526020600020905b81548152906001019060200180831161170657829003601f168201915b5050505050815260200160028201805461173c90613db9565b80601f016020809104026020016040519081016040528092919081815260200182805461176890613db9565b80156117b55780601f1061178a576101008083540402835291602001916117b5565b820191906000526020600020905b81548152906001019060200180831161179857829003601f168201915b50505050508152602001600382016040518060600160405290816000820180546117de90613db9565b80601f016020809104026020016040519081016040528092919081815260200182805461180a90613db9565b80156118575780601f1061182c57610100808354040283529160200191611857565b820191906000526020600020905b81548152906001019060200180831161183a57829003601f168201915b5050505050815260200160018201805461187090613db9565b80601f016020809104026020016040519081016040528092919081815260200182805461189c90613db9565b80156118e95780601f106118be576101008083540402835291602001916118e9565b820191906000526020600020905b8154815290600101906020018083116118cc57829003601f168201915b5050505050815260200160028201805461190290613db9565b80601f016020809104026020016040519081016040528092919081815260200182805461192e90613db9565b801561197b5780601f106119505761010080835404028352916020019161197b565b820191906000526020600020905b81548152906001019060200180831161195e57829003601f168201915b505050505081525050815260200160068201805461199890613db9565b80601f01602080910402602001604051908101604052809291908181526020018280546119c490613db9565b8015611a115780601f106119e657610100808354040283529160200191611a11565b820191906000526020600020905b8154815290600101906020018083116119f457829003601f168201915b50505050508152602001600782018054611a2a90613db9565b80601f0160208091040260200160405190810160405280929190818152602001828054611a5690613db9565b8015611aa35780601f10611a7857610100808354040283529160200191611aa3565b820191906000526020600020905b815481529060010190602001808311611a8657829003601f168201915b50505050508152602001600882018054611abc90613db9565b80601f0160208091040260200160405190810160405280929190818152602001828054611ae890613db9565b8015611b355780601f10611b0a57610100808354040283529160200191611b35565b820191906000526020600020905b815481529060010190602001808311611b1857829003601f168201915b5050505050815260200160098201805480602002602001604051908101604052809291908181526020016000905b82821015611c0f578382906000526020600020018054611b8290613db9565b80601f0160208091040260200160405190810160405280929190818152602001828054611bae90613db9565b8015611bfb5780601f10611bd057610100808354040283529160200191611bfb565b820191906000526020600020905b815481529060010190602001808311611bde57829003601f168201915b505050505081526020019060010190611b63565b505050508152602001600a8201548152602001600b8201805480602002602001604051908101604052809291908181526020016000905b82821015611cf2578382906000526020600020018054611c6590613db9565b80601f0160208091040260200160405190810160405280929190818152602001828054611c9190613db9565b8015611cde5780601f10611cb357610100808354040283529160200191611cde565b820191906000526020600020905b815481529060010190602001808311611cc157829003601f168201915b505050505081526020019060010190611c46565b505050508152602001600c82016040518060a0016040529081600082018054611d1a90613db9565b80601f0160208091040260200160405190810160405280929190818152602001828054611d4690613db9565b8015611d935780601f10611d6857610100808354040283529160200191611d93565b820191906000526020600020905b815481529060010190602001808311611d7657829003601f168201915b50505050508152602001600182018054611dac90613db9565b80601f0160208091040260200160405190810160405280929190818152602001828054611dd890613db9565b8015611e255780601f10611dfa57610100808354040283529160200191611e25565b820191906000526020600020905b815481529060010190602001808311611e0857829003601f168201915b5050505050815260200160028201805480602002602001604051908101604052809291908181526020016000905b82821015611eff578382906000526020600020018054611e7290613db9565b80601f0160208091040260200160405190810160405280929190818152602001828054611e9e90613db9565b8015611eeb5780601f10611ec057610100808354040283529160200191611eeb565b820191906000526020600020905b815481529060010190602001808311611ece57829003601f168201915b505050505081526020019060010190611e53565b505050508152602001600382018054611f1790613db9565b80601f0160208091040260200160405190810160405280929190818152602001828054611f4390613db9565b8015611f905780601f10611f6557610100808354040283529160200191611f90565b820191906000526020600020905b815481529060010190602001808311611f7357829003601f168201915b50505050508152602001600482018054611fa990613db9565b80601f0160208091040260200160405190810160405280929190818152602001828054611fd590613db9565b80156120225780601f10611ff757610100808354040283529160200191612022565b820191906000526020600020905b81548152906001019060200180831161200557829003601f168201915b50505050508152505081526020016011820160009054906101000a900473ffffffffffffffffffffffffffffffffffffffff1673ffffffffffffffffffffffffffffffffffffffff1673ffffffffffffffffffffffffffffffffffffffff168152505082828151811061209857612097613dea565b5b602002602001018190525080806120ae90613e48565b915050611646565b508091505090565b600060048054905082109050919050565b6000600480549050905090565b600060048054905090506040518061018001604052808281526020018c81526020018b81526020018481526020018a81526020018981526020018881526020018781526020018681526020018581526020018381526020013373ffffffffffffffffffffffffffffffffffffffff1681525060016000838152602001908152602001600020600082015181600001556020820151816001019081612180919061403c565b506040820151816002019081612196919061403c565b5060608201518160030160008201518160000190816121b5919061403c565b5060208201518160010190816121cb919061403c565b5060408201518160020190816121e1919061403c565b50505060808201518160060190816121f9919061403c565b5060a082015181600701908161220f919061403c565b5060c0820151816008019081612225919061403c565b5060e0820151816009019080519060200190612242929190612aae565b5061010082015181600a015561012082015181600b01908051906020019061226b929190612aae565b5061014082015181600c01600082015181600001908161228b919061403c565b5060208201518160010190816122a1919061403c565b5060408201518160020190805190602001906122be929190612aae565b5060608201518160030190816122d4919061403c565b5060808201518160040190816122ea919061403c565b5050506101608201518160110160006101000a81548173ffffffffffffffffffffffffffffffffffffffff021916908373ffffffffffffffffffffffffffffffffffffffff160217905550905050600260003373ffffffffffffffffffffffffffffffffffffffff1673ffffffffffffffffffffffffffffffffffffffff16815260200190815260200160002081908060018154018082558091505060019003906000526020600020016000909190919091505560048190806001815401808255809150506001900390600052602060002001600090919091909150553373ffffffffffffffffffffffffffffffffffffffff16817fe203a10283fe11e231a5ab7086bb699ffc7c05f1604dbc01c95d5e93e658580b8d8a60405161241092919061410e565b60405180910390a35050505050505050505050565b6002602052816000526040600020818154811061244157600080fd5b90600052602060002001600091509150505481565b61245e6129db565b60048054905081106124a5576040517f08c379a000000000000000000000000000000000000000000000000000000000815260040161249c90613d6a565b60405180910390fd5b600060016000838152602001908152602001600020905080600a0154341015612503576040517f08c379a00000000000000000000000000000000000000000000000000000000081526004016124fa90614191565b60405180910390fd5b6003600083815260200190815260200160002060003373ffffffffffffffffffffffffffffffffffffffff1673ffffffffffffffffffffffffffffffffffffffff16815260200190815260200160002060009054906101000a900460ff16156125a1576040517f08c379a0000000000000000000000000000000000000000000000000000000008152600401612598906141fd565b60405180910390fd5b60016003600084815260200190815260200160002060003373ffffffffffffffffffffffffffffffffffffffff1673ffffffffffffffffffffffffffffffffffffffff16815260200190815260200160002060006101000a81548160ff02191690831515021790555060003390508073ffffffffffffffffffffffffffffffffffffffff166108fc349081150290604051600060405180830381858888f19350505050158015612655573d6000803e3d6000fd5b503373ffffffffffffffffffffffffffffffffffffffff16837fc56e8aa8e9f4284830fd4657bc77d60640af2ec679f2099faf320ee4202ff4223460405161269d91906135e4565b60405180910390a350506126af612a21565b50565b60048054905085106126f9576040517f08c379a00000000000000000000000000000000000000000000000000000000081526004016126f090613d6a565b60405180910390fd5b600073ffffffffffffffffffffffffffffffffffffffff168473ffffffffffffffffffffffffffffffffffffffff1603612768576040517f08c379a000000000000000000000000000000000000000000000000000000000815260040161275f90614269565b60405180910390fd5b6000600260003373ffffffffffffffffffffffffffffffffffffffff1673ffffffffffffffffffffffffffffffffffffffff168152602001908152602001600020905060005b818054905081101561286c57868282815481106127ce576127cd613dea565b5b9060005260206000200154036128595781600183805490506127f09190614289565b8154811061280157612800613dea565b5b906000526020600020015482828154811061281f5761281e613dea565b5b90600052602060002001819055508180548061283e5761283d6142bd565b5b6001900381819060005260206000200160009055905561286c565b808061286490613e48565b9150506127ae565b50600260008673ffffffffffffffffffffffffffffffffffffffff1673ffffffffffffffffffffffffffffffffffffffff168152602001908152602001600020869080600181540180825580915050600190039060005260206000200160009091909190915055604051806060016040528085815260200184815260200183815250600160008881526020019081526020016000206003016000820151816000019081612919919061403c565b50602082015181600101908161292f919061403c565b506040820151816002019081612945919061403c565b509050508473ffffffffffffffffffffffffffffffffffffffff163373ffffffffffffffffffffffffffffffffffffffff16877f16b85f49bf01212961345d3016c9a531894accf62eb7680f2045d79185cc0ec060405160405180910390a4505050505050565b60036020528160005260406000206020528060005260406000206000915091509054906101000a900460ff1681565b600260005403612a17576040517f3ee5aeb500000000000000000000000000000000000000000000000000000000815260040160405180910390fd5b6002600081905550565b6001600081905550565b604051806101800160405280600081526020016060815260200160608152602001612a54612b07565b8152602001606081526020016060815260200160608152602001606081526020016000815260200160608152602001612a8b612b28565b8152602001600073ffffffffffffffffffffffffffffffffffffffff1681525090565b828054828255906000526020600020908101928215612af6579160200282015b82811115612af5578251829081612ae5919061403c565b5091602001919060010190612ace565b5b509050612b039190612b57565b5090565b60405180606001604052806060815260200160608152602001606081525090565b6040518060a0016040528060608152602001606081526020016060815260200160608152602001606081525090565b5b80821115612b775760008181612b6e9190612b7b565b50600101612b58565b5090565b508054612b8790613db9565b6000825580601f10612b995750612bb8565b601f016020900490600052602060002090810190612bb79190612bbb565b5b50565b5b80821115612bd4576000816000905550600101612bbc565b5090565b6000604051905090565b600080fd5b600080fd5b6000819050919050565b612bff81612bec565b8114612c0a57600080fd5b50565b600081359050612c1c81612bf6565b92915050565b600060208284031215612c3857612c37612be2565b5b6000612c4684828501612c0d565b91505092915050565b612c5881612bec565b82525050565b600081519050919050565b600082825260208201905092915050565b60005b83811015612c98578082015181840152602081019050612c7d565b60008484015250505050565b6000601f19601f8301169050919050565b6000612cc082612c5e565b612cca8185612c69565b9350612cda818560208601612c7a565b612ce381612ca4565b840191505092915050565b60006060830160008301518482036000860152612d0b8282612cb5565b91505060208301518482036020860152612d258282612cb5565b91505060408301518482036040860152612d3f8282612cb5565b9150508091505092915050565b600081519050919050565b600082825260208201905092915050565b6000819050602082019050919050565b6000612d848383612cb5565b905092915050565b6000602082019050919050565b6000612da482612d4c565b612dae8185612d57565b935083602082028501612dc085612d68565b8060005b85811015612dfc5784840389528151612ddd8582612d78565b9450612de883612d8c565b925060208a01995050600181019050612dc4565b50829750879550505050505092915050565b600060a0830160008301518482036000860152612e2b8282612cb5565b91505060208301518482036020860152612e458282612cb5565b91505060408301518482036040860152612e5f8282612d99565b91505060608301518482036060860152612e798282612cb5565b91505060808301518482036080860152612e938282612cb5565b9150508091505092915050565b600073ffffffffffffffffffffffffffffffffffffffff82169050919050565b6000612ecb82612ea0565b9050919050565b612edb81612ec0565b82525050565b600061018083016000830151612efa6000860182612c4f565b5060208301518482036020860152612f128282612cb5565b91505060408301518482036040860152612f2c8282612cb5565b91505060608301518482036060860152612f468282612cee565b91505060808301518482036080860152612f608282612cb5565b91505060a083015184820360a0860152612f7a8282612cb5565b91505060c083015184820360c0860152612f948282612cb5565b91505060e083015184820360e0860152612fae8282612d99565b915050610100830151612fc5610100860182612c4f565b50610120830151848203610120860152612fdf8282612d99565b915050610140830151848203610140860152612ffb8282612e0e565b915050610160830151613012610160860182612ed2565b508091505092915050565b600060208201905081810360008301526130378184612ee1565b905092915050565b61304881612bec565b82525050565b600082825260208201905092915050565b600061306a82612c5e565b613074818561304e565b9350613084818560208601612c7a565b61308d81612ca4565b840191505092915050565b600060608301600083015184820360008601526130b58282612cb5565b915050602083015184820360208601526130cf8282612cb5565b915050604083015184820360408601526130e98282612cb5565b9150508091505092915050565b600060a08301600083015184820360008601526131138282612cb5565b9150506020830151848203602086015261312d8282612cb5565b915050604083015184820360408601526131478282612d99565b915050606083015184820360608601526131618282612cb5565b9150506080830151848203608086015261317b8282612cb5565b9150508091505092915050565b61319181612ec0565b82525050565b6000610140820190506131ad600083018d61303f565b81810360208301526131bf818c61305f565b905081810360408301526131d3818b61305f565b905081810360608301526131e7818a613098565b905081810360808301526131fb818961305f565b905081810360a083015261320f818861305f565b905081810360c0830152613223818761305f565b905061323260e083018661303f565b81810361010083015261324581856130f6565b9050613255610120830184613188565b9b9a5050505050505050505050565b61326d81612ec0565b811461327857600080fd5b50565b60008135905061328a81613264565b92915050565b6000602082840312156132a6576132a5612be2565b5b60006132b48482850161327b565b91505092915050565b600081519050919050565b600082825260208201905092915050565b6000819050602082019050919050565b60006132f58383612c4f565b60208301905092915050565b6000602082019050919050565b6000613319826132bd565b61332381856132c8565b935061332e836132d9565b8060005b8381101561335f57815161334688826132e9565b975061335183613301565b925050600181019050613332565b5085935050505092915050565b60006020820190508181036000830152613386818461330e565b905092915050565b600081519050919050565b600082825260208201905092915050565b6000819050602082019050919050565b6000610180830160008301516133d36000860182612c4f565b50602083015184820360208601526133eb8282612cb5565b915050604083015184820360408601526134058282612cb5565b9150506060830151848203606086015261341f8282612cee565b915050608083015184820360808601526134398282612cb5565b91505060a083015184820360a08601526134538282612cb5565b91505060c083015184820360c086015261346d8282612cb5565b91505060e083015184820360e08601526134878282612d99565b91505061010083015161349e610100860182612c4f565b506101208301518482036101208601526134b88282612d99565b9150506101408301518482036101408601526134d48282612e0e565b9150506101608301516134eb610160860182612ed2565b508091505092915050565b600061350283836133ba565b905092915050565b6000602082019050919050565b60006135228261338e565b61352c8185613399565b93508360208202850161353e856133aa565b8060005b8581101561357a578484038952815161355b85826134f6565b94506135668361350a565b925060208a01995050600181019050613542565b50829750879550505050505092915050565b600060208201905081810360008301526135a68184613517565b905092915050565b60008115159050919050565b6135c3816135ae565b82525050565b60006020820190506135de60008301846135ba565b92915050565b60006020820190506135f9600083018461303f565b92915050565b600080fd5b600080fd5b7f4e487b7100000000000000000000000000000000000000000000000000000000600052604160045260246000fd5b61364182612ca4565b810181811067ffffffffffffffff821117156136605761365f613609565b5b80604052505050565b6000613673612bd8565b905061367f8282613638565b919050565b600067ffffffffffffffff82111561369f5761369e613609565b5b6136a882612ca4565b9050602081019050919050565b82818337600083830152505050565b60006136d76136d284613684565b613669565b9050828152602081018484840111156136f3576136f2613604565b5b6136fe8482856136b5565b509392505050565b600082601f83011261371b5761371a6135ff565b5b813561372b8482602086016136c4565b91505092915050565b600067ffffffffffffffff82111561374f5761374e613609565b5b602082029050602081019050919050565b600080fd5b600061377861377384613734565b613669565b9050808382526020820190506020840283018581111561379b5761379a613760565b5b835b818110156137e257803567ffffffffffffffff8111156137c0576137bf6135ff565b5b8086016137cd8982613706565b8552602085019450505060208101905061379d565b5050509392505050565b600082601f830112613801576138006135ff565b5b8135613811848260208601613765565b91505092915050565b600080fd5b600080fd5b60006060828403121561383a5761383961381a565b5b6138446060613669565b9050600082013567ffffffffffffffff8111156138645761386361381f565b5b61387084828501613706565b600083015250602082013567ffffffffffffffff8111156138945761389361381f565b5b6138a084828501613706565b602083015250604082013567ffffffffffffffff8111156138c4576138c361381f565b5b6138d084828501613706565b60408301525092915050565b600060a082840312156138f2576138f161381a565b5b6138fc60a0613669565b9050600082013567ffffffffffffffff81111561391c5761391b61381f565b5b61392884828501613706565b600083015250602082013567ffffffffffffffff81111561394c5761394b61381f565b5b61395884828501613706565b602083015250604082013567ffffffffffffffff81111561397c5761397b61381f565b5b613988848285016137ec565b604083015250606082013567ffffffffffffffff8111156139ac576139ab61381f565b5b6139b884828501613706565b606083015250608082013567ffffffffffffffff8111156139dc576139db61381f565b5b6139e884828501613706565b60808301525092915050565b6000806000806000806000806000806101408b8d031215613a1857613a17612be2565b5b60008b013567ffffffffffffffff811115613a3657613a35612be7565b5b613a428d828e01613706565b9a505060208b013567ffffffffffffffff811115613a6357613a62612be7565b5b613a6f8d828e01613706565b99505060408b013567ffffffffffffffff811115613a9057613a8f612be7565b5b613a9c8d828e01613706565b98505060608b013567ffffffffffffffff811115613abd57613abc612be7565b5b613ac98d828e01613706565b97505060808b013567ffffffffffffffff811115613aea57613ae9612be7565b5b613af68d828e01613706565b96505060a08b013567ffffffffffffffff811115613b1757613b16612be7565b5b613b238d828e016137ec565b95505060c0613b348d828e01612c0d565b94505060e08b013567ffffffffffffffff811115613b5557613b54612be7565b5b613b618d828e016137ec565b9350506101008b013567ffffffffffffffff811115613b8357613b82612be7565b5b613b8f8d828e01613824565b9250506101208b013567ffffffffffffffff811115613bb157613bb0612be7565b5b613bbd8d828e016138dc565b9150509295989b9194979a5092959850565b60008060408385031215613be657613be5612be2565b5b6000613bf48582860161327b565b9250506020613c0585828601612c0d565b9150509250929050565b600080600080600060a08688031215613c2b57613c2a612be2565b5b6000613c3988828901612c0d565b9550506020613c4a8882890161327b565b945050604086013567ffffffffffffffff811115613c6b57613c6a612be7565b5b613c7788828901613706565b935050606086013567ffffffffffffffff811115613c9857613c97612be7565b5b613ca488828901613706565b925050608086013567ffffffffffffffff811115613cc557613cc4612be7565b5b613cd188828901613706565b9150509295509295909350565b60008060408385031215613cf557613cf4612be2565b5b6000613d0385828601612c0d565b9250506020613d148582860161327b565b9150509250929050565b7f495020646f6573206e6f74206578697374000000000000000000000000000000600082015250565b6000613d5460118361304e565b9150613d5f82613d1e565b602082019050919050565b60006020820190508181036000830152613d8381613d47565b9050919050565b7f4e487b7100000000000000000000000000000000000000000000000000000000600052602260045260246000fd5b60006002820490506001821680613dd157607f821691505b602082108103613de457613de3613d8a565b5b50919050565b7f4e487b7100000000000000000000000000000000000000000000000000000000600052603260045260246000fd5b7f4e487b7100000000000000000000000000000000000000000000000000000000600052601160045260246000fd5b6000613e5382612bec565b91507fffffffffffffffffffffffffffffffffffffffffffffffffffffffffffffffff8203613e8557613e84613e19565b5b600182019050919050565b60008190508160005260206000209050919050565b60006020601f8301049050919050565b600082821b905092915050565b600060088302613ef27fffffffffffffffffffffffffffffffffffffffffffffffffffffffffffffffff82613eb5565b613efc8683613eb5565b95508019841693508086168417925050509392505050565b6000819050919050565b6000613f39613f34613f2f84612bec565b613f14565b612bec565b9050919050565b6000819050919050565b613f5383613f1e565b613f67613f5f82613f40565b848454613ec2565b825550505050565b600090565b613f7c613f6f565b613f87818484613f4a565b505050565b5b81811015613fab57613fa0600082613f74565b600181019050613f8d565b5050565b601f821115613ff057613fc181613e90565b613fca84613ea5565b81016020851015613fd9578190505b613fed613fe585613ea5565b830182613f8c565b50505b505050565b600082821c905092915050565b600061401360001984600802613ff5565b1980831691505092915050565b600061402c8383614002565b9150826002028217905092915050565b61404582612c5e565b67ffffffffffffffff81111561405e5761405d613609565b5b6140688254613db9565b614073828285613faf565b600060209050601f8311600181146140a65760008415614094578287015190505b61409e8582614020565b865550614106565b601f1984166140b486613e90565b60005b828110156140dc578489015182556001820191506020850194506020810190506140b7565b868310156140f957848901516140f5601f891682614002565b8355505b6001600288020188555050505b505050505050565b60006040820190508181036000830152614128818561305f565b9050818103602083015261413c818461305f565b90509392505050565b7f496e73756666696369656e74207061796d656e74000000000000000000000000600082015250565b600061417b60148361304e565b915061418682614145565b602082019050919050565b600060208201905081810360008301526141aa8161416e565b9050919050565b7f416c726561647920686173206163636573730000000000000000000000000000600082015250565b60006141e760128361304e565b91506141f2826141b1565b602082019050919050565b60006020820190508181036000830152614216816141da565b9050919050565b7f496e76616c6964206e6577206f776e6572000000000000000000000000000000600082015250565b600061425360118361304e565b915061425e8261421d565b602082019050919050565b6000602082019050818103600083015261428281614246565b9050919050565b600061429482612bec565b915061429f83612bec565b92508282039050818111156142b7576142b6613e19565b5b92915050565b7f4e487b7100000000000000000000000000000000000000000000000000000000600052603160045260246000fdfea2646970667358221220b00eea469000378446520430fad5876861eaab447ec5e89a452ee96e658853f564736f6c63430008140033",
  "linkReferences": {},
  "deployedLinkReferences": {}
}