{
  "_format": "hh-sol-artifact-1",
  "contractName": "IPregistry",
  "sourceName": "contracts/IPregistry.sol",
  "abi": [
    {
      "inputs": [],
      "name": "ReentrancyGuardReentrantCall",
      "type": "error"
    },
    {
      "anonymous": false,
      "inputs": [
        {
          "indexed": true,
          "internalType": "uint256",
          "name": "index",
          "type": "uint256"
        },
        {
          "indexed": true,
          "internalType": "address",
          "name": "user",
          "type": "address"
        },
        {
          "indexed": false,
          "internalType": "uint256",
          "name": "amount",
          "type": "uint256"
        }
      ],
      "name": "AccessGranted",
      "type": "event"
    },
    {
      "anonymous": false,
      "inputs": [
        {
          "indexed": true,
          "internalType": "uint256",
          "name": "index",
          "type": "uint256"
        },
        {
          "indexed": false,
          "internalType": "string",
          "name": "name",
          "type": "string"
        },
        {
          "indexed": true,
          "internalType": "address",
          "name": "owner",
          "type": "address"
        },
        {
          "indexed": false,
          "internalType": "string",
          "name": "dateOfRegistration",
          "type": "string"
        }
      ],
      "name": "IPRegistered",
      "type": "event"
    },
    {
      "anonymous": false,
      "inputs": [
        {
          "indexed": true,
          "internalType": "uint256",
          "name": "index",
          "type": "uint256"
        },
        {
          "indexed": true,
          "internalType": "address",
          "name": "payer",
          "type": "address"
        },
        {
          "indexed": false,
          "internalType": "uint256",
          "name": "amount",
          "type": "uint256"
        }
      ],
      "name": "IncentivePaid",
      "type": "event"
    },
    {
      "anonymous": false,
      "inputs": [
        {
          "indexed": true,
          "internalType": "uint256",
          "name": "index",
          "type": "uint256"
        },
        {
          "indexed": true,
          "internalType": "address",
          "name": "from",
          "type": "address"
        },
        {
          "indexed": true,
          "internalType": "address",
          "name": "to",
          "type": "address"
        }
      ],
      "name": "OwnershipTransferred",
      "type": "event"
    },
    {
      "inputs": [],
      "name": "getAllRegisteredIPs",
      "outputs": [
        {
          "components": [
            {
              "internalType": "uint256",
              "name": "index",
              "type": "uint256"
            },
            {
              "internalType": "string",
              "name": "name",
              "type": "string"
            },
            {
              "internalType": "string",
              "name": "description",
              "type": "string"
            },
            {
              "components": [
                {
                  "internalType": "string",
                  "name": "name",
                  "type": "string"
                },
                {
                  "internalType": "string",
                  "name": "email",
                  "type": "string"
                },
                {
                  "internalType": "string",
                  "name": "physicalAddress",
                  "type": "string"
                }
              ],
              "internalType": "struct IPregistry.OwnerDetails",
              "name": "owner",
              "type": "tuple"
            },
            {
              "internalType": "string",
              "name": "ipType",
              "type": "string"
            },
            {
              "internalType": "string",
              "name": "dateOfCreation",
              "type": "string"
            },
            {
              "internalType": "string",
              "name": "dateOfRegistration",
              "type": "string"
            },
            {
              "internalType": "string[]",
              "name": "license",
              "type": "string[]"
            },
            {
              "internalType": "uint256",
              "name": "licenseIncentive",
              "type": "uint256"
            },
            {
              "internalType": "string[]",
              "name": "tags",
              "type": "string[]"
            },
            {
              "components": [
                {
                  "internalType": "string",
                  "name": "workType",
                  "type": "string"
                },
                {
                  "internalType": "string",
                  "name": "classOfGoods",
                  "type": "string"
                },
                {
                  "internalType": "string[]",
                  "name": "inventors",
                  "type": "string[]"
                },
                {
                  "internalType": "string",
                  "name": "domainName",
                  "type": "string"
                },
                {
                  "internalType": "string",
                  "name": "publicationDate",
                  "type": "string"
                }
              ],
              "internalType": "struct IPregistry.OptionalFields",
              "name": "optionalFields",
              "type": "tuple"
            },
            {
              "internalType": "address",
              "name": "ownerAddress",
              "type": "address"
            }
          ],
          "internalType": "struct IPregistry.IntellectualProperty[]",
          "name": "",
          "type": "tuple[]"
        }
      ],
      "stateMutability": "view",
      "type": "function"
    },
    {
      "inputs": [
        {
          "internalType": "uint256",
          "name": "index",
          "type": "uint256"
        }
      ],
      "name": "getIPDetails",
      "outputs": [
        {
          "components": [
            {
              "internalType": "uint256",
              "name": "index",
              "type": "uint256"
            },
            {
              "internalType": "string",
              "name": "name",
              "type": "string"
            },
            {
              "internalType": "string",
              "name": "description",
              "type": "string"
            },
            {
              "components": [
                {
                  "internalType": "string",
                  "name": "name",
                  "type": "string"
                },
                {
                  "internalType": "string",
                  "name": "email",
                  "type": "string"
                },
                {
                  "internalType": "string",
                  "name": "physicalAddress",
                  "type": "string"
                }
              ],
              "internalType": "struct IPregistry.OwnerDetails",
              "name": "owner",
              "type": "tuple"
            },
            {
              "internalType": "string",
              "name": "ipType",
              "type": "string"
            },
            {
              "internalType": "string",
              "name": "dateOfCreation",
              "type": "string"
            },
            {
              "internalType": "string",
              "name": "dateOfRegistration",
              "type": "string"
            },
            {
              "internalType": "string[]",
              "name": "license",
              "type": "string[]"
            },
            {
              "internalType": "uint256",
              "name": "licenseIncentive",
              "type": "uint256"
            },
            {
              "internalType": "string[]",
              "name": "tags",
              "type": "string[]"
            },
            {
              "components": [
                {
                  "internalType": "string",
                  "name": "workType",
                  "type": "string"
                },
                {
                  "internalType": "string",
                  "name": "classOfGoods",
                  "type": "string"
                },
                {
                  "internalType": "string[]",
                  "name": "inventors",
                  "type": "string[]"
                },
                {
                  "internalType": "string",
                  "name": "domainName",
                  "type": "string"
                },
                {
                  "internalType": "string",
                  "name": "publicationDate",
                  "type": "string"
                }
              ],
              "internalType": "struct IPregistry.OptionalFields",
              "name": "optionalFields",
              "type": "tuple"
            },
            {
              "internalType": "address",
              "name": "ownerAddress",
              "type": "address"
            }
          ],
          "internalType": "struct IPregistry.IntellectualProperty",
          "name": "",
          "type": "tuple"
        }
      ],
      "stateMutability": "view",
      "type": "function"
    },
    {
      "inputs": [
        {
          "internalType": "uint256",
          "name": "index",
          "type": "uint256"
        }
      ],
      "name": "getLicenseIncentive",
      "outputs": [
        {
          "internalType": "uint256",
          "name": "",
          "type": "uint256"
        }
      ],
      "stateMutability": "view",
      "type": "function"
    },
    {
      "inputs": [
        {
          "internalType": "address",
          "name": "owner",
          "type": "address"
        }
      ],
      "name": "getOwnerIPs",
      "outputs": [
        {
          "internalType": "uint256[]",
          "name": "",
          "type": "uint256[]"
        }
      ],
      "stateMutability": "view",
      "type": "function"
    },
    {
      "inputs": [],
      "name": "getTotalIPs",
      "outputs": [
        {
          "internalType": "uint256",
          "name": "",
          "type": "uint256"
        }
      ],
      "stateMutability": "view",
      "type": "function"
    },
    {
      "inputs": [
        {
          "internalType": "uint256",
          "name": "index",
          "type": "uint256"
        }
      ],
      "name": "grantAccess",
      "outputs": [],
      "stateMutability": "payable",
      "type": "function"
    },
    {
      "inputs": [
        {
          "internalType": "uint256",
          "name": "",
          "type": "uint256"
        },
        {
          "internalType": "address",
          "name": "",
          "type": "address"
        }
      ],
      "name": "hasAccess",
      "outputs": [
        {
          "internalType": "bool",
          "name": "",
          "type": "bool"
        }
      ],
      "stateMutability": "view",
      "type": "function"
    },
    {
      "inputs": [
        {
          "internalType": "uint256",
          "name": "",
          "type": "uint256"
        }
      ],
      "name": "ips",
      "outputs": [
        {
          "internalType": "uint256",
          "name": "index",
          "type": "uint256"
        },
        {
          "internalType": "string",
          "name": "name",
          "type": "string"
        },
        {
          "internalType": "string",
          "name": "description",
          "type": "string"
        },
        {
          "components": [
            {
              "internalType": "string",
              "name": "name",
              "type": "string"
            },
            {
              "internalType": "string",
              "name": "email",
              "type": "string"
            },
            {
              "internalType": "string",
              "name": "physicalAddress",
              "type": "string"
            }
          ],
          "internalType": "struct IPregistry.OwnerDetails",
          "name": "owner",
          "type": "tuple"
        },
        {
          "internalType": "string",
          "name": "ipType",
          "type": "string"
        },
        {
          "internalType": "string",
          "name": "dateOfCreation",
          "type": "string"
        },
        {
          "internalType": "string",
          "name": "dateOfRegistration",
          "type": "string"
        },
        {
          "internalType": "uint256",
          "name": "licenseIncentive",
          "type": "uint256"
        },
        {
          "components": [
            {
              "internalType": "string",
              "name": "workType",
              "type": "string"
            },
            {
              "internalType": "string",
              "name": "classOfGoods",
              "type": "string"
            },
            {
              "internalType": "string[]",
              "name": "inventors",
              "type": "string[]"
            },
            {
              "internalType": "string",
              "name": "domainName",
              "type": "string"
            },
            {
              "internalType": "string",
              "name": "publicationDate",
              "type": "string"
            }
          ],
          "internalType": "struct IPregistry.OptionalFields",
          "name": "optionalFields",
          "type": "tuple"
        },
        {
          "internalType": "address",
          "name": "ownerAddress",
          "type": "address"
        }
      ],
      "stateMutability": "view",
      "type": "function"
    },
    {
      "inputs": [
        {
          "internalType": "uint256",
          "name": "index",
          "type": "uint256"
        }
      ],
      "name": "isRegistered",
      "outputs": [
        {
          "internalType": "bool",
          "name": "",
          "type": "bool"
        }
      ],
      "stateMutability": "view",
      "type": "function"
    },
    {
      "inputs": [
        {
          "internalType": "address",
          "name": "",
          "type": "address"
        },
        {
          "internalType": "uint256",
          "name": "",
          "type": "uint256"
        }
      ],
      "name": "ownerToIPs",
      "outputs": [
        {
          "internalType": "uint256",
          "name": "",
          "type": "uint256"
        }
      ],
      "stateMutability": "view",
      "type": "function"
    },
    {
      "inputs": [
        {
          "internalType": "string",
          "name": "name",
          "type": "string"
        },
        {
          "internalType": "string",
          "name": "description",
          "type": "string"
        },
        {
          "internalType": "string",
          "name": "ipType",
          "type": "string"
        },
        {
          "internalType": "string",
          "name": "dateOfCreation",
          "type": "string"
        },
        {
          "internalType": "string",
          "name": "dateOfRegistration",
          "type": "string"
        },
        {
          "internalType": "string[]",
          "name": "license",
          "type": "string[]"
        },
        {
          "internalType": "uint256",
          "name": "licenseIncentive",
          "type": "uint256"
        },
        {
          "internalType": "string[]",
          "name": "tags",
          "type": "string[]"
        },
        {
          "components": [
            {
              "internalType": "string",
              "name": "name",
              "type": "string"
            },
            {
              "internalType": "string",
              "name": "email",
              "type": "string"
            },
            {
              "internalType": "string",
              "name": "physicalAddress",
              "type": "string"
            }
          ],
          "internalType": "struct IPregistry.OwnerDetails",
          "name": "ownerDetails",
          "type": "tuple"
        },
        {
          "components": [
            {
              "internalType": "string",
              "name": "workType",
              "type": "string"
            },
            {
              "internalType": "string",
              "name": "classOfGoods",
              "type": "string"
            },
            {
              "internalType": "string[]",
              "name": "inventors",
              "type": "string[]"
            },
            {
              "internalType": "string",
              "name": "domainName",
              "type": "string"
            },
            {
              "internalType": "string",
              "name": "publicationDate",
              "type": "string"
            }
          ],
          "internalType": "struct IPregistry.OptionalFields",
          "name": "optionalFields",
          "type": "tuple"
        }
      ],
      "name": "registerIP",
      "outputs": [],
      "stateMutability": "nonpayable",
      "type": "function"
    },
    {
      "inputs": [
        {
          "internalType": "uint256",
          "name": "index",
          "type": "uint256"
        },
        {
          "internalType": "address",
          "name": "newOwner",
          "type": "address"
        },
        {
          "internalType": "string",
          "name": "newOwnerName",
          "type": "string"
        },
        {
          "internalType": "string",
          "name": "newOwnerEmail",
          "type": "string"
        },
        {
          "internalType": "string",
          "name": "newOwnerPhysicalAddress",
          "type": "string"
        }
      ],
      "name": "transferOwnership",
      "outputs": [],
      "stateMutability": "nonpayable",
      "type": "function"
    }
  ],
  "bytecode": "0x608060405234801561001057600080fd5b5060016000819055506146a4806100286000396000f3fe6080604052600436106100a75760003560e01c80635a4070a7116100645780635a4070a7146101ff578063623f3544146102285780637ca1456314610265578063c8af1c7314610281578063c945a91a146102aa578063ced14198146102e7576100a7565b80631feb4bfb146100ac57806323a050c1146100e95780632816fb0b1461012f578063505143951461016c578063579a69881461019757806357dd9777146101d4575b600080fd5b3480156100b857600080fd5b506100d360048036038101906100ce9190612e80565b610324565b6040516100e0919061327b565b60405180910390f35b3480156100f557600080fd5b50610110600480360381019061010b9190612e80565b610d8e565b6040516101269a999897969594939291906133f5565b60405180910390f35b34801561013b57600080fd5b50610156600480360381019061015191906134ee565b611595565b60405161016391906135ca565b60405180910390f35b34801561017857600080fd5b5061018161162c565b60405161018e91906137ea565b60405180910390f35b3480156101a357600080fd5b506101be60048036038101906101b99190612e80565b612106565b6040516101cb9190613827565b60405180910390f35b3480156101e057600080fd5b506101e9612117565b6040516101f69190613842565b60405180910390f35b34801561020b57600080fd5b5061022660048036038101906102219190613c52565b612124565b005b34801561023457600080fd5b5061024f600480360381019061024a9190613e2d565b61246d565b60405161025c9190613842565b60405180910390f35b61027f600480360381019061027a9190612e80565b61249e565b005b34801561028d57600080fd5b506102a860048036038101906102a39190613e6d565b6127b0565b005b3480156102b657600080fd5b506102d160048036038101906102cc9190612e80565b612ba3565b6040516102de9190613842565b60405180910390f35b3480156102f357600080fd5b5061030e60048036038101906103099190613f3c565b612c0a565b60405161031b9190613827565b60405180910390f35b61032c612c89565b6004805490508210610373576040517f08c379a000000000000000000000000000000000000000000000000000000000815260040161036a90613fc8565b60405180910390fd5b6001600083815260200190815260200160002060405180610180016040529081600082015481526020016001820180546103ac90614017565b80601f01602080910402602001604051908101604052809291908181526020018280546103d890614017565b80156104255780601f106103fa57610100808354040283529160200191610425565b820191906000526020600020905b81548152906001019060200180831161040857829003601f168201915b5050505050815260200160028201805461043e90614017565b80601f016020809104026020016040519081016040528092919081815260200182805461046a90614017565b80156104b75780601f1061048c576101008083540402835291602001916104b7565b820191906000526020600020905b81548152906001019060200180831161049a57829003601f168201915b50505050508152602001600382016040518060600160405290816000820180546104e090614017565b80601f016020809104026020016040519081016040528092919081815260200182805461050c90614017565b80156105595780601f1061052e57610100808354040283529160200191610559565b820191906000526020600020905b81548152906001019060200180831161053c57829003601f168201915b5050505050815260200160018201805461057290614017565b80601f016020809104026020016040519081016040528092919081815260200182805461059e90614017565b80156105eb5780601f106105c0576101008083540402835291602001916105eb565b820191906000526020600020905b8154815290600101906020018083116105ce57829003601f168201915b5050505050815260200160028201805461060490614017565b80601f016020809104026020016040519081016040528092919081815260200182805461063090614017565b801561067d5780601f106106525761010080835404028352916020019161067d565b820191906000526020600020905b81548152906001019060200180831161066057829003601f168201915b505050505081525050815260200160068201805461069a90614017565b80601f01602080910402602001604051908101604052809291908181526020018280546106c690614017565b80156107135780601f106106e857610100808354040283529160200191610713565b820191906000526020600020905b8154815290600101906020018083116106f657829003601f168201915b5050505050815260200160078201805461072c90614017565b80601f016020809104026020016040519081016040528092919081815260200182805461075890614017565b80156107a55780601f1061077a576101008083540402835291602001916107a5565b820191906000526020600020905b81548152906001019060200180831161078857829003601f168201915b505050505081526020016008820180546107be90614017565b80601f01602080910402602001604051908101604052809291908181526020018280546107ea90614017565b80156108375780601f1061080c57610100808354040283529160200191610837565b820191906000526020600020905b81548152906001019060200180831161081a57829003601f168201915b5050505050815260200160098201805480602002602001604051908101604052809291908181526020016000905b8282101561091157838290600052602060002001805461088490614017565b80601f01602080910402602001604051908101604052809291908181526020018280546108b090614017565b80156108fd5780601f106108d2576101008083540402835291602001916108fd565b820191906000526020600020905b8154815290600101906020018083116108e057829003601f168201915b505050505081526020019060010190610865565b505050508152602001600a8201548152602001600b8201805480602002602001604051908101604052809291908181526020016000905b828210156109f457838290600052602060002001805461096790614017565b80601f016020809104026020016040519081016040528092919081815260200182805461099390614017565b80156109e05780601f106109b5576101008083540402835291602001916109e0565b820191906000526020600020905b8154815290600101906020018083116109c357829003601f168201915b505050505081526020019060010190610948565b505050508152602001600c82016040518060a0016040529081600082018054610a1c90614017565b80601f0160208091040260200160405190810160405280929190818152602001828054610a4890614017565b8015610a955780601f10610a6a57610100808354040283529160200191610a95565b820191906000526020600020905b815481529060010190602001808311610a7857829003601f168201915b50505050508152602001600182018054610aae90614017565b80601f0160208091040260200160405190810160405280929190818152602001828054610ada90614017565b8015610b275780601f10610afc57610100808354040283529160200191610b27565b820191906000526020600020905b815481529060010190602001808311610b0a57829003601f168201915b5050505050815260200160028201805480602002602001604051908101604052809291908181526020016000905b82821015610c01578382906000526020600020018054610b7490614017565b80601f0160208091040260200160405190810160405280929190818152602001828054610ba090614017565b8015610bed5780601f10610bc257610100808354040283529160200191610bed565b820191906000526020600020905b815481529060010190602001808311610bd057829003601f168201915b505050505081526020019060010190610b55565b505050508152602001600382018054610c1990614017565b80601f0160208091040260200160405190810160405280929190818152602001828054610c4590614017565b8015610c925780601f10610c6757610100808354040283529160200191610c92565b820191906000526020600020905b815481529060010190602001808311610c7557829003601f168201915b50505050508152602001600482018054610cab90614017565b80601f0160208091040260200160405190810160405280929190818152602001828054610cd790614017565b8015610d245780601f10610cf957610100808354040283529160200191610d24565b820191906000526020600020905b815481529060010190602001808311610d0757829003601f168201915b50505050508152505081526020016011820160009054906101000a900473ffffffffffffffffffffffffffffffffffffffff1673ffffffffffffffffffffffffffffffffffffffff1673ffffffffffffffffffffffffffffffffffffffff16815250509050919050565b6001602052806000526040600020600091509050806000015490806001018054610db790614017565b80601f0160208091040260200160405190810160405280929190818152602001828054610de390614017565b8015610e305780601f10610e0557610100808354040283529160200191610e30565b820191906000526020600020905b815481529060010190602001808311610e1357829003601f168201915b505050505090806002018054610e4590614017565b80601f0160208091040260200160405190810160405280929190818152602001828054610e7190614017565b8015610ebe5780601f10610e9357610100808354040283529160200191610ebe565b820191906000526020600020905b815481529060010190602001808311610ea157829003601f168201915b50505050509080600301604051806060016040529081600082018054610ee390614017565b80601f0160208091040260200160405190810160405280929190818152602001828054610f0f90614017565b8015610f5c5780601f10610f3157610100808354040283529160200191610f5c565b820191906000526020600020905b815481529060010190602001808311610f3f57829003601f168201915b50505050508152602001600182018054610f7590614017565b80601f0160208091040260200160405190810160405280929190818152602001828054610fa190614017565b8015610fee5780601f10610fc357610100808354040283529160200191610fee565b820191906000526020600020905b815481529060010190602001808311610fd157829003601f168201915b5050505050815260200160028201805461100790614017565b80601f016020809104026020016040519081016040528092919081815260200182805461103390614017565b80156110805780601f1061105557610100808354040283529160200191611080565b820191906000526020600020905b81548152906001019060200180831161106357829003601f168201915b5050505050815250509080600601805461109990614017565b80601f01602080910402602001604051908101604052809291908181526020018280546110c590614017565b80156111125780601f106110e757610100808354040283529160200191611112565b820191906000526020600020905b8154815290600101906020018083116110f557829003601f168201915b50505050509080600701805461112790614017565b80601f016020809104026020016040519081016040528092919081815260200182805461115390614017565b80156111a05780601f10611175576101008083540402835291602001916111a0565b820191906000526020600020905b81548152906001019060200180831161118357829003601f168201915b5050505050908060080180546111b590614017565b80601f01602080910402602001604051908101604052809291908181526020018280546111e190614017565b801561122e5780601f106112035761010080835404028352916020019161122e565b820191906000526020600020905b81548152906001019060200180831161121157829003601f168201915b50505050509080600a01549080600c016040518060a001604052908160008201805461125990614017565b80601f016020809104026020016040519081016040528092919081815260200182805461128590614017565b80156112d25780601f106112a7576101008083540402835291602001916112d2565b820191906000526020600020905b8154815290600101906020018083116112b557829003601f168201915b505050505081526020016001820180546112eb90614017565b80601f016020809104026020016040519081016040528092919081815260200182805461131790614017565b80156113645780601f1061133957610100808354040283529160200191611364565b820191906000526020600020905b81548152906001019060200180831161134757829003601f168201915b5050505050815260200160028201805480602002602001604051908101604052809291908181526020016000905b8282101561143e5783829060005260206000200180546113b190614017565b80601f01602080910402602001604051908101604052809291908181526020018280546113dd90614017565b801561142a5780601f106113ff5761010080835404028352916020019161142a565b820191906000526020600020905b81548152906001019060200180831161140d57829003601f168201915b505050505081526020019060010190611392565b50505050815260200160038201805461145690614017565b80601f016020809104026020016040519081016040528092919081815260200182805461148290614017565b80156114cf5780601f106114a4576101008083540402835291602001916114cf565b820191906000526020600020905b8154815290600101906020018083116114b257829003601f168201915b505050505081526020016004820180546114e890614017565b80601f016020809104026020016040519081016040528092919081815260200182805461151490614017565b80156115615780601f1061153657610100808354040283529160200191611561565b820191906000526020600020905b81548152906001019060200180831161154457829003601f168201915b505050505081525050908060110160009054906101000a900473ffffffffffffffffffffffffffffffffffffffff1690508a565b6060600260008373ffffffffffffffffffffffffffffffffffffffff1673ffffffffffffffffffffffffffffffffffffffff16815260200190815260200160002080548060200260200160405190810160405280929190818152602001828054801561162057602002820191906000526020600020905b81548152602001906001019080831161160c575b50505050509050919050565b6060600060048054905067ffffffffffffffff81111561164f5761164e613867565b5b60405190808252806020026020018201604052801561168857816020015b611675612c89565b81526020019060019003908161166d5790505b50905060005b6004805490508110156120fe5760016000600483815481106116b3576116b2614048565b5b9060005260206000200154815260200190815260200160002060405180610180016040529081600082015481526020016001820180546116f290614017565b80601f016020809104026020016040519081016040528092919081815260200182805461171e90614017565b801561176b5780601f106117405761010080835404028352916020019161176b565b820191906000526020600020905b81548152906001019060200180831161174e57829003601f168201915b5050505050815260200160028201805461178490614017565b80601f01602080910402602001604051908101604052809291908181526020018280546117b090614017565b80156117fd5780601f106117d2576101008083540402835291602001916117fd565b820191906000526020600020905b8154815290600101906020018083116117e057829003601f168201915b505050505081526020016003820160405180606001604052908160008201805461182690614017565b80601f016020809104026020016040519081016040528092919081815260200182805461185290614017565b801561189f5780601f106118745761010080835404028352916020019161189f565b820191906000526020600020905b81548152906001019060200180831161188257829003601f168201915b505050505081526020016001820180546118b890614017565b80601f01602080910402602001604051908101604052809291908181526020018280546118e490614017565b80156119315780601f1061190657610100808354040283529160200191611931565b820191906000526020600020905b81548152906001019060200180831161191457829003601f168201915b5050505050815260200160028201805461194a90614017565b80601f016020809104026020016040519081016040528092919081815260200182805461197690614017565b80156119c35780601f10611998576101008083540402835291602001916119c3565b820191906000526020600020905b8154815290600101906020018083116119a657829003601f168201915b50505050508152505081526020016006820180546119e090614017565b80601f0160208091040260200160405190810160405280929190818152602001828054611a0c90614017565b8015611a595780601f10611a2e57610100808354040283529160200191611a59565b820191906000526020600020905b815481529060010190602001808311611a3c57829003601f168201915b50505050508152602001600782018054611a7290614017565b80601f0160208091040260200160405190810160405280929190818152602001828054611a9e90614017565b8015611aeb5780601f10611ac057610100808354040283529160200191611aeb565b820191906000526020600020905b815481529060010190602001808311611ace57829003601f168201915b50505050508152602001600882018054611b0490614017565b80601f0160208091040260200160405190810160405280929190818152602001828054611b3090614017565b8015611b7d5780601f10611b5257610100808354040283529160200191611b7d565b820191906000526020600020905b815481529060010190602001808311611b6057829003601f168201915b5050505050815260200160098201805480602002602001604051908101604052809291908181526020016000905b82821015611c57578382906000526020600020018054611bca90614017565b80601f0160208091040260200160405190810160405280929190818152602001828054611bf690614017565b8015611c435780601f10611c1857610100808354040283529160200191611c43565b820191906000526020600020905b815481529060010190602001808311611c2657829003601f168201915b505050505081526020019060010190611bab565b505050508152602001600a8201548152602001600b8201805480602002602001604051908101604052809291908181526020016000905b82821015611d3a578382906000526020600020018054611cad90614017565b80601f0160208091040260200160405190810160405280929190818152602001828054611cd990614017565b8015611d265780601f10611cfb57610100808354040283529160200191611d26565b820191906000526020600020905b815481529060010190602001808311611d0957829003601f168201915b505050505081526020019060010190611c8e565b505050508152602001600c82016040518060a0016040529081600082018054611d6290614017565b80601f0160208091040260200160405190810160405280929190818152602001828054611d8e90614017565b8015611ddb5780601f10611db057610100808354040283529160200191611ddb565b820191906000526020600020905b815481529060010190602001808311611dbe57829003601f168201915b50505050508152602001600182018054611df490614017565b80601f0160208091040260200160405190810160405280929190818152602001828054611e2090614017565b8015611e6d5780601f10611e4257610100808354040283529160200191611e6d565b820191906000526020600020905b815481529060010190602001808311611e5057829003601f168201915b5050505050815260200160028201805480602002602001604051908101604052809291908181526020016000905b82821015611f47578382906000526020600020018054611eba90614017565b80601f0160208091040260200160405190810160405280929190818152602001828054611ee690614017565b8015611f335780601f10611f0857610100808354040283529160200191611f33565b820191906000526020600020905b815481529060010190602001808311611f1657829003601f168201915b505050505081526020019060010190611e9b565b505050508152602001600382018054611f5f90614017565b80601f0160208091040260200160405190810160405280929190818152602001828054611f8b90614017565b8015611fd85780601f10611fad57610100808354040283529160200191611fd8565b820191906000526020600020905b815481529060010190602001808311611fbb57829003601f168201915b50505050508152602001600482018054611ff190614017565b80601f016020809104026020016040519081016040528092919081815260200182805461201d90614017565b801561206a5780601f1061203f5761010080835404028352916020019161206a565b820191906000526020600020905b81548152906001019060200180831161204d57829003601f168201915b50505050508152505081526020016011820160009054906101000a900473ffffffffffffffffffffffffffffffffffffffff1673ffffffffffffffffffffffffffffffffffffffff1673ffffffffffffffffffffffffffffffffffffffff16815250508282815181106120e0576120df614048565b5b602002602001018190525080806120f6906140a6565b91505061168e565b508091505090565b600060048054905082109050919050565b6000600480549050905090565b600060048054905090506040518061018001604052808281526020018c81526020018b81526020018481526020018a81526020018981526020018881526020018781526020018681526020018581526020018381526020013373ffffffffffffffffffffffffffffffffffffffff16815250600160008381526020019081526020016000206000820151816000015560208201518160010190816121c8919061429a565b5060408201518160020190816121de919061429a565b5060608201518160030160008201518160000190816121fd919061429a565b506020820151816001019081612213919061429a565b506040820151816002019081612229919061429a565b5050506080820151816006019081612241919061429a565b5060a0820151816007019081612257919061429a565b5060c082015181600801908161226d919061429a565b5060e082015181600901908051906020019061228a929190612d0c565b5061010082015181600a015561012082015181600b0190805190602001906122b3929190612d0c565b5061014082015181600c0160008201518160000190816122d3919061429a565b5060208201518160010190816122e9919061429a565b506040820151816002019080519060200190612306929190612d0c565b50606082015181600301908161231c919061429a565b506080820151816004019081612332919061429a565b5050506101608201518160110160006101000a81548173ffffffffffffffffffffffffffffffffffffffff021916908373ffffffffffffffffffffffffffffffffffffffff160217905550905050600260003373ffffffffffffffffffffffffffffffffffffffff1673ffffffffffffffffffffffffffffffffffffffff16815260200190815260200160002081908060018154018082558091505060019003906000526020600020016000909190919091505560048190806001815401808255809150506001900390600052602060002001600090919091909150553373ffffffffffffffffffffffffffffffffffffffff16817fe203a10283fe11e231a5ab7086bb699ffc7c05f1604dbc01c95d5e93e658580b8d8a60405161245892919061436c565b60405180910390a35050505050505050505050565b6002602052816000526040600020818154811061248957600080fd5b90600052602060002001600091509150505481565b6124a6612c39565b60048054905081106124ed576040517f08c379a00000000000000000000000000000000000000000000000000000000081526004016124e490613fc8565b60405180910390fd5b600060016000838152602001908152602001600020905080600a015434101561254b576040517f08c379a0000000000000000000000000000000000000000000000000000000008152600401612542906143ef565b60405180910390fd5b8060110160009054906101000a900473ffffffffffffffffffffffffffffffffffffffff1673ffffffffffffffffffffffffffffffffffffffff163373ffffffffffffffffffffffffffffffffffffffff16036125dd576040517f08c379a00000000000000000000000000000000000000000000000000000000081526004016125d490614481565b60405180910390fd5b6003600083815260200190815260200160002060003373ffffffffffffffffffffffffffffffffffffffff1673ffffffffffffffffffffffffffffffffffffffff16815260200190815260200160002060009054906101000a900460ff161561267b576040517f08c379a0000000000000000000000000000000000000000000000000000000008152600401612672906144ed565b60405180910390fd5b60016003600084815260200190815260200160002060003373ffffffffffffffffffffffffffffffffffffffff1673ffffffffffffffffffffffffffffffffffffffff16815260200190815260200160002060006101000a81548160ff02191690831515021790555060008160110160009054906101000a900473ffffffffffffffffffffffffffffffffffffffff1690508073ffffffffffffffffffffffffffffffffffffffff166108fc349081150290604051600060405180830381858888f19350505050158015612753573d6000803e3d6000fd5b503373ffffffffffffffffffffffffffffffffffffffff16837fc56e8aa8e9f4284830fd4657bc77d60640af2ec679f2099faf320ee4202ff4223460405161279b9190613842565b60405180910390a350506127ad612c7f565b50565b60048054905085106127f7576040517f08c379a00000000000000000000000000000000000000000000000000000000081526004016127ee90613fc8565b60405180910390fd5b600073ffffffffffffffffffffffffffffffffffffffff168473ffffffffffffffffffffffffffffffffffffffff1603612866576040517f08c379a000000000000000000000000000000000000000000000000000000000815260040161285d90614559565b60405180910390fd5b6001600086815260200190815260200160002060110160009054906101000a900473ffffffffffffffffffffffffffffffffffffffff1673ffffffffffffffffffffffffffffffffffffffff163373ffffffffffffffffffffffffffffffffffffffff161461290a576040517f08c379a0000000000000000000000000000000000000000000000000000000008152600401612901906145eb565b60405180910390fd5b6000600260003373ffffffffffffffffffffffffffffffffffffffff1673ffffffffffffffffffffffffffffffffffffffff168152602001908152602001600020905060005b8180549050811015612a0e57868282815481106129705761296f614048565b5b9060005260206000200154036129fb578160018380549050612992919061460b565b815481106129a3576129a2614048565b5b90600052602060002001548282815481106129c1576129c0614048565b5b9060005260206000200181905550818054806129e0576129df61463f565b5b60019003818190600052602060002001600090559055612a0e565b8080612a06906140a6565b915050612950565b50600260008673ffffffffffffffffffffffffffffffffffffffff1673ffffffffffffffffffffffffffffffffffffffff168152602001908152602001600020869080600181540180825580915050600190039060005260206000200160009091909190915055846001600088815260200190815260200160002060110160006101000a81548173ffffffffffffffffffffffffffffffffffffffff021916908373ffffffffffffffffffffffffffffffffffffffff160217905550604051806060016040528085815260200184815260200183815250600160008881526020019081526020016000206003016000820151816000019081612b10919061429a565b506020820151816001019081612b26919061429a565b506040820151816002019081612b3c919061429a565b509050508473ffffffffffffffffffffffffffffffffffffffff163373ffffffffffffffffffffffffffffffffffffffff16877f16b85f49bf01212961345d3016c9a531894accf62eb7680f2045d79185cc0ec060405160405180910390a4505050505050565b60006004805490508210612bec576040517f08c379a0000000000000000000000000000000000000000000000000000000008152600401612be390613fc8565b60405180910390fd5b60016000838152602001908152602001600020600a01549050919050565b60036020528160005260406000206020528060005260406000206000915091509054906101000a900460ff1681565b600260005403612c75576040517f3ee5aeb500000000000000000000000000000000000000000000000000000000815260040160405180910390fd5b6002600081905550565b6001600081905550565b604051806101800160405280600081526020016060815260200160608152602001612cb2612d65565b8152602001606081526020016060815260200160608152602001606081526020016000815260200160608152602001612ce9612d86565b8152602001600073ffffffffffffffffffffffffffffffffffffffff1681525090565b828054828255906000526020600020908101928215612d54579160200282015b82811115612d53578251829081612d43919061429a565b5091602001919060010190612d2c565b5b509050612d619190612db5565b5090565b60405180606001604052806060815260200160608152602001606081525090565b6040518060a0016040528060608152602001606081526020016060815260200160608152602001606081525090565b5b80821115612dd55760008181612dcc9190612dd9565b50600101612db6565b5090565b508054612de590614017565b6000825580601f10612df75750612e16565b601f016020900490600052602060002090810190612e159190612e19565b5b50565b5b80821115612e32576000816000905550600101612e1a565b5090565b6000604051905090565b600080fd5b600080fd5b6000819050919050565b612e5d81612e4a565b8114612e6857600080fd5b50565b600081359050612e7a81612e54565b92915050565b600060208284031215612e9657612e95612e40565b5b6000612ea484828501612e6b565b91505092915050565b612eb681612e4a565b82525050565b600081519050919050565b600082825260208201905092915050565b60005b83811015612ef6578082015181840152602081019050612edb565b60008484015250505050565b6000601f19601f8301169050919050565b6000612f1e82612ebc565b612f288185612ec7565b9350612f38818560208601612ed8565b612f4181612f02565b840191505092915050565b60006060830160008301518482036000860152612f698282612f13565b91505060208301518482036020860152612f838282612f13565b91505060408301518482036040860152612f9d8282612f13565b9150508091505092915050565b600081519050919050565b600082825260208201905092915050565b6000819050602082019050919050565b6000612fe28383612f13565b905092915050565b6000602082019050919050565b600061300282612faa565b61300c8185612fb5565b93508360208202850161301e85612fc6565b8060005b8581101561305a578484038952815161303b8582612fd6565b945061304683612fea565b925060208a01995050600181019050613022565b50829750879550505050505092915050565b600060a08301600083015184820360008601526130898282612f13565b915050602083015184820360208601526130a38282612f13565b915050604083015184820360408601526130bd8282612ff7565b915050606083015184820360608601526130d78282612f13565b915050608083015184820360808601526130f18282612f13565b9150508091505092915050565b600073ffffffffffffffffffffffffffffffffffffffff82169050919050565b6000613129826130fe565b9050919050565b6131398161311e565b82525050565b6000610180830160008301516131586000860182612ead565b50602083015184820360208601526131708282612f13565b9150506040830151848203604086015261318a8282612f13565b915050606083015184820360608601526131a48282612f4c565b915050608083015184820360808601526131be8282612f13565b91505060a083015184820360a08601526131d88282612f13565b91505060c083015184820360c08601526131f28282612f13565b91505060e083015184820360e086015261320c8282612ff7565b915050610100830151613223610100860182612ead565b5061012083015184820361012086015261323d8282612ff7565b915050610140830151848203610140860152613259828261306c565b915050610160830151613270610160860182613130565b508091505092915050565b60006020820190508181036000830152613295818461313f565b905092915050565b6132a681612e4a565b82525050565b600082825260208201905092915050565b60006132c882612ebc565b6132d281856132ac565b93506132e2818560208601612ed8565b6132eb81612f02565b840191505092915050565b600060608301600083015184820360008601526133138282612f13565b9150506020830151848203602086015261332d8282612f13565b915050604083015184820360408601526133478282612f13565b9150508091505092915050565b600060a08301600083015184820360008601526133718282612f13565b9150506020830151848203602086015261338b8282612f13565b915050604083015184820360408601526133a58282612ff7565b915050606083015184820360608601526133bf8282612f13565b915050608083015184820360808601526133d98282612f13565b9150508091505092915050565b6133ef8161311e565b82525050565b60006101408201905061340b600083018d61329d565b818103602083015261341d818c6132bd565b90508181036040830152613431818b6132bd565b90508181036060830152613445818a6132f6565b9050818103608083015261345981896132bd565b905081810360a083015261346d81886132bd565b905081810360c083015261348181876132bd565b905061349060e083018661329d565b8181036101008301526134a38185613354565b90506134b36101208301846133e6565b9b9a5050505050505050505050565b6134cb8161311e565b81146134d657600080fd5b50565b6000813590506134e8816134c2565b92915050565b60006020828403121561350457613503612e40565b5b6000613512848285016134d9565b91505092915050565b600081519050919050565b600082825260208201905092915050565b6000819050602082019050919050565b60006135538383612ead565b60208301905092915050565b6000602082019050919050565b60006135778261351b565b6135818185613526565b935061358c83613537565b8060005b838110156135bd5781516135a48882613547565b97506135af8361355f565b925050600181019050613590565b5085935050505092915050565b600060208201905081810360008301526135e4818461356c565b905092915050565b600081519050919050565b600082825260208201905092915050565b6000819050602082019050919050565b6000610180830160008301516136316000860182612ead565b50602083015184820360208601526136498282612f13565b915050604083015184820360408601526136638282612f13565b9150506060830151848203606086015261367d8282612f4c565b915050608083015184820360808601526136978282612f13565b91505060a083015184820360a08601526136b18282612f13565b91505060c083015184820360c08601526136cb8282612f13565b91505060e083015184820360e08601526136e58282612ff7565b9150506101008301516136fc610100860182612ead565b506101208301518482036101208601526137168282612ff7565b915050610140830151848203610140860152613732828261306c565b915050610160830151613749610160860182613130565b508091505092915050565b60006137608383613618565b905092915050565b6000602082019050919050565b6000613780826135ec565b61378a81856135f7565b93508360208202850161379c85613608565b8060005b858110156137d857848403895281516137b98582613754565b94506137c483613768565b925060208a019950506001810190506137a0565b50829750879550505050505092915050565b600060208201905081810360008301526138048184613775565b905092915050565b60008115159050919050565b6138218161380c565b82525050565b600060208201905061383c6000830184613818565b92915050565b6000602082019050613857600083018461329d565b92915050565b600080fd5b600080fd5b7f4e487b7100000000000000000000000000000000000000000000000000000000600052604160045260246000fd5b61389f82612f02565b810181811067ffffffffffffffff821117156138be576138bd613867565b5b80604052505050565b60006138d1612e36565b90506138dd8282613896565b919050565b600067ffffffffffffffff8211156138fd576138fc613867565b5b61390682612f02565b9050602081019050919050565b82818337600083830152505050565b6000613935613930846138e2565b6138c7565b90508281526020810184848401111561395157613950613862565b5b61395c848285613913565b509392505050565b600082601f8301126139795761397861385d565b5b8135613989848260208601613922565b91505092915050565b600067ffffffffffffffff8211156139ad576139ac613867565b5b602082029050602081019050919050565b600080fd5b60006139d66139d184613992565b6138c7565b905080838252602082019050602084028301858111156139f9576139f86139be565b5b835b81811015613a4057803567ffffffffffffffff811115613a1e57613a1d61385d565b5b808601613a2b8982613964565b855260208501945050506020810190506139fb565b5050509392505050565b600082601f830112613a5f57613a5e61385d565b5b8135613a6f8482602086016139c3565b91505092915050565b600080fd5b600080fd5b600060608284031215613a9857613a97613a78565b5b613aa260606138c7565b9050600082013567ffffffffffffffff811115613ac257613ac1613a7d565b5b613ace84828501613964565b600083015250602082013567ffffffffffffffff811115613af257613af1613a7d565b5b613afe84828501613964565b602083015250604082013567ffffffffffffffff811115613b2257613b21613a7d565b5b613b2e84828501613964565b60408301525092915050565b600060a08284031215613b5057613b4f613a78565b5b613b5a60a06138c7565b9050600082013567ffffffffffffffff811115613b7a57613b79613a7d565b5b613b8684828501613964565b600083015250602082013567ffffffffffffffff811115613baa57613ba9613a7d565b5b613bb684828501613964565b602083015250604082013567ffffffffffffffff811115613bda57613bd9613a7d565b5b613be684828501613a4a565b604083015250606082013567ffffffffffffffff811115613c0a57613c09613a7d565b5b613c1684828501613964565b606083015250608082013567ffffffffffffffff811115613c3a57613c39613a7d565b5b613c4684828501613964565b60808301525092915050565b6000806000806000806000806000806101408b8d031215613c7657613c75612e40565b5b60008b013567ffffffffffffffff811115613c9457613c93612e45565b5b613ca08d828e01613964565b9a505060208b013567ffffffffffffffff811115613cc157613cc0612e45565b5b613ccd8d828e01613964565b99505060408b013567ffffffffffffffff811115613cee57613ced612e45565b5b613cfa8d828e01613964565b98505060608b013567ffffffffffffffff811115613d1b57613d1a612e45565b5b613d278d828e01613964565b97505060808b013567ffffffffffffffff811115613d4857613d47612e45565b5b613d548d828e01613964565b96505060a08b013567ffffffffffffffff811115613d7557613d74612e45565b5b613d818d828e01613a4a565b95505060c0613d928d828e01612e6b565b94505060e08b013567ffffffffffffffff811115613db357613db2612e45565b5b613dbf8d828e01613a4a565b9350506101008b013567ffffffffffffffff811115613de157613de0612e45565b5b613ded8d828e01613a82565b9250506101208b013567ffffffffffffffff811115613e0f57613e0e612e45565b5b613e1b8d828e01613b3a565b9150509295989b9194979a5092959850565b60008060408385031215613e4457613e43612e40565b5b6000613e52858286016134d9565b9250506020613e6385828601612e6b565b9150509250929050565b600080600080600060a08688031215613e8957613e88612e40565b5b6000613e9788828901612e6b565b9550506020613ea8888289016134d9565b945050604086013567ffffffffffffffff811115613ec957613ec8612e45565b5b613ed588828901613964565b935050606086013567ffffffffffffffff811115613ef657613ef5612e45565b5b613f0288828901613964565b925050608086013567ffffffffffffffff811115613f2357613f22612e45565b5b613f2f88828901613964565b9150509295509295909350565b60008060408385031215613f5357613f52612e40565b5b6000613f6185828601612e6b565b9250506020613f72858286016134d9565b9150509250929050565b7f495020646f6573206e6f74206578697374000000000000000000000000000000600082015250565b6000613fb26011836132ac565b9150613fbd82613f7c565b602082019050919050565b60006020820190508181036000830152613fe181613fa5565b9050919050565b7f4e487b7100000000000000000000000000000000000000000000000000000000600052602260045260246000fd5b6000600282049050600182168061402f57607f821691505b60208210810361404257614041613fe8565b5b50919050565b7f4e487b7100000000000000000000000000000000000000000000000000000000600052603260045260246000fd5b7f4e487b7100000000000000000000000000000000000000000000000000000000600052601160045260246000fd5b60006140b182612e4a565b91507fffffffffffffffffffffffffffffffffffffffffffffffffffffffffffffffff82036140e3576140e2614077565b5b600182019050919050565b60008190508160005260206000209050919050565b60006020601f8301049050919050565b600082821b905092915050565b6000600883026141507fffffffffffffffffffffffffffffffffffffffffffffffffffffffffffffffff82614113565b61415a8683614113565b95508019841693508086168417925050509392505050565b6000819050919050565b600061419761419261418d84612e4a565b614172565b612e4a565b9050919050565b6000819050919050565b6141b18361417c565b6141c56141bd8261419e565b848454614120565b825550505050565b600090565b6141da6141cd565b6141e58184846141a8565b505050565b5b81811015614209576141fe6000826141d2565b6001810190506141eb565b5050565b601f82111561424e5761421f816140ee565b61422884614103565b81016020851015614237578190505b61424b61424385614103565b8301826141ea565b50505b505050565b600082821c905092915050565b600061427160001984600802614253565b1980831691505092915050565b600061428a8383614260565b9150826002028217905092915050565b6142a382612ebc565b67ffffffffffffffff8111156142bc576142bb613867565b5b6142c68254614017565b6142d182828561420d565b600060209050601f83116001811461430457600084156142f2578287015190505b6142fc858261427e565b865550614364565b601f198416614312866140ee565b60005b8281101561433a57848901518255600182019150602085019450602081019050614315565b868310156143575784890151614353601f891682614260565b8355505b6001600288020188555050505b505050505050565b6000604082019050818103600083015261438681856132bd565b9050818103602083015261439a81846132bd565b90509392505050565b7f496e73756666696369656e74207061796d656e74000000000000000000000000600082015250565b60006143d96014836132ac565b91506143e4826143a3565b602082019050919050565b60006020820190508181036000830152614408816143cc565b9050919050565b7f4f776e65722063616e6e6f74206c6963656e7365207468656972206f776e204960008201527f5000000000000000000000000000000000000000000000000000000000000000602082015250565b600061446b6021836132ac565b91506144768261440f565b604082019050919050565b6000602082019050818103600083015261449a8161445e565b9050919050565b7f416c726561647920686173206163636573730000000000000000000000000000600082015250565b60006144d76012836132ac565b91506144e2826144a1565b602082019050919050565b60006020820190508181036000830152614506816144ca565b9050919050565b7f496e76616c6964206e6577206f776e6572000000000000000000000000000000600082015250565b60006145436011836132ac565b915061454e8261450d565b602082019050919050565b6000602082019050818103600083015261457281614536565b9050919050565b7f4f6e6c79207468652063757272656e74206f776e65722063616e207472616e7360008201527f666572206f776e65727368697000000000000000000000000000000000000000602082015250565b60006145d5602d836132ac565b91506145e082614579565b604082019050919050565b60006020820190508181036000830152614604816145c8565b9050919050565b600061461682612e4a565b915061462183612e4a565b925082820390508181111561463957614638614077565b5b92915050565b7f4e487b7100000000000000000000000000000000000000000000000000000000600052603160045260246000fdfea264697066735822122062ab05de5b7112b5e221af229934ae3ae245300d7e531c014e4c62d6c4a6870964736f6c63430008140033",
  "linkReferences": {},
  "deployedLinkReferences": {}
}