{
  "_format": "hh-sol-artifact-1",
  "contractName": "IPregistry",
  "sourceName": "contracts/IPregistry.sol",
  "abi": [
    {
      "anonymous": false,
      "inputs": [
        {
          "indexed": false,
          "internalType": "uint256",
          "name": "id",
          "type": "uint256"
        },
        {
          "indexed": false,
          "internalType": "string",
          "name": "name",
          "type": "string"
        },
        {
          "indexed": false,
          "internalType": "address",
          "name": "owner",
          "type": "address"
        },
        {
          "indexed": false,
          "internalType": "uint256",
          "name": "creationDate",
          "type": "uint256"
        }
      ],
      "name": "IPRegistered",
      "type": "event"
    },
    {
      "anonymous": false,
      "inputs": [
        {
          "indexed": false,
          "internalType": "uint256",
          "name": "id",
          "type": "uint256"
        },
        {
          "indexed": false,
          "internalType": "address",
          "name": "from",
          "type": "address"
        },
        {
          "indexed": false,
          "internalType": "address",
          "name": "to",
          "type": "address"
        }
      ],
      "name": "OwnershipTransferred",
      "type": "event"
    },
    {
      "inputs": [
        {
          "internalType": "uint256",
          "name": "id",
          "type": "uint256"
        }
      ],
      "name": "getIPDetails",
      "outputs": [
        {
          "components": [
            {
              "internalType": "uint256",
              "name": "id",
              "type": "uint256"
            },
            {
              "internalType": "string",
              "name": "name",
              "type": "string"
            },
            {
              "internalType": "string",
              "name": "description",
              "type": "string"
            },
            {
              "internalType": "address",
              "name": "owner",
              "type": "address"
            },
            {
              "internalType": "uint256",
              "name": "creationDate",
              "type": "uint256"
            }
          ],
          "internalType": "struct IPregistry.IntellectualProperty",
          "name": "",
          "type": "tuple"
        }
      ],
      "stateMutability": "view",
      "type": "function"
    },
    {
      "inputs": [
        {
          "internalType": "address",
          "name": "owner",
          "type": "address"
        }
      ],
      "name": "getIPsByOwner",
      "outputs": [
        {
          "internalType": "uint256[]",
          "name": "",
          "type": "uint256[]"
        }
      ],
      "stateMutability": "view",
      "type": "function"
    },
    {
      "inputs": [],
      "name": "getTotalIPs",
      "outputs": [
        {
          "internalType": "uint256",
          "name": "",
          "type": "uint256"
        }
      ],
      "stateMutability": "view",
      "type": "function"
    },
    {
      "inputs": [
        {
          "internalType": "uint256",
          "name": "",
          "type": "uint256"
        }
      ],
      "name": "ips",
      "outputs": [
        {
          "internalType": "uint256",
          "name": "id",
          "type": "uint256"
        },
        {
          "internalType": "string",
          "name": "name",
          "type": "string"
        },
        {
          "internalType": "string",
          "name": "description",
          "type": "string"
        },
        {
          "internalType": "address",
          "name": "owner",
          "type": "address"
        },
        {
          "internalType": "uint256",
          "name": "creationDate",
          "type": "uint256"
        }
      ],
      "stateMutability": "view",
      "type": "function"
    },
    {
      "inputs": [
        {
          "internalType": "uint256",
          "name": "id",
          "type": "uint256"
        }
      ],
      "name": "isRegistered",
      "outputs": [
        {
          "internalType": "bool",
          "name": "",
          "type": "bool"
        }
      ],
      "stateMutability": "view",
      "type": "function"
    },
    {
      "inputs": [],
      "name": "nextId",
      "outputs": [
        {
          "internalType": "uint256",
          "name": "",
          "type": "uint256"
        }
      ],
      "stateMutability": "view",
      "type": "function"
    },
    {
      "inputs": [
        {
          "internalType": "address",
          "name": "",
          "type": "address"
        },
        {
          "internalType": "uint256",
          "name": "",
          "type": "uint256"
        }
      ],
      "name": "ownerToIPs",
      "outputs": [
        {
          "internalType": "uint256",
          "name": "",
          "type": "uint256"
        }
      ],
      "stateMutability": "view",
      "type": "function"
    },
    {
      "inputs": [
        {
          "internalType": "string",
          "name": "name",
          "type": "string"
        },
        {
          "internalType": "string",
          "name": "description",
          "type": "string"
        }
      ],
      "name": "registerIP",
      "outputs": [],
      "stateMutability": "nonpayable",
      "type": "function"
    },
    {
      "inputs": [
        {
          "internalType": "uint256",
          "name": "id",
          "type": "uint256"
        },
        {
          "internalType": "address",
          "name": "newOwner",
          "type": "address"
        }
      ],
      "name": "transferOwnership",
      "outputs": [],
      "stateMutability": "nonpayable",
      "type": "function"
    }
  ],
  "bytecode": "0x60806040526000805534801561001457600080fd5b50611541806100246000396000f3fe608060405234801561001057600080fd5b50600436106100935760003560e01c806329ccb4931161006657806329ccb49314610148578063579a69881461016457806357dd97771461019457806361b8ce8c146101b2578063623f3544146101d057610093565b806312fb7812146100985780631feb4bfb146100c857806323a050c1146100f857806329507f731461012c575b600080fd5b6100b260048036038101906100ad9190610d3b565b610200565b6040516100bf91906110a1565b60405180910390f35b6100e260048036038101906100dd9190610e0c565b610297565b6040516100ef919061111e565b60405180910390f35b610112600480360381019061010d9190610e0c565b610452565b6040516101239594939291906111de565b60405180910390f35b61014660048036038101906101419190610e35565b6105b8565b005b610162600480360381019061015d9190610da0565b610965565b005b61017e60048036038101906101799190610e0c565b610b12565b60405161018b91906110c3565b60405180910390f35b61019c610b81565b6040516101a99190611140565b60405180910390f35b6101ba610b8a565b6040516101c79190611140565b60405180910390f35b6101ea60048036038101906101e59190610d64565b610b90565b6040516101f79190611140565b60405180910390f35b6060600260008373ffffffffffffffffffffffffffffffffffffffff1673ffffffffffffffffffffffffffffffffffffffff16815260200190815260200160002080548060200260200160405190810160405280929190818152602001828054801561028b57602002820191906000526020600020905b815481526020019060010190808311610277575b50505050509050919050565b61029f610bc1565b600160008381526020019081526020016000206040518060a0016040529081600082015481526020016001820180546102d7906113c4565b80601f0160208091040260200160405190810160405280929190818152602001828054610303906113c4565b80156103505780601f1061032557610100808354040283529160200191610350565b820191906000526020600020905b81548152906001019060200180831161033357829003601f168201915b50505050508152602001600282018054610369906113c4565b80601f0160208091040260200160405190810160405280929190818152602001828054610395906113c4565b80156103e25780601f106103b7576101008083540402835291602001916103e2565b820191906000526020600020905b8154815290600101906020018083116103c557829003601f168201915b505050505081526020016003820160009054906101000a900473ffffffffffffffffffffffffffffffffffffffff1673ffffffffffffffffffffffffffffffffffffffff1673ffffffffffffffffffffffffffffffffffffffff1681526020016004820154815250509050919050565b600160205280600052604060002060009150905080600001549080600101805461047b906113c4565b80601f01602080910402602001604051908101604052809291908181526020018280546104a7906113c4565b80156104f45780601f106104c9576101008083540402835291602001916104f4565b820191906000526020600020905b8154815290600101906020018083116104d757829003601f168201915b505050505090806002018054610509906113c4565b80601f0160208091040260200160405190810160405280929190818152602001828054610535906113c4565b80156105825780601f1061055757610100808354040283529160200191610582565b820191906000526020600020905b81548152906001019060200180831161056557829003601f168201915b5050505050908060030160009054906101000a900473ffffffffffffffffffffffffffffffffffffffff16908060040154905085565b3373ffffffffffffffffffffffffffffffffffffffff166001600084815260200190815260200160002060030160009054906101000a900473ffffffffffffffffffffffffffffffffffffffff1673ffffffffffffffffffffffffffffffffffffffff161461065c576040517f08c379a0000000000000000000000000000000000000000000000000000000008152600401610653906110de565b60405180910390fd5b600073ffffffffffffffffffffffffffffffffffffffff168173ffffffffffffffffffffffffffffffffffffffff1614156106cc576040517f08c379a00000000000000000000000000000000000000000000000000000000081526004016106c3906110fe565b60405180910390fd5b6000600260003373ffffffffffffffffffffffffffffffffffffffff1673ffffffffffffffffffffffffffffffffffffffff168152602001908152602001600020905060005b81805490508110156108695783828281548110610758577f4e487b7100000000000000000000000000000000000000000000000000000000600052603260045260246000fd5b9060005260206000200154141561085657816001838054905061077b9190611306565b815481106107b2577f4e487b7100000000000000000000000000000000000000000000000000000000600052603260045260246000fd5b90600052602060002001548282815481106107f6577f4e487b7100000000000000000000000000000000000000000000000000000000600052603260045260246000fd5b90600052602060002001819055508180548061083b577f4e487b7100000000000000000000000000000000000000000000000000000000600052603160045260246000fd5b60019003818190600052602060002001600090559055610869565b8080610861906113f6565b915050610712565b50816001600085815260200190815260200160002060030160006101000a81548173ffffffffffffffffffffffffffffffffffffffff021916908373ffffffffffffffffffffffffffffffffffffffff160217905550600260008373ffffffffffffffffffffffffffffffffffffffff1673ffffffffffffffffffffffffffffffffffffffff1681526020019081526020016000208390806001815401808255809150506001900390600052602060002001600090919091909150557f16b85f49bf01212961345d3016c9a531894accf62eb7680f2045d79185cc0ec08333846040516109589392919061115b565b60405180910390a1505050565b6000805490506040518060a001604052808281526020018481526020018381526020013373ffffffffffffffffffffffffffffffffffffffff16815260200142815250600160008381526020019081526020016000206000820151816000015560208201518160010190805190602001906109e1929190610c06565b5060408201518160020190805190602001906109fe929190610c06565b5060608201518160030160006101000a81548173ffffffffffffffffffffffffffffffffffffffff021916908373ffffffffffffffffffffffffffffffffffffffff16021790555060808201518160040155905050600260003373ffffffffffffffffffffffffffffffffffffffff1673ffffffffffffffffffffffffffffffffffffffff1681526020019081526020016000208190806001815401808255809150506001900390600052602060002001600090919091909150557fda69f48a0364155e654488daeed985a6c6873705a2b4e6b62e08aac1fbba97b481843342604051610aee9493929190611192565b60405180910390a1600080815480929190610b08906113f6565b9190505550505050565b60008073ffffffffffffffffffffffffffffffffffffffff166001600084815260200190815260200160002060030160009054906101000a900473ffffffffffffffffffffffffffffffffffffffff1673ffffffffffffffffffffffffffffffffffffffff1614159050919050565b60008054905090565b60005481565b60026020528160005260406000208181548110610bac57600080fd5b90600052602060002001600091509150505481565b6040518060a00160405280600081526020016060815260200160608152602001600073ffffffffffffffffffffffffffffffffffffffff168152602001600081525090565b828054610c12906113c4565b90600052602060002090601f016020900481019282610c345760008555610c7b565b82601f10610c4d57805160ff1916838001178555610c7b565b82800160010185558215610c7b579182015b82811115610c7a578251825591602001919060010190610c5f565b5b509050610c889190610c8c565b5090565b5b80821115610ca5576000816000905550600101610c8d565b5090565b6000610cbc610cb784611270565b61123f565b905082815260208101848484011115610cd457600080fd5b610cdf848285611382565b509392505050565b600081359050610cf6816114dd565b92915050565b600082601f830112610d0d57600080fd5b8135610d1d848260208601610ca9565b91505092915050565b600081359050610d35816114f4565b92915050565b600060208284031215610d4d57600080fd5b6000610d5b84828501610ce7565b91505092915050565b60008060408385031215610d7757600080fd5b6000610d8585828601610ce7565b9250506020610d9685828601610d26565b9150509250929050565b60008060408385031215610db357600080fd5b600083013567ffffffffffffffff811115610dcd57600080fd5b610dd985828601610cfc565b925050602083013567ffffffffffffffff811115610df657600080fd5b610e0285828601610cfc565b9150509250929050565b600060208284031215610e1e57600080fd5b6000610e2c84828501610d26565b91505092915050565b60008060408385031215610e4857600080fd5b6000610e5685828601610d26565b9250506020610e6785828601610ce7565b9150509250929050565b6000610e7d8383611083565b60208301905092915050565b610e928161133a565b82525050565b610ea18161133a565b82525050565b6000610eb2826112b0565b610ebc81856112d3565b9350610ec7836112a0565b8060005b83811015610ef8578151610edf8882610e71565b9750610eea836112c6565b925050600181019050610ecb565b5085935050505092915050565b610f0e8161134c565b82525050565b6000610f1f826112bb565b610f2981856112e4565b9350610f39818560208601611391565b610f42816114cc565b840191505092915050565b6000610f58826112bb565b610f6281856112f5565b9350610f72818560208601611391565b610f7b816114cc565b840191505092915050565b6000610f93600d836112f5565b91507f4e6f7420746865206f776e6572000000000000000000000000000000000000006000830152602082019050919050565b6000610fd36011836112f5565b91507f496e76616c6964206e6577206f776e65720000000000000000000000000000006000830152602082019050919050565b600060a08301600083015161101e6000860182611083565b50602083015184820360208601526110368282610f14565b915050604083015184820360408601526110508282610f14565b91505060608301516110656060860182610e89565b5060808301516110786080860182611083565b508091505092915050565b61108c81611378565b82525050565b61109b81611378565b82525050565b600060208201905081810360008301526110bb8184610ea7565b905092915050565b60006020820190506110d86000830184610f05565b92915050565b600060208201905081810360008301526110f781610f86565b9050919050565b6000602082019050818103600083015261111781610fc6565b9050919050565b600060208201905081810360008301526111388184611006565b905092915050565b60006020820190506111556000830184611092565b92915050565b60006060820190506111706000830186611092565b61117d6020830185610e98565b61118a6040830184610e98565b949350505050565b60006080820190506111a76000830187611092565b81810360208301526111b98186610f4d565b90506111c86040830185610e98565b6111d56060830184611092565b95945050505050565b600060a0820190506111f36000830188611092565b81810360208301526112058187610f4d565b905081810360408301526112198186610f4d565b90506112286060830185610e98565b6112356080830184611092565b9695505050505050565b6000604051905081810181811067ffffffffffffffff821117156112665761126561149d565b5b8060405250919050565b600067ffffffffffffffff82111561128b5761128a61149d565b5b601f19601f8301169050602081019050919050565b6000819050602082019050919050565b600081519050919050565b600081519050919050565b6000602082019050919050565b600082825260208201905092915050565b600082825260208201905092915050565b600082825260208201905092915050565b600061131182611378565b915061131c83611378565b92508282101561132f5761132e61143f565b5b828203905092915050565b600061134582611358565b9050919050565b60008115159050919050565b600073ffffffffffffffffffffffffffffffffffffffff82169050919050565b6000819050919050565b82818337600083830152505050565b60005b838110156113af578082015181840152602081019050611394565b838111156113be576000848401525b50505050565b600060028204905060018216806113dc57607f821691505b602082108114156113f0576113ef61146e565b5b50919050565b600061140182611378565b91507fffffffffffffffffffffffffffffffffffffffffffffffffffffffffffffffff8214156114345761143361143f565b5b600182019050919050565b7f4e487b7100000000000000000000000000000000000000000000000000000000600052601160045260246000fd5b7f4e487b7100000000000000000000000000000000000000000000000000000000600052602260045260246000fd5b7f4e487b7100000000000000000000000000000000000000000000000000000000600052604160045260246000fd5b6000601f19601f8301169050919050565b6114e68161133a565b81146114f157600080fd5b50565b6114fd81611378565b811461150857600080fd5b5056fea2646970667358221220968ec6448da2f1a675fa7be52e9b82457f80b1f0fb6f68250bb3ae797647459f64736f6c63430008000033",
  "linkReferences": {},
  "deployedLinkReferences": {}
}