{
  "_format": "hh-sol-artifact-1",
  "contractName": "IPregistry",
  "sourceName": "contracts/IPregistry.sol",
  "abi": [
    {
      "anonymous": false,
      "inputs": [
        {
          "indexed": true,
          "internalType": "uint256",
          "name": "index",
          "type": "uint256"
        },
        {
          "indexed": false,
          "internalType": "string",
          "name": "name",
          "type": "string"
        },
        {
          "indexed": true,
          "internalType": "address",
          "name": "owner",
          "type": "address"
        },
        {
          "indexed": false,
          "internalType": "string",
          "name": "dateOfRegistration",
          "type": "string"
        }
      ],
      "name": "IPRegistered",
      "type": "event"
    },
    {
      "anonymous": false,
      "inputs": [
        {
          "indexed": true,
          "internalType": "uint256",
          "name": "index",
          "type": "uint256"
        },
        {
          "indexed": true,
          "internalType": "address",
          "name": "from",
          "type": "address"
        },
        {
          "indexed": true,
          "internalType": "address",
          "name": "to",
          "type": "address"
        }
      ],
      "name": "OwnershipTransferred",
      "type": "event"
    },
    {
      "inputs": [],
      "name": "getAllRegisteredIPs",
      "outputs": [
        {
          "components": [
            {
              "internalType": "uint256",
              "name": "index",
              "type": "uint256"
            },
            {
              "internalType": "string",
              "name": "name",
              "type": "string"
            },
            {
              "internalType": "string",
              "name": "description",
              "type": "string"
            },
            {
              "components": [
                {
                  "internalType": "string",
                  "name": "name",
                  "type": "string"
                },
                {
                  "internalType": "string",
                  "name": "email",
                  "type": "string"
                },
                {
                  "internalType": "string",
                  "name": "physicalAddress",
                  "type": "string"
                }
              ],
              "internalType": "struct IPregistry.OwnerDetails",
              "name": "owner",
              "type": "tuple"
            },
            {
              "internalType": "string",
              "name": "ipType",
              "type": "string"
            },
            {
              "internalType": "string",
              "name": "dateOfCreation",
              "type": "string"
            },
            {
              "internalType": "string",
              "name": "dateOfRegistration",
              "type": "string"
            },
            {
              "internalType": "string[]",
              "name": "license",
              "type": "string[]"
            },
            {
              "internalType": "string[]",
              "name": "tags",
              "type": "string[]"
            },
            {
              "components": [
                {
                  "internalType": "string",
                  "name": "workType",
                  "type": "string"
                },
                {
                  "internalType": "string",
                  "name": "classOfGoods",
                  "type": "string"
                },
                {
                  "internalType": "string[]",
                  "name": "inventors",
                  "type": "string[]"
                },
                {
                  "internalType": "string",
                  "name": "domainName",
                  "type": "string"
                },
                {
                  "internalType": "string",
                  "name": "publicationDate",
                  "type": "string"
                }
              ],
              "internalType": "struct IPregistry.OptionalFields",
              "name": "optionalFields",
              "type": "tuple"
            }
          ],
          "internalType": "struct IPregistry.IntellectualProperty[]",
          "name": "",
          "type": "tuple[]"
        }
      ],
      "stateMutability": "view",
      "type": "function"
    },
    {
      "inputs": [
        {
          "internalType": "uint256",
          "name": "index",
          "type": "uint256"
        }
      ],
      "name": "getIPDetails",
      "outputs": [
        {
          "components": [
            {
              "internalType": "uint256",
              "name": "index",
              "type": "uint256"
            },
            {
              "internalType": "string",
              "name": "name",
              "type": "string"
            },
            {
              "internalType": "string",
              "name": "description",
              "type": "string"
            },
            {
              "components": [
                {
                  "internalType": "string",
                  "name": "name",
                  "type": "string"
                },
                {
                  "internalType": "string",
                  "name": "email",
                  "type": "string"
                },
                {
                  "internalType": "string",
                  "name": "physicalAddress",
                  "type": "string"
                }
              ],
              "internalType": "struct IPregistry.OwnerDetails",
              "name": "owner",
              "type": "tuple"
            },
            {
              "internalType": "string",
              "name": "ipType",
              "type": "string"
            },
            {
              "internalType": "string",
              "name": "dateOfCreation",
              "type": "string"
            },
            {
              "internalType": "string",
              "name": "dateOfRegistration",
              "type": "string"
            },
            {
              "internalType": "string[]",
              "name": "license",
              "type": "string[]"
            },
            {
              "internalType": "string[]",
              "name": "tags",
              "type": "string[]"
            },
            {
              "components": [
                {
                  "internalType": "string",
                  "name": "workType",
                  "type": "string"
                },
                {
                  "internalType": "string",
                  "name": "classOfGoods",
                  "type": "string"
                },
                {
                  "internalType": "string[]",
                  "name": "inventors",
                  "type": "string[]"
                },
                {
                  "internalType": "string",
                  "name": "domainName",
                  "type": "string"
                },
                {
                  "internalType": "string",
                  "name": "publicationDate",
                  "type": "string"
                }
              ],
              "internalType": "struct IPregistry.OptionalFields",
              "name": "optionalFields",
              "type": "tuple"
            }
          ],
          "internalType": "struct IPregistry.IntellectualProperty",
          "name": "",
          "type": "tuple"
        }
      ],
      "stateMutability": "view",
      "type": "function"
    },
    {
      "inputs": [
        {
          "internalType": "address",
          "name": "owner",
          "type": "address"
        }
      ],
      "name": "getOwnerIPs",
      "outputs": [
        {
          "internalType": "uint256[]",
          "name": "",
          "type": "uint256[]"
        }
      ],
      "stateMutability": "view",
      "type": "function"
    },
    {
      "inputs": [],
      "name": "getTotalIPs",
      "outputs": [
        {
          "internalType": "uint256",
          "name": "",
          "type": "uint256"
        }
      ],
      "stateMutability": "view",
      "type": "function"
    },
    {
      "inputs": [
        {
          "internalType": "uint256",
          "name": "",
          "type": "uint256"
        }
      ],
      "name": "ips",
      "outputs": [
        {
          "internalType": "uint256",
          "name": "index",
          "type": "uint256"
        },
        {
          "internalType": "string",
          "name": "name",
          "type": "string"
        },
        {
          "internalType": "string",
          "name": "description",
          "type": "string"
        },
        {
          "components": [
            {
              "internalType": "string",
              "name": "name",
              "type": "string"
            },
            {
              "internalType": "string",
              "name": "email",
              "type": "string"
            },
            {
              "internalType": "string",
              "name": "physicalAddress",
              "type": "string"
            }
          ],
          "internalType": "struct IPregistry.OwnerDetails",
          "name": "owner",
          "type": "tuple"
        },
        {
          "internalType": "string",
          "name": "ipType",
          "type": "string"
        },
        {
          "internalType": "string",
          "name": "dateOfCreation",
          "type": "string"
        },
        {
          "internalType": "string",
          "name": "dateOfRegistration",
          "type": "string"
        },
        {
          "components": [
            {
              "internalType": "string",
              "name": "workType",
              "type": "string"
            },
            {
              "internalType": "string",
              "name": "classOfGoods",
              "type": "string"
            },
            {
              "internalType": "string[]",
              "name": "inventors",
              "type": "string[]"
            },
            {
              "internalType": "string",
              "name": "domainName",
              "type": "string"
            },
            {
              "internalType": "string",
              "name": "publicationDate",
              "type": "string"
            }
          ],
          "internalType": "struct IPregistry.OptionalFields",
          "name": "optionalFields",
          "type": "tuple"
        }
      ],
      "stateMutability": "view",
      "type": "function"
    },
    {
      "inputs": [
        {
          "internalType": "uint256",
          "name": "index",
          "type": "uint256"
        }
      ],
      "name": "isRegistered",
      "outputs": [
        {
          "internalType": "bool",
          "name": "",
          "type": "bool"
        }
      ],
      "stateMutability": "view",
      "type": "function"
    },
    {
      "inputs": [
        {
          "internalType": "address",
          "name": "",
          "type": "address"
        },
        {
          "internalType": "uint256",
          "name": "",
          "type": "uint256"
        }
      ],
      "name": "ownerToIPs",
      "outputs": [
        {
          "internalType": "uint256",
          "name": "",
          "type": "uint256"
        }
      ],
      "stateMutability": "view",
      "type": "function"
    },
    {
      "inputs": [
        {
          "internalType": "string",
          "name": "name",
          "type": "string"
        },
        {
          "internalType": "string",
          "name": "description",
          "type": "string"
        },
        {
          "internalType": "string",
          "name": "ipType",
          "type": "string"
        },
        {
          "internalType": "string",
          "name": "dateOfCreation",
          "type": "string"
        },
        {
          "internalType": "string",
          "name": "dateOfRegistration",
          "type": "string"
        },
        {
          "internalType": "string[]",
          "name": "license",
          "type": "string[]"
        },
        {
          "internalType": "string[]",
          "name": "tags",
          "type": "string[]"
        },
        {
          "components": [
            {
              "internalType": "string",
              "name": "name",
              "type": "string"
            },
            {
              "internalType": "string",
              "name": "email",
              "type": "string"
            },
            {
              "internalType": "string",
              "name": "physicalAddress",
              "type": "string"
            }
          ],
          "internalType": "struct IPregistry.OwnerDetails",
          "name": "ownerDetails",
          "type": "tuple"
        },
        {
          "components": [
            {
              "internalType": "string",
              "name": "workType",
              "type": "string"
            },
            {
              "internalType": "string",
              "name": "classOfGoods",
              "type": "string"
            },
            {
              "internalType": "string[]",
              "name": "inventors",
              "type": "string[]"
            },
            {
              "internalType": "string",
              "name": "domainName",
              "type": "string"
            },
            {
              "internalType": "string",
              "name": "publicationDate",
              "type": "string"
            }
          ],
          "internalType": "struct IPregistry.OptionalFields",
          "name": "optionalFields",
          "type": "tuple"
        }
      ],
      "name": "registerIP",
      "outputs": [],
      "stateMutability": "nonpayable",
      "type": "function"
    },
    {
      "inputs": [
        {
          "internalType": "uint256",
          "name": "index",
          "type": "uint256"
        },
        {
          "internalType": "address",
          "name": "newOwner",
          "type": "address"
        },
        {
          "internalType": "string",
          "name": "newOwnerName",
          "type": "string"
        },
        {
          "internalType": "string",
          "name": "newOwnerEmail",
          "type": "string"
        },
        {
          "internalType": "string",
          "name": "newOwnerPhysicalAddress",
          "type": "string"
        }
      ],
      "name": "transferOwnership",
      "outputs": [],
      "stateMutability": "nonpayable",
      "type": "function"
    }
  ],
  "bytecode": "0x608060405234801561001057600080fd5b50613a55806100206000396000f3fe608060405234801561001057600080fd5b50600436106100935760003560e01c806353cfdda21161006657806353cfdda21461014d578063579a69881461016957806357dd977714610199578063623f3544146101b7578063c8af1c73146101e757610093565b80631feb4bfb1461009857806323a050c1146100c85780632816fb0b146100ff578063505143951461012f575b600080fd5b6100b260048036038101906100ad9190612d60565b610203565b6040516100bf91906135c9565b60405180910390f35b6100e260048036038101906100dd9190612d60565b610c0c565b6040516100f6989796959493929190613606565b60405180910390f35b61011960048036038101906101149190612b5d565b6113e7565b6040516101269190613515565b60405180910390f35b61013761147e565b60405161014491906134f3565b60405180910390f35b61016760048036038101906101629190612bc2565b611f69565b005b610183600480360381019061017e9190612d60565b61228f565b6040516101909190613537565b60405180910390f35b6101a16122a0565b6040516101ae91906135eb565b60405180910390f35b6101d160048036038101906101cc9190612b86565b6122ad565b6040516101de91906135eb565b60405180910390f35b61020160048036038101906101fc9190612d89565b6122de565b005b61020b612686565b6002805490508210610252576040517f08c379a000000000000000000000000000000000000000000000000000000000815260040161024990613589565b60405180910390fd5b600080838152602001908152602001600020604051806101400160405290816000820154815260200160018201805461028a906138d8565b80601f01602080910402602001604051908101604052809291908181526020018280546102b6906138d8565b80156103035780601f106102d857610100808354040283529160200191610303565b820191906000526020600020905b8154815290600101906020018083116102e657829003601f168201915b5050505050815260200160028201805461031c906138d8565b80601f0160208091040260200160405190810160405280929190818152602001828054610348906138d8565b80156103955780601f1061036a57610100808354040283529160200191610395565b820191906000526020600020905b81548152906001019060200180831161037857829003601f168201915b50505050508152602001600382016040518060600160405290816000820180546103be906138d8565b80601f01602080910402602001604051908101604052809291908181526020018280546103ea906138d8565b80156104375780601f1061040c57610100808354040283529160200191610437565b820191906000526020600020905b81548152906001019060200180831161041a57829003601f168201915b50505050508152602001600182018054610450906138d8565b80601f016020809104026020016040519081016040528092919081815260200182805461047c906138d8565b80156104c95780601f1061049e576101008083540402835291602001916104c9565b820191906000526020600020905b8154815290600101906020018083116104ac57829003601f168201915b505050505081526020016002820180546104e2906138d8565b80601f016020809104026020016040519081016040528092919081815260200182805461050e906138d8565b801561055b5780601f106105305761010080835404028352916020019161055b565b820191906000526020600020905b81548152906001019060200180831161053e57829003601f168201915b5050505050815250508152602001600682018054610578906138d8565b80601f01602080910402602001604051908101604052809291908181526020018280546105a4906138d8565b80156105f15780601f106105c6576101008083540402835291602001916105f1565b820191906000526020600020905b8154815290600101906020018083116105d457829003601f168201915b5050505050815260200160078201805461060a906138d8565b80601f0160208091040260200160405190810160405280929190818152602001828054610636906138d8565b80156106835780601f1061065857610100808354040283529160200191610683565b820191906000526020600020905b81548152906001019060200180831161066657829003601f168201915b5050505050815260200160088201805461069c906138d8565b80601f01602080910402602001604051908101604052809291908181526020018280546106c8906138d8565b80156107155780601f106106ea57610100808354040283529160200191610715565b820191906000526020600020905b8154815290600101906020018083116106f857829003601f168201915b5050505050815260200160098201805480602002602001604051908101604052809291908181526020016000905b828210156107ef578382906000526020600020018054610762906138d8565b80601f016020809104026020016040519081016040528092919081815260200182805461078e906138d8565b80156107db5780601f106107b0576101008083540402835291602001916107db565b820191906000526020600020905b8154815290600101906020018083116107be57829003601f168201915b505050505081526020019060010190610743565b505050508152602001600a8201805480602002602001604051908101604052809291908181526020016000905b828210156108c857838290600052602060002001805461083b906138d8565b80601f0160208091040260200160405190810160405280929190818152602001828054610867906138d8565b80156108b45780601f10610889576101008083540402835291602001916108b4565b820191906000526020600020905b81548152906001019060200180831161089757829003601f168201915b50505050508152602001906001019061081c565b505050508152602001600b82016040518060a00160405290816000820180546108f0906138d8565b80601f016020809104026020016040519081016040528092919081815260200182805461091c906138d8565b80156109695780601f1061093e57610100808354040283529160200191610969565b820191906000526020600020905b81548152906001019060200180831161094c57829003601f168201915b50505050508152602001600182018054610982906138d8565b80601f01602080910402602001604051908101604052809291908181526020018280546109ae906138d8565b80156109fb5780601f106109d0576101008083540402835291602001916109fb565b820191906000526020600020905b8154815290600101906020018083116109de57829003601f168201915b5050505050815260200160028201805480602002602001604051908101604052809291908181526020016000905b82821015610ad5578382906000526020600020018054610a48906138d8565b80601f0160208091040260200160405190810160405280929190818152602001828054610a74906138d8565b8015610ac15780601f10610a9657610100808354040283529160200191610ac1565b820191906000526020600020905b815481529060010190602001808311610aa457829003601f168201915b505050505081526020019060010190610a29565b505050508152602001600382018054610aed906138d8565b80601f0160208091040260200160405190810160405280929190818152602001828054610b19906138d8565b8015610b665780601f10610b3b57610100808354040283529160200191610b66565b820191906000526020600020905b815481529060010190602001808311610b4957829003601f168201915b50505050508152602001600482018054610b7f906138d8565b80601f0160208091040260200160405190810160405280929190818152602001828054610bab906138d8565b8015610bf85780601f10610bcd57610100808354040283529160200191610bf8565b820191906000526020600020905b815481529060010190602001808311610bdb57829003601f168201915b505050505081525050815250509050919050565b6000602052806000526040600020600091509050806000015490806001018054610c35906138d8565b80601f0160208091040260200160405190810160405280929190818152602001828054610c61906138d8565b8015610cae5780601f10610c8357610100808354040283529160200191610cae565b820191906000526020600020905b815481529060010190602001808311610c9157829003601f168201915b505050505090806002018054610cc3906138d8565b80601f0160208091040260200160405190810160405280929190818152602001828054610cef906138d8565b8015610d3c5780601f10610d1157610100808354040283529160200191610d3c565b820191906000526020600020905b815481529060010190602001808311610d1f57829003601f168201915b50505050509080600301604051806060016040529081600082018054610d61906138d8565b80601f0160208091040260200160405190810160405280929190818152602001828054610d8d906138d8565b8015610dda5780601f10610daf57610100808354040283529160200191610dda565b820191906000526020600020905b815481529060010190602001808311610dbd57829003601f168201915b50505050508152602001600182018054610df3906138d8565b80601f0160208091040260200160405190810160405280929190818152602001828054610e1f906138d8565b8015610e6c5780601f10610e4157610100808354040283529160200191610e6c565b820191906000526020600020905b815481529060010190602001808311610e4f57829003601f168201915b50505050508152602001600282018054610e85906138d8565b80601f0160208091040260200160405190810160405280929190818152602001828054610eb1906138d8565b8015610efe5780601f10610ed357610100808354040283529160200191610efe565b820191906000526020600020905b815481529060010190602001808311610ee157829003601f168201915b50505050508152505090806006018054610f17906138d8565b80601f0160208091040260200160405190810160405280929190818152602001828054610f43906138d8565b8015610f905780601f10610f6557610100808354040283529160200191610f90565b820191906000526020600020905b815481529060010190602001808311610f7357829003601f168201915b505050505090806007018054610fa5906138d8565b80601f0160208091040260200160405190810160405280929190818152602001828054610fd1906138d8565b801561101e5780601f10610ff35761010080835404028352916020019161101e565b820191906000526020600020905b81548152906001019060200180831161100157829003601f168201915b505050505090806008018054611033906138d8565b80601f016020809104026020016040519081016040528092919081815260200182805461105f906138d8565b80156110ac5780601f10611081576101008083540402835291602001916110ac565b820191906000526020600020905b81548152906001019060200180831161108f57829003601f168201915b50505050509080600b016040518060a00160405290816000820180546110d1906138d8565b80601f01602080910402602001604051908101604052809291908181526020018280546110fd906138d8565b801561114a5780601f1061111f5761010080835404028352916020019161114a565b820191906000526020600020905b81548152906001019060200180831161112d57829003601f168201915b50505050508152602001600182018054611163906138d8565b80601f016020809104026020016040519081016040528092919081815260200182805461118f906138d8565b80156111dc5780601f106111b1576101008083540402835291602001916111dc565b820191906000526020600020905b8154815290600101906020018083116111bf57829003601f168201915b5050505050815260200160028201805480602002602001604051908101604052809291908181526020016000905b828210156112b6578382906000526020600020018054611229906138d8565b80601f0160208091040260200160405190810160405280929190818152602001828054611255906138d8565b80156112a25780601f10611277576101008083540402835291602001916112a2565b820191906000526020600020905b81548152906001019060200180831161128557829003601f168201915b50505050508152602001906001019061120a565b5050505081526020016003820180546112ce906138d8565b80601f01602080910402602001604051908101604052809291908181526020018280546112fa906138d8565b80156113475780601f1061131c57610100808354040283529160200191611347565b820191906000526020600020905b81548152906001019060200180831161132a57829003601f168201915b50505050508152602001600482018054611360906138d8565b80601f016020809104026020016040519081016040528092919081815260200182805461138c906138d8565b80156113d95780601f106113ae576101008083540402835291602001916113d9565b820191906000526020600020905b8154815290600101906020018083116113bc57829003601f168201915b505050505081525050905088565b6060600160008373ffffffffffffffffffffffffffffffffffffffff1673ffffffffffffffffffffffffffffffffffffffff16815260200190815260200160002080548060200260200160405190810160405280929190818152602001828054801561147257602002820191906000526020600020905b81548152602001906001019080831161145e575b50505050509050919050565b6060600060028054905067ffffffffffffffff8111156114c7577f4e487b7100000000000000000000000000000000000000000000000000000000600052604160045260246000fd5b60405190808252806020026020018201604052801561150057816020015b6114ed612686565b8152602001906001900390816114e55790505b50905060005b600280549050811015611f615760008060028381548110611550577f4e487b7100000000000000000000000000000000000000000000000000000000600052603260045260246000fd5b90600052602060002001548152602001908152602001600020604051806101400160405290816000820154815260200160018201805461158f906138d8565b80601f01602080910402602001604051908101604052809291908181526020018280546115bb906138d8565b80156116085780601f106115dd57610100808354040283529160200191611608565b820191906000526020600020905b8154815290600101906020018083116115eb57829003601f168201915b50505050508152602001600282018054611621906138d8565b80601f016020809104026020016040519081016040528092919081815260200182805461164d906138d8565b801561169a5780601f1061166f5761010080835404028352916020019161169a565b820191906000526020600020905b81548152906001019060200180831161167d57829003601f168201915b50505050508152602001600382016040518060600160405290816000820180546116c3906138d8565b80601f01602080910402602001604051908101604052809291908181526020018280546116ef906138d8565b801561173c5780601f106117115761010080835404028352916020019161173c565b820191906000526020600020905b81548152906001019060200180831161171f57829003601f168201915b50505050508152602001600182018054611755906138d8565b80601f0160208091040260200160405190810160405280929190818152602001828054611781906138d8565b80156117ce5780601f106117a3576101008083540402835291602001916117ce565b820191906000526020600020905b8154815290600101906020018083116117b157829003601f168201915b505050505081526020016002820180546117e7906138d8565b80601f0160208091040260200160405190810160405280929190818152602001828054611813906138d8565b80156118605780601f1061183557610100808354040283529160200191611860565b820191906000526020600020905b81548152906001019060200180831161184357829003601f168201915b505050505081525050815260200160068201805461187d906138d8565b80601f01602080910402602001604051908101604052809291908181526020018280546118a9906138d8565b80156118f65780601f106118cb576101008083540402835291602001916118f6565b820191906000526020600020905b8154815290600101906020018083116118d957829003601f168201915b5050505050815260200160078201805461190f906138d8565b80601f016020809104026020016040519081016040528092919081815260200182805461193b906138d8565b80156119885780601f1061195d57610100808354040283529160200191611988565b820191906000526020600020905b81548152906001019060200180831161196b57829003601f168201915b505050505081526020016008820180546119a1906138d8565b80601f01602080910402602001604051908101604052809291908181526020018280546119cd906138d8565b8015611a1a5780601f106119ef57610100808354040283529160200191611a1a565b820191906000526020600020905b8154815290600101906020018083116119fd57829003601f168201915b5050505050815260200160098201805480602002602001604051908101604052809291908181526020016000905b82821015611af4578382906000526020600020018054611a67906138d8565b80601f0160208091040260200160405190810160405280929190818152602001828054611a93906138d8565b8015611ae05780601f10611ab557610100808354040283529160200191611ae0565b820191906000526020600020905b815481529060010190602001808311611ac357829003601f168201915b505050505081526020019060010190611a48565b505050508152602001600a8201805480602002602001604051908101604052809291908181526020016000905b82821015611bcd578382906000526020600020018054611b40906138d8565b80601f0160208091040260200160405190810160405280929190818152602001828054611b6c906138d8565b8015611bb95780601f10611b8e57610100808354040283529160200191611bb9565b820191906000526020600020905b815481529060010190602001808311611b9c57829003601f168201915b505050505081526020019060010190611b21565b505050508152602001600b82016040518060a0016040529081600082018054611bf5906138d8565b80601f0160208091040260200160405190810160405280929190818152602001828054611c21906138d8565b8015611c6e5780601f10611c4357610100808354040283529160200191611c6e565b820191906000526020600020905b815481529060010190602001808311611c5157829003601f168201915b50505050508152602001600182018054611c87906138d8565b80601f0160208091040260200160405190810160405280929190818152602001828054611cb3906138d8565b8015611d005780601f10611cd557610100808354040283529160200191611d00565b820191906000526020600020905b815481529060010190602001808311611ce357829003601f168201915b5050505050815260200160028201805480602002602001604051908101604052809291908181526020016000905b82821015611dda578382906000526020600020018054611d4d906138d8565b80601f0160208091040260200160405190810160405280929190818152602001828054611d79906138d8565b8015611dc65780601f10611d9b57610100808354040283529160200191611dc6565b820191906000526020600020905b815481529060010190602001808311611da957829003601f168201915b505050505081526020019060010190611d2e565b505050508152602001600382018054611df2906138d8565b80601f0160208091040260200160405190810160405280929190818152602001828054611e1e906138d8565b8015611e6b5780601f10611e4057610100808354040283529160200191611e6b565b820191906000526020600020905b815481529060010190602001808311611e4e57829003601f168201915b50505050508152602001600482018054611e84906138d8565b80601f0160208091040260200160405190810160405280929190818152602001828054611eb0906138d8565b8015611efd5780601f10611ed257610100808354040283529160200191611efd565b820191906000526020600020905b815481529060010190602001808311611ee057829003601f168201915b50505050508152505081525050828281518110611f43577f4e487b7100000000000000000000000000000000000000000000000000000000600052603260045260246000fd5b60200260200101819052508080611f599061390a565b915050611506565b508091505090565b600060028054905090506040518061014001604052808281526020018b81526020018a815260200184815260200189815260200188815260200187815260200186815260200185815260200183815250600080838152602001908152602001600020600082015181600001556020820151816001019080519060200190611ff19291906126e5565b50604082015181600201908051906020019061200e9291906126e5565b5060608201518160030160008201518160000190805190602001906120349291906126e5565b5060208201518160010190805190602001906120519291906126e5565b50604082015181600201908051906020019061206e9291906126e5565b505050608082015181600601908051906020019061208d9291906126e5565b5060a08201518160070190805190602001906120aa9291906126e5565b5060c08201518160080190805190602001906120c79291906126e5565b5060e08201518160090190805190602001906120e492919061276b565b5061010082015181600a01908051906020019061210292919061276b565b5061012082015181600b0160008201518160000190805190602001906121299291906126e5565b5060208201518160010190805190602001906121469291906126e5565b50604082015181600201908051906020019061216392919061276b565b5060608201518160030190805190602001906121809291906126e5565b50608082015181600401908051906020019061219d9291906126e5565b505050905050600160003373ffffffffffffffffffffffffffffffffffffffff1673ffffffffffffffffffffffffffffffffffffffff16815260200190815260200160002081908060018154018082558091505060019003906000526020600020016000909190919091505560028190806001815401808255809150506001900390600052602060002001600090919091909150553373ffffffffffffffffffffffffffffffffffffffff16817fe203a10283fe11e231a5ab7086bb699ffc7c05f1604dbc01c95d5e93e658580b8c8960405161227b929190613552565b60405180910390a350505050505050505050565b600060028054905082109050919050565b6000600280549050905090565b600160205281600052604060002081815481106122c957600080fd5b90600052602060002001600091509150505481565b6002805490508510612325576040517f08c379a000000000000000000000000000000000000000000000000000000000815260040161231c90613589565b60405180910390fd5b600073ffffffffffffffffffffffffffffffffffffffff168473ffffffffffffffffffffffffffffffffffffffff161415612395576040517f08c379a000000000000000000000000000000000000000000000000000000000815260040161238c906135a9565b60405180910390fd5b6000600160003373ffffffffffffffffffffffffffffffffffffffff1673ffffffffffffffffffffffffffffffffffffffff168152602001908152602001600020905060005b81805490508110156125325786828281548110612421577f4e487b7100000000000000000000000000000000000000000000000000000000600052603260045260246000fd5b9060005260206000200154141561251f578160018380549050612444919061381a565b8154811061247b577f4e487b7100000000000000000000000000000000000000000000000000000000600052603260045260246000fd5b90600052602060002001548282815481106124bf577f4e487b7100000000000000000000000000000000000000000000000000000000600052603260045260246000fd5b906000526020600020018190555081805480612504577f4e487b7100000000000000000000000000000000000000000000000000000000600052603160045260246000fd5b60019003818190600052602060002001600090559055612532565b808061252a9061390a565b9150506123db565b50600160008673ffffffffffffffffffffffffffffffffffffffff1673ffffffffffffffffffffffffffffffffffffffff16815260200190815260200160002086908060018154018082558091505060019003906000526020600020016000909190919091505560405180606001604052808581526020018481526020018381525060008088815260200190815260200160002060030160008201518160000190805190602001906125e59291906126e5565b5060208201518160010190805190602001906126029291906126e5565b50604082015181600201908051906020019061261f9291906126e5565b509050508473ffffffffffffffffffffffffffffffffffffffff163373ffffffffffffffffffffffffffffffffffffffff16877f16b85f49bf01212961345d3016c9a531894accf62eb7680f2045d79185cc0ec060405160405180910390a4505050505050565b6040518061014001604052806000815260200160608152602001606081526020016126af6127cb565b815260200160608152602001606081526020016060815260200160608152602001606081526020016126df6127ec565b81525090565b8280546126f1906138d8565b90600052602060002090601f016020900481019282612713576000855561275a565b82601f1061272c57805160ff191683800117855561275a565b8280016001018555821561275a579182015b8281111561275957825182559160200191906001019061273e565b5b509050612767919061281b565b5090565b8280548282559060005260206000209081019282156127ba579160200282015b828111156127b95782518290805190602001906127a99291906126e5565b509160200191906001019061278b565b5b5090506127c79190612838565b5090565b60405180606001604052806060815260200160608152602001606081525090565b6040518060a0016040528060608152602001606081526020016060815260200160608152602001606081525090565b5b8082111561283457600081600090555060010161281c565b5090565b5b80821115612858576000818161284f919061285c565b50600101612839565b5090565b508054612868906138d8565b6000825580601f1061287a5750612899565b601f016020900490600052602060002090810190612898919061281b565b5b50565b60006128af6128aa846136e6565b6136b5565b9050808382526020820190508260005b858110156128ef57813585016128d58882612976565b8452602084019350602083019250506001810190506128bf565b5050509392505050565b600061290c61290784613712565b6136b5565b90508281526020810184848401111561292457600080fd5b61292f848285613896565b509392505050565b600081359050612946816139f1565b92915050565b600082601f83011261295d57600080fd5b813561296d84826020860161289c565b91505092915050565b600082601f83011261298757600080fd5b81356129978482602086016128f9565b91505092915050565b600060a082840312156129b257600080fd5b6129bc60a06136b5565b9050600082013567ffffffffffffffff8111156129d857600080fd5b6129e484828501612976565b600083015250602082013567ffffffffffffffff811115612a0457600080fd5b612a1084828501612976565b602083015250604082013567ffffffffffffffff811115612a3057600080fd5b612a3c8482850161294c565b604083015250606082013567ffffffffffffffff811115612a5c57600080fd5b612a6884828501612976565b606083015250608082013567ffffffffffffffff811115612a8857600080fd5b612a9484828501612976565b60808301525092915050565b600060608284031215612ab257600080fd5b612abc60606136b5565b9050600082013567ffffffffffffffff811115612ad857600080fd5b612ae484828501612976565b600083015250602082013567ffffffffffffffff811115612b0457600080fd5b612b1084828501612976565b602083015250604082013567ffffffffffffffff811115612b3057600080fd5b612b3c84828501612976565b60408301525092915050565b600081359050612b5781613a08565b92915050565b600060208284031215612b6f57600080fd5b6000612b7d84828501612937565b91505092915050565b60008060408385031215612b9957600080fd5b6000612ba785828601612937565b9250506020612bb885828601612b48565b9150509250929050565b60008060008060008060008060006101208a8c031215612be157600080fd5b60008a013567ffffffffffffffff811115612bfb57600080fd5b612c078c828d01612976565b99505060208a013567ffffffffffffffff811115612c2457600080fd5b612c308c828d01612976565b98505060408a013567ffffffffffffffff811115612c4d57600080fd5b612c598c828d01612976565b97505060608a013567ffffffffffffffff811115612c7657600080fd5b612c828c828d01612976565b96505060808a013567ffffffffffffffff811115612c9f57600080fd5b612cab8c828d01612976565b95505060a08a013567ffffffffffffffff811115612cc857600080fd5b612cd48c828d0161294c565b94505060c08a013567ffffffffffffffff811115612cf157600080fd5b612cfd8c828d0161294c565b93505060e08a013567ffffffffffffffff811115612d1a57600080fd5b612d268c828d01612aa0565b9250506101008a013567ffffffffffffffff811115612d4457600080fd5b612d508c828d016129a0565b9150509295985092959850929598565b600060208284031215612d7257600080fd5b6000612d8084828501612b48565b91505092915050565b600080600080600060a08688031215612da157600080fd5b6000612daf88828901612b48565b9550506020612dc088828901612937565b945050604086013567ffffffffffffffff811115612ddd57600080fd5b612de988828901612976565b935050606086013567ffffffffffffffff811115612e0657600080fd5b612e1288828901612976565b925050608086013567ffffffffffffffff811115612e2f57600080fd5b612e3b88828901612976565b9150509295509295909350565b6000612e548383612fdf565b905092915050565b6000612e6883836130d1565b905092915050565b6000612e7c83836134d5565b60208301905092915050565b6000612e9382613772565b612e9d81856137c5565b935083602082028501612eaf85613742565b8060005b85811015612eeb5784840389528151612ecc8582612e48565b9450612ed78361379e565b925060208a01995050600181019050612eb3565b50829750879550505050505092915050565b6000612f088261377d565b612f1281856137d6565b935083602082028501612f2485613752565b8060005b85811015612f605784840389528151612f418582612e5c565b9450612f4c836137ab565b925060208a01995050600181019050612f28565b50829750879550505050505092915050565b6000612f7d82613788565b612f8781856137e7565b9350612f9283613762565b8060005b83811015612fc3578151612faa8882612e70565b9750612fb5836137b8565b925050600181019050612f96565b5085935050505092915050565b612fd981613860565b82525050565b6000612fea82613793565b612ff481856137f8565b93506130048185602086016138a5565b61300d816139e0565b840191505092915050565b600061302382613793565b61302d8185613809565b935061303d8185602086016138a5565b613046816139e0565b840191505092915050565b600061305e601183613809565b91507f495020646f6573206e6f742065786973740000000000000000000000000000006000830152602082019050919050565b600061309e601183613809565b91507f496e76616c6964206e6577206f776e65720000000000000000000000000000006000830152602082019050919050565b6000610140830160008301516130ea60008601826134d5565b50602083015184820360208601526131028282612fdf565b9150506040830151848203604086015261311c8282612fdf565b915050606083015184820360608601526131368282613419565b915050608083015184820360808601526131508282612fdf565b91505060a083015184820360a086015261316a8282612fdf565b91505060c083015184820360c08601526131848282612fdf565b91505060e083015184820360e086015261319e8282612e88565b9150506101008301518482036101008601526131ba8282612e88565b9150506101208301518482036101208601526131d682826132f5565b9150508091505092915050565b6000610140830160008301516131fc60008601826134d5565b50602083015184820360208601526132148282612fdf565b9150506040830151848203604086015261322e8282612fdf565b915050606083015184820360608601526132488282613419565b915050608083015184820360808601526132628282612fdf565b91505060a083015184820360a086015261327c8282612fdf565b91505060c083015184820360c08601526132968282612fdf565b91505060e083015184820360e08601526132b08282612e88565b9150506101008301518482036101008601526132cc8282612e88565b9150506101208301518482036101208601526132e882826132f5565b9150508091505092915050565b600060a08301600083015184820360008601526133128282612fdf565b9150506020830151848203602086015261332c8282612fdf565b915050604083015184820360408601526133468282612e88565b915050606083015184820360608601526133608282612fdf565b9150506080830151848203608086015261337a8282612fdf565b9150508091505092915050565b600060a08301600083015184820360008601526133a48282612fdf565b915050602083015184820360208601526133be8282612fdf565b915050604083015184820360408601526133d88282612e88565b915050606083015184820360608601526133f28282612fdf565b9150506080830151848203608086015261340c8282612fdf565b9150508091505092915050565b600060608301600083015184820360008601526134368282612fdf565b915050602083015184820360208601526134508282612fdf565b9150506040830151848203604086015261346a8282612fdf565b9150508091505092915050565b600060608301600083015184820360008601526134948282612fdf565b915050602083015184820360208601526134ae8282612fdf565b915050604083015184820360408601526134c88282612fdf565b9150508091505092915050565b6134de8161388c565b82525050565b6134ed8161388c565b82525050565b6000602082019050818103600083015261350d8184612efd565b905092915050565b6000602082019050818103600083015261352f8184612f72565b905092915050565b600060208201905061354c6000830184612fd0565b92915050565b6000604082019050818103600083015261356c8185613018565b905081810360208301526135808184613018565b90509392505050565b600060208201905081810360008301526135a281613051565b9050919050565b600060208201905081810360008301526135c281613091565b9050919050565b600060208201905081810360008301526135e381846131e3565b905092915050565b600060208201905061360060008301846134e4565b92915050565b60006101008201905061361c600083018b6134e4565b818103602083015261362e818a613018565b905081810360408301526136428189613018565b905081810360608301526136568188613477565b9050818103608083015261366a8187613018565b905081810360a083015261367e8186613018565b905081810360c08301526136928185613018565b905081810360e08301526136a68184613387565b90509998505050505050505050565b6000604051905081810181811067ffffffffffffffff821117156136dc576136db6139b1565b5b8060405250919050565b600067ffffffffffffffff821115613701576137006139b1565b5b602082029050602081019050919050565b600067ffffffffffffffff82111561372d5761372c6139b1565b5b601f19601f8301169050602081019050919050565b6000819050602082019050919050565b6000819050602082019050919050565b6000819050602082019050919050565b600081519050919050565b600081519050919050565b600081519050919050565b600081519050919050565b6000602082019050919050565b6000602082019050919050565b6000602082019050919050565b600082825260208201905092915050565b600082825260208201905092915050565b600082825260208201905092915050565b600082825260208201905092915050565b600082825260208201905092915050565b60006138258261388c565b91506138308361388c565b92508282101561384357613842613953565b5b828203905092915050565b60006138598261386c565b9050919050565b60008115159050919050565b600073ffffffffffffffffffffffffffffffffffffffff82169050919050565b6000819050919050565b82818337600083830152505050565b60005b838110156138c35780820151818401526020810190506138a8565b838111156138d2576000848401525b50505050565b600060028204905060018216806138f057607f821691505b6020821081141561390457613903613982565b5b50919050565b60006139158261388c565b91507fffffffffffffffffffffffffffffffffffffffffffffffffffffffffffffffff82141561394857613947613953565b5b600182019050919050565b7f4e487b7100000000000000000000000000000000000000000000000000000000600052601160045260246000fd5b7f4e487b7100000000000000000000000000000000000000000000000000000000600052602260045260246000fd5b7f4e487b7100000000000000000000000000000000000000000000000000000000600052604160045260246000fd5b6000601f19601f8301169050919050565b6139fa8161384e565b8114613a0557600080fd5b50565b613a118161388c565b8114613a1c57600080fd5b5056fea26469706673582212204db0525fe2e59e379a500d10e1c51a2ce1a49e061d5773a7ba809d2834d7bc2a64736f6c63430008000033",
  "linkReferences": {},
  "deployedLinkReferences": {}
}