{
  "_format": "hh-sol-artifact-1",
  "contractName": "IPregistry",
  "sourceName": "contracts/IPregistry.sol",
  "abi": [
    {
      "inputs": [],
      "name": "ReentrancyGuardReentrantCall",
      "type": "error"
    },
    {
      "anonymous": false,
      "inputs": [
        {
          "indexed": true,
          "internalType": "uint256",
          "name": "index",
          "type": "uint256"
        },
        {
          "indexed": true,
          "internalType": "address",
          "name": "user",
          "type": "address"
        },
        {
          "indexed": false,
          "internalType": "uint256",
          "name": "amount",
          "type": "uint256"
        }
      ],
      "name": "AccessGranted",
      "type": "event"
    },
    {
      "anonymous": false,
      "inputs": [
        {
          "indexed": true,
          "internalType": "uint256",
          "name": "index",
          "type": "uint256"
        },
        {
          "indexed": false,
          "internalType": "string",
          "name": "name",
          "type": "string"
        },
        {
          "indexed": true,
          "internalType": "address",
          "name": "owner",
          "type": "address"
        },
        {
          "indexed": false,
          "internalType": "string",
          "name": "dateOfRegistration",
          "type": "string"
        }
      ],
      "name": "IPRegistered",
      "type": "event"
    },
    {
      "anonymous": false,
      "inputs": [
        {
          "indexed": true,
          "internalType": "uint256",
          "name": "index",
          "type": "uint256"
        },
        {
          "indexed": true,
          "internalType": "address",
          "name": "payer",
          "type": "address"
        },
        {
          "indexed": false,
          "internalType": "uint256",
          "name": "amount",
          "type": "uint256"
        }
      ],
      "name": "IncentivePaid",
      "type": "event"
    },
    {
      "anonymous": false,
      "inputs": [
        {
          "indexed": true,
          "internalType": "uint256",
          "name": "index",
          "type": "uint256"
        },
        {
          "indexed": true,
          "internalType": "address",
          "name": "from",
          "type": "address"
        },
        {
          "indexed": true,
          "internalType": "address",
          "name": "to",
          "type": "address"
        }
      ],
      "name": "OwnershipTransferred",
      "type": "event"
    },
    {
      "inputs": [],
      "name": "getAllRegisteredIPs",
      "outputs": [
        {
          "components": [
            {
              "internalType": "uint256",
              "name": "index",
              "type": "uint256"
            },
            {
              "internalType": "string",
              "name": "name",
              "type": "string"
            },
            {
              "internalType": "string",
              "name": "description",
              "type": "string"
            },
            {
              "components": [
                {
                  "internalType": "string",
                  "name": "name",
                  "type": "string"
                },
                {
                  "internalType": "string",
                  "name": "email",
                  "type": "string"
                },
                {
                  "internalType": "string",
                  "name": "physicalAddress",
                  "type": "string"
                }
              ],
              "internalType": "struct IPregistry.OwnerDetails",
              "name": "owner",
              "type": "tuple"
            },
            {
              "internalType": "string",
              "name": "ipType",
              "type": "string"
            },
            {
              "internalType": "string",
              "name": "dateOfCreation",
              "type": "string"
            },
            {
              "internalType": "string",
              "name": "dateOfRegistration",
              "type": "string"
            },
            {
              "internalType": "string[]",
              "name": "license",
              "type": "string[]"
            },
            {
              "internalType": "uint256",
              "name": "licenseIncentive",
              "type": "uint256"
            },
            {
              "internalType": "string[]",
              "name": "tags",
              "type": "string[]"
            },
            {
              "components": [
                {
                  "internalType": "string",
                  "name": "workType",
                  "type": "string"
                },
                {
                  "internalType": "string",
                  "name": "classOfGoods",
                  "type": "string"
                },
                {
                  "internalType": "string[]",
                  "name": "inventors",
                  "type": "string[]"
                },
                {
                  "internalType": "string",
                  "name": "domainName",
                  "type": "string"
                },
                {
                  "internalType": "string",
                  "name": "publicationDate",
                  "type": "string"
                }
              ],
              "internalType": "struct IPregistry.OptionalFields",
              "name": "optionalFields",
              "type": "tuple"
            },
            {
              "internalType": "address",
              "name": "ownerAddress",
              "type": "address"
            }
          ],
          "internalType": "struct IPregistry.IntellectualProperty[]",
          "name": "",
          "type": "tuple[]"
        }
      ],
      "stateMutability": "view",
      "type": "function"
    },
    {
      "inputs": [
        {
          "internalType": "uint256",
          "name": "index",
          "type": "uint256"
        }
      ],
      "name": "getIPDetails",
      "outputs": [
        {
          "components": [
            {
              "internalType": "uint256",
              "name": "index",
              "type": "uint256"
            },
            {
              "internalType": "string",
              "name": "name",
              "type": "string"
            },
            {
              "internalType": "string",
              "name": "description",
              "type": "string"
            },
            {
              "components": [
                {
                  "internalType": "string",
                  "name": "name",
                  "type": "string"
                },
                {
                  "internalType": "string",
                  "name": "email",
                  "type": "string"
                },
                {
                  "internalType": "string",
                  "name": "physicalAddress",
                  "type": "string"
                }
              ],
              "internalType": "struct IPregistry.OwnerDetails",
              "name": "owner",
              "type": "tuple"
            },
            {
              "internalType": "string",
              "name": "ipType",
              "type": "string"
            },
            {
              "internalType": "string",
              "name": "dateOfCreation",
              "type": "string"
            },
            {
              "internalType": "string",
              "name": "dateOfRegistration",
              "type": "string"
            },
            {
              "internalType": "string[]",
              "name": "license",
              "type": "string[]"
            },
            {
              "internalType": "uint256",
              "name": "licenseIncentive",
              "type": "uint256"
            },
            {
              "internalType": "string[]",
              "name": "tags",
              "type": "string[]"
            },
            {
              "components": [
                {
                  "internalType": "string",
                  "name": "workType",
                  "type": "string"
                },
                {
                  "internalType": "string",
                  "name": "classOfGoods",
                  "type": "string"
                },
                {
                  "internalType": "string[]",
                  "name": "inventors",
                  "type": "string[]"
                },
                {
                  "internalType": "string",
                  "name": "domainName",
                  "type": "string"
                },
                {
                  "internalType": "string",
                  "name": "publicationDate",
                  "type": "string"
                }
              ],
              "internalType": "struct IPregistry.OptionalFields",
              "name": "optionalFields",
              "type": "tuple"
            },
            {
              "internalType": "address",
              "name": "ownerAddress",
              "type": "address"
            }
          ],
          "internalType": "struct IPregistry.IntellectualProperty",
          "name": "",
          "type": "tuple"
        }
      ],
      "stateMutability": "view",
      "type": "function"
    },
    {
      "inputs": [
        {
          "internalType": "uint256",
          "name": "index",
          "type": "uint256"
        }
      ],
      "name": "getLicenseIncentive",
      "outputs": [
        {
          "internalType": "uint256",
          "name": "",
          "type": "uint256"
        }
      ],
      "stateMutability": "view",
      "type": "function"
    },
    {
      "inputs": [
        {
          "internalType": "address",
          "name": "owner",
          "type": "address"
        }
      ],
      "name": "getOwnerIPs",
      "outputs": [
        {
          "internalType": "uint256[]",
          "name": "",
          "type": "uint256[]"
        }
      ],
      "stateMutability": "view",
      "type": "function"
    },
    {
      "inputs": [],
      "name": "getTotalIPs",
      "outputs": [
        {
          "internalType": "uint256",
          "name": "",
          "type": "uint256"
        }
      ],
      "stateMutability": "view",
      "type": "function"
    },
    {
      "inputs": [
        {
          "internalType": "uint256",
          "name": "index",
          "type": "uint256"
        }
      ],
      "name": "grantAccess",
      "outputs": [],
      "stateMutability": "payable",
      "type": "function"
    },
    {
      "inputs": [
        {
          "internalType": "uint256",
          "name": "",
          "type": "uint256"
        },
        {
          "internalType": "address",
          "name": "",
          "type": "address"
        }
      ],
      "name": "hasAccess",
      "outputs": [
        {
          "internalType": "bool",
          "name": "",
          "type": "bool"
        }
      ],
      "stateMutability": "view",
      "type": "function"
    },
    {
      "inputs": [
        {
          "internalType": "uint256",
          "name": "",
          "type": "uint256"
        }
      ],
      "name": "ips",
      "outputs": [
        {
          "internalType": "uint256",
          "name": "index",
          "type": "uint256"
        },
        {
          "internalType": "string",
          "name": "name",
          "type": "string"
        },
        {
          "internalType": "string",
          "name": "description",
          "type": "string"
        },
        {
          "components": [
            {
              "internalType": "string",
              "name": "name",
              "type": "string"
            },
            {
              "internalType": "string",
              "name": "email",
              "type": "string"
            },
            {
              "internalType": "string",
              "name": "physicalAddress",
              "type": "string"
            }
          ],
          "internalType": "struct IPregistry.OwnerDetails",
          "name": "owner",
          "type": "tuple"
        },
        {
          "internalType": "string",
          "name": "ipType",
          "type": "string"
        },
        {
          "internalType": "string",
          "name": "dateOfCreation",
          "type": "string"
        },
        {
          "internalType": "string",
          "name": "dateOfRegistration",
          "type": "string"
        },
        {
          "internalType": "uint256",
          "name": "licenseIncentive",
          "type": "uint256"
        },
        {
          "components": [
            {
              "internalType": "string",
              "name": "workType",
              "type": "string"
            },
            {
              "internalType": "string",
              "name": "classOfGoods",
              "type": "string"
            },
            {
              "internalType": "string[]",
              "name": "inventors",
              "type": "string[]"
            },
            {
              "internalType": "string",
              "name": "domainName",
              "type": "string"
            },
            {
              "internalType": "string",
              "name": "publicationDate",
              "type": "string"
            }
          ],
          "internalType": "struct IPregistry.OptionalFields",
          "name": "optionalFields",
          "type": "tuple"
        },
        {
          "internalType": "address",
          "name": "ownerAddress",
          "type": "address"
        }
      ],
      "stateMutability": "view",
      "type": "function"
    },
    {
      "inputs": [
        {
          "internalType": "uint256",
          "name": "index",
          "type": "uint256"
        }
      ],
      "name": "isRegistered",
      "outputs": [
        {
          "internalType": "bool",
          "name": "",
          "type": "bool"
        }
      ],
      "stateMutability": "view",
      "type": "function"
    },
    {
      "inputs": [
        {
          "internalType": "address",
          "name": "",
          "type": "address"
        },
        {
          "internalType": "uint256",
          "name": "",
          "type": "uint256"
        }
      ],
      "name": "ownerToIPs",
      "outputs": [
        {
          "internalType": "uint256",
          "name": "",
          "type": "uint256"
        }
      ],
      "stateMutability": "view",
      "type": "function"
    },
    {
      "inputs": [
        {
          "internalType": "string",
          "name": "name",
          "type": "string"
        },
        {
          "internalType": "string",
          "name": "description",
          "type": "string"
        },
        {
          "internalType": "string",
          "name": "ipType",
          "type": "string"
        },
        {
          "internalType": "string",
          "name": "dateOfCreation",
          "type": "string"
        },
        {
          "internalType": "string",
          "name": "dateOfRegistration",
          "type": "string"
        },
        {
          "internalType": "string[]",
          "name": "license",
          "type": "string[]"
        },
        {
          "internalType": "uint256",
          "name": "licenseIncentive",
          "type": "uint256"
        },
        {
          "internalType": "string[]",
          "name": "tags",
          "type": "string[]"
        },
        {
          "components": [
            {
              "internalType": "string",
              "name": "name",
              "type": "string"
            },
            {
              "internalType": "string",
              "name": "email",
              "type": "string"
            },
            {
              "internalType": "string",
              "name": "physicalAddress",
              "type": "string"
            }
          ],
          "internalType": "struct IPregistry.OwnerDetails",
          "name": "ownerDetails",
          "type": "tuple"
        },
        {
          "components": [
            {
              "internalType": "string",
              "name": "workType",
              "type": "string"
            },
            {
              "internalType": "string",
              "name": "classOfGoods",
              "type": "string"
            },
            {
              "internalType": "string[]",
              "name": "inventors",
              "type": "string[]"
            },
            {
              "internalType": "string",
              "name": "domainName",
              "type": "string"
            },
            {
              "internalType": "string",
              "name": "publicationDate",
              "type": "string"
            }
          ],
          "internalType": "struct IPregistry.OptionalFields",
          "name": "optionalFields",
          "type": "tuple"
        }
      ],
      "name": "registerIP",
      "outputs": [],
      "stateMutability": "nonpayable",
      "type": "function"
    },
    {
      "inputs": [
        {
          "internalType": "uint256",
          "name": "index",
          "type": "uint256"
        },
        {
          "internalType": "address",
          "name": "newOwner",
          "type": "address"
        },
        {
          "internalType": "string",
          "name": "newOwnerName",
          "type": "string"
        },
        {
          "internalType": "string",
          "name": "newOwnerEmail",
          "type": "string"
        },
        {
          "internalType": "string",
          "name": "newOwnerPhysicalAddress",
          "type": "string"
        }
      ],
      "name": "transferOwnership",
      "outputs": [],
      "stateMutability": "nonpayable",
      "type": "function"
    }
  ],
  "bytecode": "0x608060405234801561001057600080fd5b5060016000819055506143d1806100286000396000f3fe6080604052600436106100a75760003560e01c80635a4070a7116100645780635a4070a7146101ff578063623f3544146102285780637ca1456314610265578063c8af1c7314610281578063c945a91a146102aa578063ced14198146102e7576100a7565b80631feb4bfb146100ac57806323a050c1146100e95780632816fb0b1461012f578063505143951461016c578063579a69881461019757806357dd9777146101d4575b600080fd5b3480156100b857600080fd5b506100d360048036038101906100ce9190612cd1565b610324565b6040516100e091906130cc565b60405180910390f35b3480156100f557600080fd5b50610110600480360381019061010b9190612cd1565b610d8e565b6040516101269a99989796959493929190613246565b60405180910390f35b34801561013b57600080fd5b506101566004803603810190610151919061333f565b611595565b604051610163919061341b565b60405180910390f35b34801561017857600080fd5b5061018161162c565b60405161018e919061363b565b60405180910390f35b3480156101a357600080fd5b506101be60048036038101906101b99190612cd1565b612106565b6040516101cb9190613678565b60405180910390f35b3480156101e057600080fd5b506101e9612117565b6040516101f69190613693565b60405180910390f35b34801561020b57600080fd5b5061022660048036038101906102219190613aa3565b612124565b005b34801561023457600080fd5b5061024f600480360381019061024a9190613c7e565b61246d565b60405161025c9190613693565b60405180910390f35b61027f600480360381019061027a9190612cd1565b61249e565b005b34801561028d57600080fd5b506102a860048036038101906102a39190613cbe565b6126fa565b005b3480156102b657600080fd5b506102d160048036038101906102cc9190612cd1565b6129f4565b6040516102de9190613693565b60405180910390f35b3480156102f357600080fd5b5061030e60048036038101906103099190613d8d565b612a5b565b60405161031b9190613678565b60405180910390f35b61032c612ada565b6004805490508210610373576040517f08c379a000000000000000000000000000000000000000000000000000000000815260040161036a90613e19565b60405180910390fd5b6001600083815260200190815260200160002060405180610180016040529081600082015481526020016001820180546103ac90613e68565b80601f01602080910402602001604051908101604052809291908181526020018280546103d890613e68565b80156104255780601f106103fa57610100808354040283529160200191610425565b820191906000526020600020905b81548152906001019060200180831161040857829003601f168201915b5050505050815260200160028201805461043e90613e68565b80601f016020809104026020016040519081016040528092919081815260200182805461046a90613e68565b80156104b75780601f1061048c576101008083540402835291602001916104b7565b820191906000526020600020905b81548152906001019060200180831161049a57829003601f168201915b50505050508152602001600382016040518060600160405290816000820180546104e090613e68565b80601f016020809104026020016040519081016040528092919081815260200182805461050c90613e68565b80156105595780601f1061052e57610100808354040283529160200191610559565b820191906000526020600020905b81548152906001019060200180831161053c57829003601f168201915b5050505050815260200160018201805461057290613e68565b80601f016020809104026020016040519081016040528092919081815260200182805461059e90613e68565b80156105eb5780601f106105c0576101008083540402835291602001916105eb565b820191906000526020600020905b8154815290600101906020018083116105ce57829003601f168201915b5050505050815260200160028201805461060490613e68565b80601f016020809104026020016040519081016040528092919081815260200182805461063090613e68565b801561067d5780601f106106525761010080835404028352916020019161067d565b820191906000526020600020905b81548152906001019060200180831161066057829003601f168201915b505050505081525050815260200160068201805461069a90613e68565b80601f01602080910402602001604051908101604052809291908181526020018280546106c690613e68565b80156107135780601f106106e857610100808354040283529160200191610713565b820191906000526020600020905b8154815290600101906020018083116106f657829003601f168201915b5050505050815260200160078201805461072c90613e68565b80601f016020809104026020016040519081016040528092919081815260200182805461075890613e68565b80156107a55780601f1061077a576101008083540402835291602001916107a5565b820191906000526020600020905b81548152906001019060200180831161078857829003601f168201915b505050505081526020016008820180546107be90613e68565b80601f01602080910402602001604051908101604052809291908181526020018280546107ea90613e68565b80156108375780601f1061080c57610100808354040283529160200191610837565b820191906000526020600020905b81548152906001019060200180831161081a57829003601f168201915b5050505050815260200160098201805480602002602001604051908101604052809291908181526020016000905b8282101561091157838290600052602060002001805461088490613e68565b80601f01602080910402602001604051908101604052809291908181526020018280546108b090613e68565b80156108fd5780601f106108d2576101008083540402835291602001916108fd565b820191906000526020600020905b8154815290600101906020018083116108e057829003601f168201915b505050505081526020019060010190610865565b505050508152602001600a8201548152602001600b8201805480602002602001604051908101604052809291908181526020016000905b828210156109f457838290600052602060002001805461096790613e68565b80601f016020809104026020016040519081016040528092919081815260200182805461099390613e68565b80156109e05780601f106109b5576101008083540402835291602001916109e0565b820191906000526020600020905b8154815290600101906020018083116109c357829003601f168201915b505050505081526020019060010190610948565b505050508152602001600c82016040518060a0016040529081600082018054610a1c90613e68565b80601f0160208091040260200160405190810160405280929190818152602001828054610a4890613e68565b8015610a955780601f10610a6a57610100808354040283529160200191610a95565b820191906000526020600020905b815481529060010190602001808311610a7857829003601f168201915b50505050508152602001600182018054610aae90613e68565b80601f0160208091040260200160405190810160405280929190818152602001828054610ada90613e68565b8015610b275780601f10610afc57610100808354040283529160200191610b27565b820191906000526020600020905b815481529060010190602001808311610b0a57829003601f168201915b5050505050815260200160028201805480602002602001604051908101604052809291908181526020016000905b82821015610c01578382906000526020600020018054610b7490613e68565b80601f0160208091040260200160405190810160405280929190818152602001828054610ba090613e68565b8015610bed5780601f10610bc257610100808354040283529160200191610bed565b820191906000526020600020905b815481529060010190602001808311610bd057829003601f168201915b505050505081526020019060010190610b55565b505050508152602001600382018054610c1990613e68565b80601f0160208091040260200160405190810160405280929190818152602001828054610c4590613e68565b8015610c925780601f10610c6757610100808354040283529160200191610c92565b820191906000526020600020905b815481529060010190602001808311610c7557829003601f168201915b50505050508152602001600482018054610cab90613e68565b80601f0160208091040260200160405190810160405280929190818152602001828054610cd790613e68565b8015610d245780601f10610cf957610100808354040283529160200191610d24565b820191906000526020600020905b815481529060010190602001808311610d0757829003601f168201915b50505050508152505081526020016011820160009054906101000a900473ffffffffffffffffffffffffffffffffffffffff1673ffffffffffffffffffffffffffffffffffffffff1673ffffffffffffffffffffffffffffffffffffffff16815250509050919050565b6001602052806000526040600020600091509050806000015490806001018054610db790613e68565b80601f0160208091040260200160405190810160405280929190818152602001828054610de390613e68565b8015610e305780601f10610e0557610100808354040283529160200191610e30565b820191906000526020600020905b815481529060010190602001808311610e1357829003601f168201915b505050505090806002018054610e4590613e68565b80601f0160208091040260200160405190810160405280929190818152602001828054610e7190613e68565b8015610ebe5780601f10610e9357610100808354040283529160200191610ebe565b820191906000526020600020905b815481529060010190602001808311610ea157829003601f168201915b50505050509080600301604051806060016040529081600082018054610ee390613e68565b80601f0160208091040260200160405190810160405280929190818152602001828054610f0f90613e68565b8015610f5c5780601f10610f3157610100808354040283529160200191610f5c565b820191906000526020600020905b815481529060010190602001808311610f3f57829003601f168201915b50505050508152602001600182018054610f7590613e68565b80601f0160208091040260200160405190810160405280929190818152602001828054610fa190613e68565b8015610fee5780601f10610fc357610100808354040283529160200191610fee565b820191906000526020600020905b815481529060010190602001808311610fd157829003601f168201915b5050505050815260200160028201805461100790613e68565b80601f016020809104026020016040519081016040528092919081815260200182805461103390613e68565b80156110805780601f1061105557610100808354040283529160200191611080565b820191906000526020600020905b81548152906001019060200180831161106357829003601f168201915b5050505050815250509080600601805461109990613e68565b80601f01602080910402602001604051908101604052809291908181526020018280546110c590613e68565b80156111125780601f106110e757610100808354040283529160200191611112565b820191906000526020600020905b8154815290600101906020018083116110f557829003601f168201915b50505050509080600701805461112790613e68565b80601f016020809104026020016040519081016040528092919081815260200182805461115390613e68565b80156111a05780601f10611175576101008083540402835291602001916111a0565b820191906000526020600020905b81548152906001019060200180831161118357829003601f168201915b5050505050908060080180546111b590613e68565b80601f01602080910402602001604051908101604052809291908181526020018280546111e190613e68565b801561122e5780601f106112035761010080835404028352916020019161122e565b820191906000526020600020905b81548152906001019060200180831161121157829003601f168201915b50505050509080600a01549080600c016040518060a001604052908160008201805461125990613e68565b80601f016020809104026020016040519081016040528092919081815260200182805461128590613e68565b80156112d25780601f106112a7576101008083540402835291602001916112d2565b820191906000526020600020905b8154815290600101906020018083116112b557829003601f168201915b505050505081526020016001820180546112eb90613e68565b80601f016020809104026020016040519081016040528092919081815260200182805461131790613e68565b80156113645780601f1061133957610100808354040283529160200191611364565b820191906000526020600020905b81548152906001019060200180831161134757829003601f168201915b5050505050815260200160028201805480602002602001604051908101604052809291908181526020016000905b8282101561143e5783829060005260206000200180546113b190613e68565b80601f01602080910402602001604051908101604052809291908181526020018280546113dd90613e68565b801561142a5780601f106113ff5761010080835404028352916020019161142a565b820191906000526020600020905b81548152906001019060200180831161140d57829003601f168201915b505050505081526020019060010190611392565b50505050815260200160038201805461145690613e68565b80601f016020809104026020016040519081016040528092919081815260200182805461148290613e68565b80156114cf5780601f106114a4576101008083540402835291602001916114cf565b820191906000526020600020905b8154815290600101906020018083116114b257829003601f168201915b505050505081526020016004820180546114e890613e68565b80601f016020809104026020016040519081016040528092919081815260200182805461151490613e68565b80156115615780601f1061153657610100808354040283529160200191611561565b820191906000526020600020905b81548152906001019060200180831161154457829003601f168201915b505050505081525050908060110160009054906101000a900473ffffffffffffffffffffffffffffffffffffffff1690508a565b6060600260008373ffffffffffffffffffffffffffffffffffffffff1673ffffffffffffffffffffffffffffffffffffffff16815260200190815260200160002080548060200260200160405190810160405280929190818152602001828054801561162057602002820191906000526020600020905b81548152602001906001019080831161160c575b50505050509050919050565b6060600060048054905067ffffffffffffffff81111561164f5761164e6136b8565b5b60405190808252806020026020018201604052801561168857816020015b611675612ada565b81526020019060019003908161166d5790505b50905060005b6004805490508110156120fe5760016000600483815481106116b3576116b2613e99565b5b9060005260206000200154815260200190815260200160002060405180610180016040529081600082015481526020016001820180546116f290613e68565b80601f016020809104026020016040519081016040528092919081815260200182805461171e90613e68565b801561176b5780601f106117405761010080835404028352916020019161176b565b820191906000526020600020905b81548152906001019060200180831161174e57829003601f168201915b5050505050815260200160028201805461178490613e68565b80601f01602080910402602001604051908101604052809291908181526020018280546117b090613e68565b80156117fd5780601f106117d2576101008083540402835291602001916117fd565b820191906000526020600020905b8154815290600101906020018083116117e057829003601f168201915b505050505081526020016003820160405180606001604052908160008201805461182690613e68565b80601f016020809104026020016040519081016040528092919081815260200182805461185290613e68565b801561189f5780601f106118745761010080835404028352916020019161189f565b820191906000526020600020905b81548152906001019060200180831161188257829003601f168201915b505050505081526020016001820180546118b890613e68565b80601f01602080910402602001604051908101604052809291908181526020018280546118e490613e68565b80156119315780601f1061190657610100808354040283529160200191611931565b820191906000526020600020905b81548152906001019060200180831161191457829003601f168201915b5050505050815260200160028201805461194a90613e68565b80601f016020809104026020016040519081016040528092919081815260200182805461197690613e68565b80156119c35780601f10611998576101008083540402835291602001916119c3565b820191906000526020600020905b8154815290600101906020018083116119a657829003601f168201915b50505050508152505081526020016006820180546119e090613e68565b80601f0160208091040260200160405190810160405280929190818152602001828054611a0c90613e68565b8015611a595780601f10611a2e57610100808354040283529160200191611a59565b820191906000526020600020905b815481529060010190602001808311611a3c57829003601f168201915b50505050508152602001600782018054611a7290613e68565b80601f0160208091040260200160405190810160405280929190818152602001828054611a9e90613e68565b8015611aeb5780601f10611ac057610100808354040283529160200191611aeb565b820191906000526020600020905b815481529060010190602001808311611ace57829003601f168201915b50505050508152602001600882018054611b0490613e68565b80601f0160208091040260200160405190810160405280929190818152602001828054611b3090613e68565b8015611b7d5780601f10611b5257610100808354040283529160200191611b7d565b820191906000526020600020905b815481529060010190602001808311611b6057829003601f168201915b5050505050815260200160098201805480602002602001604051908101604052809291908181526020016000905b82821015611c57578382906000526020600020018054611bca90613e68565b80601f0160208091040260200160405190810160405280929190818152602001828054611bf690613e68565b8015611c435780601f10611c1857610100808354040283529160200191611c43565b820191906000526020600020905b815481529060010190602001808311611c2657829003601f168201915b505050505081526020019060010190611bab565b505050508152602001600a8201548152602001600b8201805480602002602001604051908101604052809291908181526020016000905b82821015611d3a578382906000526020600020018054611cad90613e68565b80601f0160208091040260200160405190810160405280929190818152602001828054611cd990613e68565b8015611d265780601f10611cfb57610100808354040283529160200191611d26565b820191906000526020600020905b815481529060010190602001808311611d0957829003601f168201915b505050505081526020019060010190611c8e565b505050508152602001600c82016040518060a0016040529081600082018054611d6290613e68565b80601f0160208091040260200160405190810160405280929190818152602001828054611d8e90613e68565b8015611ddb5780601f10611db057610100808354040283529160200191611ddb565b820191906000526020600020905b815481529060010190602001808311611dbe57829003601f168201915b50505050508152602001600182018054611df490613e68565b80601f0160208091040260200160405190810160405280929190818152602001828054611e2090613e68565b8015611e6d5780601f10611e4257610100808354040283529160200191611e6d565b820191906000526020600020905b815481529060010190602001808311611e5057829003601f168201915b5050505050815260200160028201805480602002602001604051908101604052809291908181526020016000905b82821015611f47578382906000526020600020018054611eba90613e68565b80601f0160208091040260200160405190810160405280929190818152602001828054611ee690613e68565b8015611f335780601f10611f0857610100808354040283529160200191611f33565b820191906000526020600020905b815481529060010190602001808311611f1657829003601f168201915b505050505081526020019060010190611e9b565b505050508152602001600382018054611f5f90613e68565b80601f0160208091040260200160405190810160405280929190818152602001828054611f8b90613e68565b8015611fd85780601f10611fad57610100808354040283529160200191611fd8565b820191906000526020600020905b815481529060010190602001808311611fbb57829003601f168201915b50505050508152602001600482018054611ff190613e68565b80601f016020809104026020016040519081016040528092919081815260200182805461201d90613e68565b801561206a5780601f1061203f5761010080835404028352916020019161206a565b820191906000526020600020905b81548152906001019060200180831161204d57829003601f168201915b50505050508152505081526020016011820160009054906101000a900473ffffffffffffffffffffffffffffffffffffffff1673ffffffffffffffffffffffffffffffffffffffff1673ffffffffffffffffffffffffffffffffffffffff16815250508282815181106120e0576120df613e99565b5b602002602001018190525080806120f690613ef7565b91505061168e565b508091505090565b600060048054905082109050919050565b6000600480549050905090565b600060048054905090506040518061018001604052808281526020018c81526020018b81526020018481526020018a81526020018981526020018881526020018781526020018681526020018581526020018381526020013373ffffffffffffffffffffffffffffffffffffffff16815250600160008381526020019081526020016000206000820151816000015560208201518160010190816121c891906140eb565b5060408201518160020190816121de91906140eb565b5060608201518160030160008201518160000190816121fd91906140eb565b50602082015181600101908161221391906140eb565b50604082015181600201908161222991906140eb565b505050608082015181600601908161224191906140eb565b5060a082015181600701908161225791906140eb565b5060c082015181600801908161226d91906140eb565b5060e082015181600901908051906020019061228a929190612b5d565b5061010082015181600a015561012082015181600b0190805190602001906122b3929190612b5d565b5061014082015181600c0160008201518160000190816122d391906140eb565b5060208201518160010190816122e991906140eb565b506040820151816002019080519060200190612306929190612b5d565b50606082015181600301908161231c91906140eb565b50608082015181600401908161233291906140eb565b5050506101608201518160110160006101000a81548173ffffffffffffffffffffffffffffffffffffffff021916908373ffffffffffffffffffffffffffffffffffffffff160217905550905050600260003373ffffffffffffffffffffffffffffffffffffffff1673ffffffffffffffffffffffffffffffffffffffff16815260200190815260200160002081908060018154018082558091505060019003906000526020600020016000909190919091505560048190806001815401808255809150506001900390600052602060002001600090919091909150553373ffffffffffffffffffffffffffffffffffffffff16817fe203a10283fe11e231a5ab7086bb699ffc7c05f1604dbc01c95d5e93e658580b8d8a6040516124589291906141bd565b60405180910390a35050505050505050505050565b6002602052816000526040600020818154811061248957600080fd5b90600052602060002001600091509150505481565b6124a6612a8a565b60048054905081106124ed576040517f08c379a00000000000000000000000000000000000000000000000000000000081526004016124e490613e19565b60405180910390fd5b600060016000838152602001908152602001600020905080600a015434101561254b576040517f08c379a000000000000000000000000000000000000000000000000000000000815260040161254290614240565b60405180910390fd5b6003600083815260200190815260200160002060003373ffffffffffffffffffffffffffffffffffffffff1673ffffffffffffffffffffffffffffffffffffffff16815260200190815260200160002060009054906101000a900460ff16156125e9576040517f08c379a00000000000000000000000000000000000000000000000000000000081526004016125e0906142ac565b60405180910390fd5b60016003600084815260200190815260200160002060003373ffffffffffffffffffffffffffffffffffffffff1673ffffffffffffffffffffffffffffffffffffffff16815260200190815260200160002060006101000a81548160ff02191690831515021790555060003390508073ffffffffffffffffffffffffffffffffffffffff166108fc349081150290604051600060405180830381858888f1935050505015801561269d573d6000803e3d6000fd5b503373ffffffffffffffffffffffffffffffffffffffff16837fc56e8aa8e9f4284830fd4657bc77d60640af2ec679f2099faf320ee4202ff422346040516126e59190613693565b60405180910390a350506126f7612ad0565b50565b6004805490508510612741576040517f08c379a000000000000000000000000000000000000000000000000000000000815260040161273890613e19565b60405180910390fd5b600073ffffffffffffffffffffffffffffffffffffffff168473ffffffffffffffffffffffffffffffffffffffff16036127b0576040517f08c379a00000000000000000000000000000000000000000000000000000000081526004016127a790614318565b60405180910390fd5b6000600260003373ffffffffffffffffffffffffffffffffffffffff1673ffffffffffffffffffffffffffffffffffffffff168152602001908152602001600020905060005b81805490508110156128b4578682828154811061281657612815613e99565b5b9060005260206000200154036128a15781600183805490506128389190614338565b8154811061284957612848613e99565b5b906000526020600020015482828154811061286757612866613e99565b5b9060005260206000200181905550818054806128865761288561436c565b5b600190038181906000526020600020016000905590556128b4565b80806128ac90613ef7565b9150506127f6565b50600260008673ffffffffffffffffffffffffffffffffffffffff1673ffffffffffffffffffffffffffffffffffffffff16815260200190815260200160002086908060018154018082558091505060019003906000526020600020016000909190919091505560405180606001604052808581526020018481526020018381525060016000888152602001908152602001600020600301600082015181600001908161296191906140eb565b50602082015181600101908161297791906140eb565b50604082015181600201908161298d91906140eb565b509050508473ffffffffffffffffffffffffffffffffffffffff163373ffffffffffffffffffffffffffffffffffffffff16877f16b85f49bf01212961345d3016c9a531894accf62eb7680f2045d79185cc0ec060405160405180910390a4505050505050565b60006004805490508210612a3d576040517f08c379a0000000000000000000000000000000000000000000000000000000008152600401612a3490613e19565b60405180910390fd5b60016000838152602001908152602001600020600a01549050919050565b60036020528160005260406000206020528060005260406000206000915091509054906101000a900460ff1681565b600260005403612ac6576040517f3ee5aeb500000000000000000000000000000000000000000000000000000000815260040160405180910390fd5b6002600081905550565b6001600081905550565b604051806101800160405280600081526020016060815260200160608152602001612b03612bb6565b8152602001606081526020016060815260200160608152602001606081526020016000815260200160608152602001612b3a612bd7565b8152602001600073ffffffffffffffffffffffffffffffffffffffff1681525090565b828054828255906000526020600020908101928215612ba5579160200282015b82811115612ba4578251829081612b9491906140eb565b5091602001919060010190612b7d565b5b509050612bb29190612c06565b5090565b60405180606001604052806060815260200160608152602001606081525090565b6040518060a0016040528060608152602001606081526020016060815260200160608152602001606081525090565b5b80821115612c265760008181612c1d9190612c2a565b50600101612c07565b5090565b508054612c3690613e68565b6000825580601f10612c485750612c67565b601f016020900490600052602060002090810190612c669190612c6a565b5b50565b5b80821115612c83576000816000905550600101612c6b565b5090565b6000604051905090565b600080fd5b600080fd5b6000819050919050565b612cae81612c9b565b8114612cb957600080fd5b50565b600081359050612ccb81612ca5565b92915050565b600060208284031215612ce757612ce6612c91565b5b6000612cf584828501612cbc565b91505092915050565b612d0781612c9b565b82525050565b600081519050919050565b600082825260208201905092915050565b60005b83811015612d47578082015181840152602081019050612d2c565b60008484015250505050565b6000601f19601f8301169050919050565b6000612d6f82612d0d565b612d798185612d18565b9350612d89818560208601612d29565b612d9281612d53565b840191505092915050565b60006060830160008301518482036000860152612dba8282612d64565b91505060208301518482036020860152612dd48282612d64565b91505060408301518482036040860152612dee8282612d64565b9150508091505092915050565b600081519050919050565b600082825260208201905092915050565b6000819050602082019050919050565b6000612e338383612d64565b905092915050565b6000602082019050919050565b6000612e5382612dfb565b612e5d8185612e06565b935083602082028501612e6f85612e17565b8060005b85811015612eab5784840389528151612e8c8582612e27565b9450612e9783612e3b565b925060208a01995050600181019050612e73565b50829750879550505050505092915050565b600060a0830160008301518482036000860152612eda8282612d64565b91505060208301518482036020860152612ef48282612d64565b91505060408301518482036040860152612f0e8282612e48565b91505060608301518482036060860152612f288282612d64565b91505060808301518482036080860152612f428282612d64565b9150508091505092915050565b600073ffffffffffffffffffffffffffffffffffffffff82169050919050565b6000612f7a82612f4f565b9050919050565b612f8a81612f6f565b82525050565b600061018083016000830151612fa96000860182612cfe565b5060208301518482036020860152612fc18282612d64565b91505060408301518482036040860152612fdb8282612d64565b91505060608301518482036060860152612ff58282612d9d565b9150506080830151848203608086015261300f8282612d64565b91505060a083015184820360a08601526130298282612d64565b91505060c083015184820360c08601526130438282612d64565b91505060e083015184820360e086015261305d8282612e48565b915050610100830151613074610100860182612cfe565b5061012083015184820361012086015261308e8282612e48565b9150506101408301518482036101408601526130aa8282612ebd565b9150506101608301516130c1610160860182612f81565b508091505092915050565b600060208201905081810360008301526130e68184612f90565b905092915050565b6130f781612c9b565b82525050565b600082825260208201905092915050565b600061311982612d0d565b61312381856130fd565b9350613133818560208601612d29565b61313c81612d53565b840191505092915050565b600060608301600083015184820360008601526131648282612d64565b9150506020830151848203602086015261317e8282612d64565b915050604083015184820360408601526131988282612d64565b9150508091505092915050565b600060a08301600083015184820360008601526131c28282612d64565b915050602083015184820360208601526131dc8282612d64565b915050604083015184820360408601526131f68282612e48565b915050606083015184820360608601526132108282612d64565b9150506080830151848203608086015261322a8282612d64565b9150508091505092915050565b61324081612f6f565b82525050565b60006101408201905061325c600083018d6130ee565b818103602083015261326e818c61310e565b90508181036040830152613282818b61310e565b90508181036060830152613296818a613147565b905081810360808301526132aa818961310e565b905081810360a08301526132be818861310e565b905081810360c08301526132d2818761310e565b90506132e160e08301866130ee565b8181036101008301526132f481856131a5565b9050613304610120830184613237565b9b9a5050505050505050505050565b61331c81612f6f565b811461332757600080fd5b50565b60008135905061333981613313565b92915050565b60006020828403121561335557613354612c91565b5b60006133638482850161332a565b91505092915050565b600081519050919050565b600082825260208201905092915050565b6000819050602082019050919050565b60006133a48383612cfe565b60208301905092915050565b6000602082019050919050565b60006133c88261336c565b6133d28185613377565b93506133dd83613388565b8060005b8381101561340e5781516133f58882613398565b9750613400836133b0565b9250506001810190506133e1565b5085935050505092915050565b6000602082019050818103600083015261343581846133bd565b905092915050565b600081519050919050565b600082825260208201905092915050565b6000819050602082019050919050565b6000610180830160008301516134826000860182612cfe565b506020830151848203602086015261349a8282612d64565b915050604083015184820360408601526134b48282612d64565b915050606083015184820360608601526134ce8282612d9d565b915050608083015184820360808601526134e88282612d64565b91505060a083015184820360a08601526135028282612d64565b91505060c083015184820360c086015261351c8282612d64565b91505060e083015184820360e08601526135368282612e48565b91505061010083015161354d610100860182612cfe565b506101208301518482036101208601526135678282612e48565b9150506101408301518482036101408601526135838282612ebd565b91505061016083015161359a610160860182612f81565b508091505092915050565b60006135b18383613469565b905092915050565b6000602082019050919050565b60006135d18261343d565b6135db8185613448565b9350836020820285016135ed85613459565b8060005b85811015613629578484038952815161360a85826135a5565b9450613615836135b9565b925060208a019950506001810190506135f1565b50829750879550505050505092915050565b6000602082019050818103600083015261365581846135c6565b905092915050565b60008115159050919050565b6136728161365d565b82525050565b600060208201905061368d6000830184613669565b92915050565b60006020820190506136a860008301846130ee565b92915050565b600080fd5b600080fd5b7f4e487b7100000000000000000000000000000000000000000000000000000000600052604160045260246000fd5b6136f082612d53565b810181811067ffffffffffffffff8211171561370f5761370e6136b8565b5b80604052505050565b6000613722612c87565b905061372e82826136e7565b919050565b600067ffffffffffffffff82111561374e5761374d6136b8565b5b61375782612d53565b9050602081019050919050565b82818337600083830152505050565b600061378661378184613733565b613718565b9050828152602081018484840111156137a2576137a16136b3565b5b6137ad848285613764565b509392505050565b600082601f8301126137ca576137c96136ae565b5b81356137da848260208601613773565b91505092915050565b600067ffffffffffffffff8211156137fe576137fd6136b8565b5b602082029050602081019050919050565b600080fd5b6000613827613822846137e3565b613718565b9050808382526020820190506020840283018581111561384a5761384961380f565b5b835b8181101561389157803567ffffffffffffffff81111561386f5761386e6136ae565b5b80860161387c89826137b5565b8552602085019450505060208101905061384c565b5050509392505050565b600082601f8301126138b0576138af6136ae565b5b81356138c0848260208601613814565b91505092915050565b600080fd5b600080fd5b6000606082840312156138e9576138e86138c9565b5b6138f36060613718565b9050600082013567ffffffffffffffff811115613913576139126138ce565b5b61391f848285016137b5565b600083015250602082013567ffffffffffffffff811115613943576139426138ce565b5b61394f848285016137b5565b602083015250604082013567ffffffffffffffff811115613973576139726138ce565b5b61397f848285016137b5565b60408301525092915050565b600060a082840312156139a1576139a06138c9565b5b6139ab60a0613718565b9050600082013567ffffffffffffffff8111156139cb576139ca6138ce565b5b6139d7848285016137b5565b600083015250602082013567ffffffffffffffff8111156139fb576139fa6138ce565b5b613a07848285016137b5565b602083015250604082013567ffffffffffffffff811115613a2b57613a2a6138ce565b5b613a378482850161389b565b604083015250606082013567ffffffffffffffff811115613a5b57613a5a6138ce565b5b613a67848285016137b5565b606083015250608082013567ffffffffffffffff811115613a8b57613a8a6138ce565b5b613a97848285016137b5565b60808301525092915050565b6000806000806000806000806000806101408b8d031215613ac757613ac6612c91565b5b60008b013567ffffffffffffffff811115613ae557613ae4612c96565b5b613af18d828e016137b5565b9a505060208b013567ffffffffffffffff811115613b1257613b11612c96565b5b613b1e8d828e016137b5565b99505060408b013567ffffffffffffffff811115613b3f57613b3e612c96565b5b613b4b8d828e016137b5565b98505060608b013567ffffffffffffffff811115613b6c57613b6b612c96565b5b613b788d828e016137b5565b97505060808b013567ffffffffffffffff811115613b9957613b98612c96565b5b613ba58d828e016137b5565b96505060a08b013567ffffffffffffffff811115613bc657613bc5612c96565b5b613bd28d828e0161389b565b95505060c0613be38d828e01612cbc565b94505060e08b013567ffffffffffffffff811115613c0457613c03612c96565b5b613c108d828e0161389b565b9350506101008b013567ffffffffffffffff811115613c3257613c31612c96565b5b613c3e8d828e016138d3565b9250506101208b013567ffffffffffffffff811115613c6057613c5f612c96565b5b613c6c8d828e0161398b565b9150509295989b9194979a5092959850565b60008060408385031215613c9557613c94612c91565b5b6000613ca38582860161332a565b9250506020613cb485828601612cbc565b9150509250929050565b600080600080600060a08688031215613cda57613cd9612c91565b5b6000613ce888828901612cbc565b9550506020613cf98882890161332a565b945050604086013567ffffffffffffffff811115613d1a57613d19612c96565b5b613d26888289016137b5565b935050606086013567ffffffffffffffff811115613d4757613d46612c96565b5b613d53888289016137b5565b925050608086013567ffffffffffffffff811115613d7457613d73612c96565b5b613d80888289016137b5565b9150509295509295909350565b60008060408385031215613da457613da3612c91565b5b6000613db285828601612cbc565b9250506020613dc38582860161332a565b9150509250929050565b7f495020646f6573206e6f74206578697374000000000000000000000000000000600082015250565b6000613e036011836130fd565b9150613e0e82613dcd565b602082019050919050565b60006020820190508181036000830152613e3281613df6565b9050919050565b7f4e487b7100000000000000000000000000000000000000000000000000000000600052602260045260246000fd5b60006002820490506001821680613e8057607f821691505b602082108103613e9357613e92613e39565b5b50919050565b7f4e487b7100000000000000000000000000000000000000000000000000000000600052603260045260246000fd5b7f4e487b7100000000000000000000000000000000000000000000000000000000600052601160045260246000fd5b6000613f0282612c9b565b91507fffffffffffffffffffffffffffffffffffffffffffffffffffffffffffffffff8203613f3457613f33613ec8565b5b600182019050919050565b60008190508160005260206000209050919050565b60006020601f8301049050919050565b600082821b905092915050565b600060088302613fa17fffffffffffffffffffffffffffffffffffffffffffffffffffffffffffffffff82613f64565b613fab8683613f64565b95508019841693508086168417925050509392505050565b6000819050919050565b6000613fe8613fe3613fde84612c9b565b613fc3565b612c9b565b9050919050565b6000819050919050565b61400283613fcd565b61401661400e82613fef565b848454613f71565b825550505050565b600090565b61402b61401e565b614036818484613ff9565b505050565b5b8181101561405a5761404f600082614023565b60018101905061403c565b5050565b601f82111561409f5761407081613f3f565b61407984613f54565b81016020851015614088578190505b61409c61409485613f54565b83018261403b565b50505b505050565b600082821c905092915050565b60006140c2600019846008026140a4565b1980831691505092915050565b60006140db83836140b1565b9150826002028217905092915050565b6140f482612d0d565b67ffffffffffffffff81111561410d5761410c6136b8565b5b6141178254613e68565b61412282828561405e565b600060209050601f8311600181146141555760008415614143578287015190505b61414d85826140cf565b8655506141b5565b601f19841661416386613f3f565b60005b8281101561418b57848901518255600182019150602085019450602081019050614166565b868310156141a857848901516141a4601f8916826140b1565b8355505b6001600288020188555050505b505050505050565b600060408201905081810360008301526141d7818561310e565b905081810360208301526141eb818461310e565b90509392505050565b7f496e73756666696369656e74207061796d656e74000000000000000000000000600082015250565b600061422a6014836130fd565b9150614235826141f4565b602082019050919050565b600060208201905081810360008301526142598161421d565b9050919050565b7f416c726561647920686173206163636573730000000000000000000000000000600082015250565b60006142966012836130fd565b91506142a182614260565b602082019050919050565b600060208201905081810360008301526142c581614289565b9050919050565b7f496e76616c6964206e6577206f776e6572000000000000000000000000000000600082015250565b60006143026011836130fd565b915061430d826142cc565b602082019050919050565b60006020820190508181036000830152614331816142f5565b9050919050565b600061434382612c9b565b915061434e83612c9b565b925082820390508181111561436657614365613ec8565b5b92915050565b7f4e487b7100000000000000000000000000000000000000000000000000000000600052603160045260246000fdfea26469706673582212200c2ba7900eacff686002ecc6511c5271bc81475ed011db5569154a72b3ea5ffd64736f6c63430008140033",
  "linkReferences": {},
  "deployedLinkReferences": {}
}